:100000000C9462000C948A000C948A000C948A0070
:100010000C948A000C948A000C948A000C948A0038
:100020000C948A000C948A000C948A000C948A0028
:100030000C948A000C948A000C948A000C948A0018
:100040000C94B1040C948A000C94A3010C94F50157
:100050000C948A000C948A000C948A000C948A00F8
:100060000C948A000C948A000000000024002700F1
:100070002A0000000000250028002B0000000000DE
:1000800023002600290004040404040404040202DA
:100090000202020203030303030301020408102007
:1000A0004080010204081020010204081020000012
:1000B0000007000201000003040600000000000029
:1000C0000000640311241FBECFEFD8E0DEBFCDBF18
:1000D00011E0A0E0B1E0E4E6FBE002C005900D9283
:1000E000A031B107D9F711E0A0E1B1E001C01D9244
:1000F000A43CB107E1F710E0C4ECD0E004C02297C3
:10010000FE010E94AC05C23CD107C9F70E94BB03A7
:100110000C94B0050C94000089E991E00E94B702AC
:100120001816190634F489E991E00E94AD04609331
:10013000100180911001883009F44CC0893088F496
:100140008430E9F1853040F48230A9F18330A8F59C
:10015000813009F043C02DC08630A9F18730A8F561
:1001600030C08C32E1F08D3238F4863199F0813232
:10017000A1F08B3099F50CC08234A9F0833418F4C7
:10018000873361F50EC08D3481F0883539F50FC0A5
:1001900082E001C083E061E01AC084E0FCCF85E02A
:1001A000FACF86E0F8CF87E0F6CF88E0F4CF89E099
:1001B000F2CF82E00BC083E009C084E007C085E095
:1001C00005C086E003C087E001C088E060E00E94CF
:1001D0004E01089589E060E00E944E01089589E98A
:1001E00091E040E855E260E070E00E94300289E969
:1001F00091E00E94140382E00BC061E00E940F01B5
:100200008091100161E00E944E01809110018F5F8A
:1002100080931001809110018A3078F30895CF9374
:10022000DF93482F50E0CA0186569F4FFC0134915E
:100230004A575F4FFA018491882369F190E0880F53
:10024000991FFC01E859FF4FA591B491FC01EE58AC
:10025000FF4FC591D491662351F42FB7F8948C9138
:10026000932F909589238C93888189230BC06230CA
:1002700061F42FB7F8948C91932F909589238C93E8
:100280008881832B88832FBF06C09FB7F8948C91F9
:10029000832B8C939FBFDF91CF910895482F50E01F
:1002A000CA0182559F4FFC012491CA0186569F4F77
:1002B000FC0194914A575F4FFA013491332309F4BA
:1002C00040C0222351F1233071F0243028F4213032
:1002D000A1F0223011F514C02630B1F02730C1F062
:1002E0002430D9F404C0809180008F7703C08091BE
:1002F00080008F7D8093800010C084B58F7702C00E
:1003000084B58F7D84BD09C08091B0008F7703C014
:100310008091B0008F7D8093B000E32FF0E0EE0F6E
:10032000FF1FEE58FF4FA591B4912FB7F8946623A5
:1003300021F48C919095892302C08C91892B8C9308
:100340002FBF089508951F920F920FB60F92112498
:100350002F933F934F938F939F93EF93FF938091AE
:10036000C00082FD1DC04091C60020915101309116
:1003700052012F5F3F4F2F73307080915301909146
:1003800054012817390771F0E0915101F0915201A1
:10039000EF5EFE4F4083309352012093510102C023
:1003A0008091C600FF91EF919F918F914F913F9166
:1003B0002F910F900FBE0F901F901895E091A501FF
:1003C000F091A601E05CFF4F8191919120813181F4
:1003D000805C9F4F821B930B60E470E00E9461057C
:1003E000892B11F00E94A20108951F920F920FB65F
:1003F0000F9211242F933F938F939F93EF93FF932B
:1004000020919501309196018091970190919801EA
:100410002817390731F48091C1008F7D8093C10086
:1004200014C0E0919701F0919801EB5AFE4F2081A2
:10043000809197019091980101968F73907090939D
:100440009801809397012093C600FF91EF919F91AF
:100450008F913F912F910F900FBE0F901F90189585
:10046000AF92BF92DF92EF92FF920F931F93CF93C1
:10047000DF93EC017A018B01DD24403081EE5807D7
:1004800080E0680780E0780711F0DD24D39491E0E4
:10049000A92EB12CEC89FD89DD2069F0C50108A0E9
:1004A00002C0880F991F0A94E2F7808360E079E028
:1004B0008DE390E005C0108260E874E88EE190E082
:1004C000A80197010E9474052150304040405040DF
:1004D000569547953795279580E12030380720F0CD
:1004E000DD2011F0DD24D6CFE889F9893083EA894F
:1004F000FB89208319A2EE89FF89408121E030E049
:10050000C9010C8C02C0880F991F0A94E2F7482B8E
:100510004083EE89FF894081C9010D8C02C0880F9C
:10052000991F0A94E2F7482B4083EE89FF894081A6
:10053000C9010E8C02C0880F991F0A94E2F7482B5C
:100540004083EE89FF8980810F8C02C0220F331F08
:100550000A94E2F7209528232083DF91CF911F9101
:100560000F91FF90EF90DF90BF90AF900895DC0166
:100570001C96ED91FC911D97E05CFF4F819191914C
:1005800020813181805C9F4F821B930B60E470E07F
:100590000E9461050895DC011C96ED91FC911D9768
:1005A000E05CFF4F20813181E054F040DF01AE5B21
:1005B000BF4F8D919C9111972817390719F42FEF90
:1005C0003FEF07C08D919C91E80FF91F8081282F84
:1005D00030E0C9010895DC011C96ED91FC911D9756
:1005E000E05CFF4F20813181E054F040DF01AE5BE1
:1005F000BF4F8D919C9111972817390719F42FEF50
:100600003FEF10C08D919C911197E80FF91F208149
:100610008D919C91119701968F73907011969C9378
:100620008E9330E0C9010895DC0191968C919197E9
:10063000882339F05496ED91FC915597808186FF7F
:10064000F9CF91961C920895CF93DF93EC01EE853C
:10065000FF85E05CFF4F20813181E054F0402F5F47
:100660003F4F2F733070DF01AE5BBF4F8D919C9178
:10067000119728173907D1F3E05CFF4F80819181F2
:10068000E054F040E80FF91F6083EE85FF85E05CE1
:10069000FF4F31832083EE89FF89208181E090E044
:1006A0000F8C02C0880F991F0A94E2F7282B208331
:1006B00081E089A3EC89FD8980818064808381E069
:1006C00090E0DF91CF91089510929C0110929B01D0
:1006D00088EE93E0A0E0B0E080939D0190939E01AE
:1006E000A0939F01B093A00184E091E090939A01C0
:1006F0008093990181E191E09093A6018093A501F7
:1007000085E591E09093A8018093A70185EC90E0A6
:100710009093AA018093A90184EC90E09093AC019E
:100720008093AB0180EC90E09093AE018093AD019B
:1007300081EC90E09093B0018093AF0182EC90E067
:100740009093B2018093B10186EC90E09093B40154
:100750008093B30184E08093B50183E08093B60178
:1007600087E08093B70185E08093B80181E08093B2
:10077000B90108950895CF93DF930E9407050E9461
:10078000BA030E94EF00CEEDD1E00E948C002097CA
:10079000E1F30E94DE01F9CFCF92DF92EF92FF9258
:1007A0000F931F93CF93DF937C016B018A01C0E00D
:1007B000D0E00FC0D6016D916D01D701ED91FC9194
:1007C0000190F081E02DC7010995C80FD91F015094
:1007D00010400115110571F7CE01DF91CF911F91E6
:1007E0000F91FF90EF90DF90CF900895CF93DF931C
:1007F000EC010E94F904688779878A879B87E881E2
:10080000F9810084F185E02DCE0109959C0197FFC7
:1008100015C00E94F904288539854A855B85621BCD
:10082000730B840B950B2C813D814E815F81621788
:1008300073078407950718F32FEF3FEFC901DF9186
:10084000CF910895CF93DF93EC01CE010E94F60380
:100850009C0197FD0EC08D32910559F0C0970A9703
:1008600040F0E881F9810680F781E02DCE010995FD
:10087000ECCFC901DF91CF9108959F92AF92BF92C3
:10088000CF92DF92EF92FF920F931F93CF93DF935C
:100890006C01B62E0E942204EC0197FF04C0EE24E6
:1008A000FF2487014CC09924EE24FF248701AB2C40
:1008B000BB24A7FCB094CA15DB0529F1CD32D105C4
:1008C00019F4992493941FC0CE01C0970A97D8F4C5
:1008D000C801B7012AE030E040E050E00E94420544
:1008E0007B018C01CE01AA2797FDA095BA2FE80EB7
:1008F000F91E0A1F1B1F80ED9FEFAFEFBFEFE80E41
:10090000F91E0A1F1B1FD601ED91FC910680F7818D
:10091000E02DC6010995C6010E94F603EC01C097BF
:100920000A9748F2CA15DB0531F2992041F010957B
:100930000095F094E094E11CF11C011D111DB7011C
:10094000C801DF91CF911F910F91FF90EF90DF9041
:10095000CF90BF90AF909F90089561E00E943D04BA
:1009600008951F920F920FB60F9211242F933F9369
:100970008F939F93AF93BF938091BF019091C001DC
:10098000A091C101B091C2013091C3010196A11D96
:10099000B11D232F2D5F2D3720F02D570196A11D5E
:1009A000B11D2093C3018093BF019093C001A09318
:1009B000C101B093C2018091BB019091BC01A09193
:1009C000BD01B091BE010196A11DB11D8093BB0177
:1009D0009093BC01A093BD01B093BE01BF91AF91B4
:1009E0009F918F913F912F910F900FBE0F901F906D
:1009F00018958FB7F8942091BF013091C0014091B4
:100A0000C1015091C2018FBFB901CA010895789404
:100A100084B5826084BD84B5816084BD85B5826003
:100A200085BD85B5816085BDEEE6F0E080818160A1
:100A30008083E1E8F0E010828081826080838081A1
:100A400081608083E0E8F0E0808181608083E1EB79
:100A5000F0E0808184608083E0EBF0E08081816061
:100A60008083EAE7F0E08081846080838081826017
:100A70008083808181608083808180688083109200
:100A8000C1000895629FD001739FF001829FE00D25
:100A9000F11D649FE00DF11D929FF00D839FF00DFD
:100AA000749FF00D659FF00D9927729FB00DE11DA9
:100AB000F91F639FB00DE11DF91FBD01CF01112486
:100AC000089597FB092E07260AD077FD04D02ED073
:100AD00006D000201AF4709561957F4F0895F6F7BF
:100AE000909581959F4F0895A1E21A2EAA1BBB1BDA
:100AF000FD010DC0AA1FBB1FEE1FFF1FA217B307EA
:100B0000E407F50720F0A21BB30BE40BF50B661FFF
:100B1000771F881F991F1A9469F7609570958095C3
:100B200090959B01AC01BD01CF010895AA1BBB1B91
:100B300051E107C0AA1FBB1FA617B70710F0A61BDD
:100B4000B70B881F991F5A95A9F780959095BC01FE
:100B5000CD010895EE0FFF1F0590F491E02D09944B
:040B6000F894FFCF37
:100B6400000000002403CC03B702EB02CB02140301
:00000001FF
