:100000000C9463000C948B000C948B000C948B006C
:100010000C948B000C948B000C948B000C948B0034
:100020000C948B000C948B000C948B000C948B0024
:100030000C948B000C948B000C948B000C948B0014
:100040000C945A040C948B000C94F6050C944806FE
:100050000C948B000C948B000C948B000C948B00F4
:100060000C948B000C948B000000000024002700EF
:100070002A0000000000250028002B0000000000DE
:1000800023002600290004040404040404040202DA
:100090000202020203030303030301020408102007
:1000A0004080010204081020010204081020000012
:1000B0000007000201000003040600000000000029
:1000C00000008D00B70711241FBECFEFD8E0DEBFC0
:1000D000CDBF11E0A0E0B1E0ECE9F3E102C0059092
:1000E0000D92A833B107D9F712E0A8E3B1E001C03F
:1000F0001D92AB30B107E1F710E0C6ECD0E004C0D0
:100100002297FE010E94C809C23CD107C9F70E948C
:100110000E080C94CC090C940000CF92EF920F9330
:1001200083E491E068E049E024E005E056E0E52E54
:1001300037E0C32E0E9421040F91EF90CF900895D5
:100140001F93182F83E491E06DE041E00E94340397
:10015000112329F083E491E060E071E004C083E4BE
:1001600091E064E071E00E945B091F910895EF92B5
:10017000FF920F931F9363E4E62E61E0F62EC70112
:1001800060E142E020E00E946B03C7010E9463032C
:1001900009EE11E0C80140E855E260E070E00E941D
:1001A0008306C8010E946707C70160E040E00E9423
:1001B0003403C70168E071E00E945B09C70160E099
:1001C00041E00E943403C7016FE071E00E945B09C7
:1001D0008DE061E00E9462051F910F91FF90EF900A
:1001E00008958EE00E9440059C018C33910510F427
:1001F00084E00895805590408035910510F483E0A7
:100200000895C9018C5D90408837910510F482E013
:100210000895C901885691408A3A910510F481E009
:10022000089528553240283C310510F08FEF08958D
:1002300080E008951F93182F0E94F100833009F485
:1002400011E00E94F100823009F410E0812F1F912B
:1002500008950E94F100882309F08AC0809142012C
:100260008430E9F1853044F48230E9F083304CF594
:10027000813009F06CC009C0863009F44CC086306A
:10028000E4F1873009F063C054C0809139018130B6
:1002900029F489EE91E062E070E066C089EE91E0B9
:1002A00066E170E061C080913901813029F489EE06
:1002B00091E063E070E058C089EE91E061E270E0A7
:1002C00053C080913901813029F489EE91E064E0D6
:1002D00070E04AC089EE91E06CE270E045C0809128
:1002E0003901813029F489EE91E065E070E03CC08D
:1002F00089EE91E067E370E037C080913901813089
:1003000029F489EE91E066E070E02EC089EE91E07C
:1003100062E470E029C080913901813029F489EECE
:1003200091E067E070E020C089EE91E06DE470E05C
:100330001BC080913901813029F489EE91E068E099
:1003400070E012C089EE91E068E570E00DC0809128
:100350003901813029F489EE91E061E070E004C058
:1003600089EE91E06BE070E04AE050E00E943C09C9
:100370000E94F100843029F4809142018F5F8093C4
:1003800042010E94F100813029F4809142018150A4
:100390008093420180914201883014F01092420112
:1003A0008091420187FF03C087E08093420183E48C
:1003B00091E06FE040E00E943403609142017727B2
:1003C00067FD70956F5F7F4F83E491E04AE050E0F6
:1003D0000E94290980914201843099F1853044F4CA
:1003E0008230C9F0833014F5813009F056C008C05E
:1003F0008630E9F1863084F1873009F04EC042C082
:1004000080913B010E941A0180933B010E94A00051
:1004100080913B014CC080913C010E941A01809365
:100420003C010E94A00080913C0141C080913D01AF
:100430000E941A0180933D010E94A00080913D011D
:1004400036C080913E010E941A0180933E010E94B5
:10045000A00080913E012BC080913F010E941A01B3
:1004600080933F010E94A00080913F0120C08091B5
:1004700040010E941A01809340010E94A0008091D7
:10048000400115C0809141010E941A0180934101F1
:100490000E94A000809141010AC080913A010E940F
:1004A0001A0180933A010E94A00080913A01809342
:1004B00039018DE0609138010E94A10563E670E08A
:1004C00080E090E00E94A2048091380180958093A2
:1004D000380108950F931F938C01FC01868160E021
:1004E0000E94A10581E090E00E94FB04F801868152
:1004F00061E00E94A10581E090E00E94FB04F80108
:10050000868160E00E94A10584E690E00E94FB04E1
:100510001F910F910895CF92DF92EF92FF920F9368
:100520001F93CF93DF93D82EC92E282F392FC901BF
:100530008C01C0E0D0E0E62EFF24F801878161E065
:100540000E946205B7010C2E02C0759567950A944A
:10055000E2F76170F80187810E94A10521960F5F83
:100560001F4FC830D10549F78D2D9C2D0E946A027E
:10057000DF91CF911F910F91FF90EF90DF90CF907F
:100580000895CF92DF92EF92FF920F931F93CF9334
:10059000DF93D82EC92E282F392FC9018C01C0E036
:1005A000D0E0E62EFF24F801878161E00E94620519
:1005B000B7010C2E02C0759567950A94E2F7617039
:1005C000F80187810E94A10521960F5F1F4FC4305B
:1005D000D10549F78D2D9C2D0E946A02DF91CF91A4
:1005E0001F910F91FF90EF90DF90CF9008951F9390
:1005F000CF93DF93EC01162F8C81642F0E94A1050D
:100600008D818F3F19F060E00E94A1058F8584FFE6
:1006100005C0CE01612F0E948B020EC0612F70E0D9
:1006200084E0759567958A95E1F7CE010E94C10235
:10063000CE01612F0E94C102DF91CF911F910895D9
:1006400041E00E94F70281E090E0089540E00E94BE
:10065000F7020895FC016089862F8460808B6C60AE
:10066000CF010E9426030895DF93CF93CDB7DEB765
:1006700028970FB6F894DEBF0FBECDBF9C01FE01D8
:100680003196AFE1B1E088E00D9001928150E1F741
:10069000F9018389481710F0482F4150E42FF0E00A
:1006A000EE0FFF1FEC0FFD1F8181680F6068C9010D
:1006B0000E94260328960FB6F894DEBF0FBECDBF6A
:1006C000CF91DF91089561E00E94260380ED97E0CD
:1006D0000E94FB040895CF93DF93EC01423018F0A1
:1006E0008F8588608F874B8B1C8A222329F04130AD
:1006F00019F48F8584608F8780E593EC0E94FB045A
:100700008C8160E00E94A1058E8160E00E94A105BD
:100710008D818F3F19F060E00E94A1056F8564FD17
:100720001DC0CE0163E00E94C10284E991E10E94F4
:10073000FB04CE0163E00E94C10284E991E10E94C2
:10074000FB04CE0163E00E94C10286E990E00E94B2
:10075000FB04CE0162E00E94C10216C06062CE01BD
:100760000E94260384E991E10E94FB046F85606288
:10077000CE010E94260386E990E00E94FB046F856B
:100780006062CE010E9426036F856062CE010E94E6
:10079000260384E0888BCE010E942A03CE010E94AA
:1007A000630382E0898BCE0166E00E942603DF911D
:1007B000CF9108956F927F928F92AF92CF92EF92E6
:1007C0000F931F93DF93CF93CDB7DEB73C01162F66
:1007D000842FF301448325830683E782C086A186A4
:1007E00082869D8593879E8594879F859587988926
:1007F000968761E00E946205F30185818F3F19F0C1
:1008000061E00E946205F301868161E00E94620559
:10081000112319F0F301178603C080E1F3018787E4
:10082000C30160E141E020E00E946B03CF91DF91C2
:100830001F910F91EF90CF90AF908F907F906F901E
:1008400008958F92AF92CF92EF920F931F93CF9311
:10085000DF93DC01362F542F722F102FAE2C8C2CEF
:1008600013961C921E9212978BE191E011969C9325
:100870008E9300D000D0EDB7FEB73196CDB7DEB77E
:100880001982118212821382CD0161E0432F2FEF72
:10089000052FE72EC12E0E94DA030F900F900F90C4
:1008A0000F90DF91CF911F910F91EF90CF90AF906C
:1008B0008F9008951F920F920FB60F9211242F93CD
:1008C0003F938F939F93AF93BF9380915C019091DF
:1008D0005D01A0915E01B0915F01309160010196D0
:1008E000A11DB11D232F2D5F2D3720F02D5701960F
:1008F000A11DB11D2093600180935C0190935D0167
:10090000A0935E01B0935F018091580190915901CD
:10091000A0915A01B0915B010196A11DB11D809378
:10092000580190935901A0935A01B0935B01BF9174
:10093000AF919F918F913F912F910F900FBE0F908C
:100940001F9018959B01AC017FB7F89480915801D6
:1009500090915901A0915A01B0915B0166B5A89B95
:1009600005C06F3F19F00196A11DB11D7FBFBA2FC1
:10097000A92F982F8827860F911DA11DB11D62E018
:10098000880F991FAA1FBB1F6A95D1F7BC012DC004
:10099000FFB7F8948091580190915901A0915A01A4
:1009A000B0915B01E6B5A89B05C0EF3F19F0019639
:1009B000A11DB11DFFBFBA2FA92F982F88278E0F19
:1009C000911DA11DB11DE2E0880F991FAA1FBB1F39
:1009D000EA95D1F7861B970B885E9340C8F22150A9
:1009E00030404040504068517C4F21153105410551
:1009F000510571F60895019739F0880F991F880FF6
:100A0000991F02970197F1F70895789484B5826051
:100A100084BD84B5816084BD85B5826085BD85B5A2
:100A2000816085BDEEE6F0E0808181608083E1E851
:100A3000F0E0108280818260808380818160808389
:100A4000E0E8F0E0808181608083E1EBF0E080818C
:100A500084608083E0EBF0E0808181608083EAE75E
:100A6000F0E08081846080838081826080838081E7
:100A7000816080838081806880831092C1000895A6
:100A8000982F8E3008F09E509770809116018295B5
:100A9000880F880F807C892B80937C0080917A005E
:100AA000806480937A0080917A0086FDFCCF20914B
:100AB000780040917900942F80E030E0282B392B8A
:100AC000C9010895CF93DF93482F50E0CA0186569D
:100AD0009F4FFC0134914A575F4FFA01849188235C
:100AE00069F190E0880F991FFC01E859FF4FA5912B
:100AF000B491FC01EE58FF4FC591D491662351F497
:100B00002FB7F8948C91932F909589238C9388819B
:100B100089230BC0623061F42FB7F8948C91932F26
:100B2000909589238C938881832B88832FBF06C05F
:100B30009FB7F8948C91832B8C939FBFDF91CF91BB
:100B40000895482F50E0CA0182559F4FFC0124911F
:100B5000CA0186569F4FFC0194914A575F4FFA0194
:100B60003491332309F440C0222351F1233071F032
:100B7000243028F42130A1F0223011F514C02630A1
:100B8000B1F02730C1F02430D9F404C08091800046
:100B90008F7703C0809180008F7D8093800010C08C
:100BA00084B58F7702C084B58F7D84BD09C08091E4
:100BB000B0008F7703C08091B0008F7D8093B0002C
:100BC000E32FF0E0EE0FFF1FEE58FF4FA591B49119
:100BD0002FB7F894662321F48C919095892302C055
:100BE0008C91892B8C932FBF089508951F920F929B
:100BF0000FB60F9211242F933F934F938F939F9390
:100C0000EF93FF938091C00082FD1DC04091C6000C
:100C10002091A1013091A2012F5F3F4F2F733070BF
:100C20008091A3019091A4012817390771F0E091F8
:100C3000A101F091A201EF59FE4F40833093A20130
:100C40002093A10102C08091C600FF91EF919F9176
:100C50008F914F913F912F910F900FBE0F901F904A
:100C60001895E091F501F091F601E05CFF4F81915C
:100C7000919120813181805C9F4F821B930B60E4B6
:100C800070E00E947D09892B11F00E94F5050895FE
:100C90001F920F920FB60F9211242F933F938F93B1
:100CA0009F93EF93FF932091E5013091E6018091AE
:100CB000E7019091E8012817390731F48091C100CC
:100CC0008F7D8093C10014C0E091E701F091E801AD
:100CD000EB55FE4F20818091E7019091E80101964C
:100CE0008F7390709093E8018093E7012093C60082
:100CF000FF91EF919F918F913F912F910F900FBE98
:100D00000F901F901895AF92BF92DF92EF92FF92D3
:100D10000F931F93CF93DF93EC017A018B01DD24B6
:100D2000403081EE580780E0680780E0780711F0D6
:100D3000DD24D39491E0A92EB12CEC89FD89DD202E
:100D400069F0C50108A002C0880F991F0A94E2F754
:100D5000808360E079E08DE390E005C0108260E878
:100D600074E88EE190E0A80197010E94900921505B
:100D7000304040405040569547953795279580E143
:100D80002030380720F0DD2011F0DD24D6CFE889AF
:100D9000F9893083EA89FB89208319A2EE89FF89CA
:100DA000408121E030E0C9010C8C02C0880F991FFE
:100DB0000A94E2F7482B4083EE89FF894081C901FC
:100DC0000D8C02C0880F991F0A94E2F7482B4083CC
:100DD000EE89FF894081C9010E8C02C0880F991FDE
:100DE0000A94E2F7482B4083EE89FF8980810F8CBB
:100DF00002C0220F331F0A94E2F720952823208394
:100E0000DF91CF911F910F91FF90EF90DF90BF90F6
:100E1000AF900895DC011C96ED91FC911D97E05C6C
:100E2000FF4F8191919120813181805C9F4F821B86
:100E3000930B60E470E00E947D090895DC011C962C
:100E4000ED91FC911D97E05CFF4F20813181E054D2
:100E5000F040DF01AE5BBF4F8D919C911197281739
:100E6000390719F42FEF3FEF07C08D919C91E80FE0
:100E7000F91F8081282F30E0C9010895DC011C96FC
:100E8000ED91FC911D97E05CFF4F20813181E05492
:100E9000F040DF01AE5BBF4F8D919C9111972817F9
:100EA000390719F42FEF3FEF10C08D919C911197E6
:100EB000E80FF91F20818D919C91119701968F73F6
:100EC000907011969C938E9330E0C9010895DC01D7
:100ED00091968C919197882339F05496ED91FC91DD
:100EE0005597808186FFF9CF91961C920895CF93F4
:100EF000DF93EC01EE85FF85E05CFF4F20813181BF
:100F0000E054F0402F5F3F4F2F733070DF01AE5B36
:100F1000BF4F8D919C91119728173907D1F3E05C51
:100F2000FF4F80819181E054F040E80FF91F60830A
:100F3000EE85FF85E05CFF4F31832083EE89FF89DA
:100F4000208181E090E00F8C02C0880F991F0A94E5
:100F5000E2F7282B208381E089A3EC89FD89808139
:100F60008064808381E090E0DF91CF9108951092BA
:100F7000EC011092EB0188EE93E0A0E0B0E08093EA
:100F8000ED019093EE01A093EF01B093F0018BE29D
:100F900091E09093EA018093E90181E691E09093DA
:100FA000F6018093F50185EA91E09093F801809332
:100FB000F70185EC90E09093FA018093F90184ECBD
:100FC00090E09093FC018093FB0180EC90E0909383
:100FD000FE018093FD0181EC90E0909300028093EC
:100FE000FF0182EC90E0909302028093010286EC74
:100FF00090E0909304028093030284E080930502C2
:1010000083E08093060287E08093070285E0809367
:10101000080281E08093090208950895CF93DF9339
:101020000E9405050E940D080E94B700C1E3D6E0AA
:101030000E9429012097E1F30E943106F9CFCF9257
:10104000DF92EF92FF920F931F93CF93DF937C0178
:101050006B018A01C0E0D0E00FC0D6016D916D0137
:10106000D701ED91FC910190F081E02DC701099528
:10107000C80FD91F015010400115110571F7CE019D
:10108000DF91CF911F910F91FF90EF90DF90CF9064
:101090000895EF92FF920F931F938C01DC01ED9165
:1010A000FC910190F081E02D6DE009957C01D80163
:1010B000ED91FC910190F081E02DC8016AE0099565
:1010C0009C012E0D3F1DC9011F910F91FF90EF90C4
:1010D0000895CF93DF93EC016115710519F420E0B9
:1010E00030E00FC0DB010D900020E9F71197A61B3F
:1010F000B70BE881F9810280F381E02DAD010995FC
:101100009C01C901DF91CF9108954F925F927F9228
:101110008F929F92AF92BF92CF92DF92EF92FF9207
:101120000F931F93DF93CF93CDB7DEB7A1970FB681
:10113000F894DEBF0FBECDBF2C01742ECB01223040
:1011400008F42AE019A231E2C32ED12CCC0EDD1E08
:10115000822E9924AA24BB24672D752FA501940102
:101160000E94900979018A01C801B701A501940183
:101170000E945E09472D461B0894C108D1084A30D9
:1011800014F4405D01C0495CF6014083E114F104B0
:101190000105110521F07E2C5F2DC801DDCFC201B4
:1011A000B6010E946908A1960FB6F894DEBF0FBE83
:1011B000CDBFCF91DF911F910F91FF90EF90DF9006
:1011C000CF90BF90AF909F908F907F905F904F9007
:1011D0000895CF92DF92EF92FF920F931F93CF93D8
:1011E000DF93EC016A017B012115310541F4E881AF
:1011F000F9810190F081E02D642F09951FC02A30FC
:101200003105D1F477FF17C0E881F9810190F081B1
:10121000E02D6DE209958C0144275527BA014C1940
:101220005D096E097F09CE012AE00E9485089801B8
:10123000280F391F04C02AE00E9485089C01C901BB
:10124000DF91CF911F910F91FF90EF90DF90CF90A2
:101250000895EF92FF920F931F937B019A0100274D
:10126000F7FC0095102FB801A7010E94E9081F9113
:101270000F91FF90EF900895CF92DF92EF92FF923F
:101280000F931F936C017B019A010027F7FC0095D7
:10129000102FB801A7010E94E9088C01C6010E9425
:1012A0004908080F191FC8011F910F91FF90EF9077
:1012B000DF90CF9008950E9469080895629FD00141
:1012C000739FF001829FE00DF11D649FE00DF11D01
:1012D000929FF00D839FF00D749FF00D659FF00DB0
:1012E0009927729FB00DE11DF91F639FB00DE11D9D
:1012F000F91FBD01CF011124089597FB092E072680
:101300000AD077FD04D02ED006D000201AF47095B4
:1013100061957F4F0895F6F7909581959F4F0895B9
:10132000A1E21A2EAA1BBB1BFD010DC0AA1FBB1FE9
:10133000EE1FFF1FA217B307E407F50720F0A21B5B
:10134000B30BE40BF50B661F771F881F991F1A94C8
:1013500069F760957095809590959B01AC01BD01F2
:10136000CF010895AA1BBB1B51E107C0AA1FBB1FD9
:10137000A617B70710F0A61BB70B881F991F5A9521
:10138000A9F780959095BC01CD010895EE0FFF1F40
:0C1390000590F491E02D0994F894FFCF33
:10139C00204F4E004F46460052656C61793A00531F
:1013AC00746174653A00010000000020031F0800FE
:1013BC00004000140054000000000077071F080ACA
:0813CC00073E071E076707003A
:00000001FF
