:100000000C9461000C947E000C947E000C947E0095
:100010000C947E000C947E000C947E000C947E0068
:100020000C947E000C947E000C947E000C947E0058
:100030000C947E000C947E000C947E000C947E0048
:100040000C94CA010C947E000C947E000C947E00EB
:100050000C947E000C947E000C947E000C947E0028
:100060000C947E000C947E00000000080002010049
:100070000003040700000000000000000102040863
:100080001020408001020408102001020408102002
:10009000040404040404040402020202020203032E
:1000A00003030303000000002300260029000000D2
:1000B0000000250028002B0000000000240027007D
:1000C0002A0011241FBECFEFD8E0DEBFCDBF11E064
:1000D000A0E0B1E0EEEAF6E002C005900D92A8348F
:1000E000B107D9F721E0A8E4B1E001C01D92AD3617
:1000F000B207E1F70E943A030C9455030C940000F8
:100100008091630191E089278195E0E6F1E0829397
:1001100091E0E235F907D9F7089561E080E10E94A6
:10012000A10261E08DE00E94A10261E08BE00E94EB
:10013000A10261E089E00E94A10261E085E00E94E5
:10014000A10261E08FE00E94A10262E08CE00E94C7
:10015000A10262E08AE00E94A10261E080E10E94C7
:10016000DA0260E08DE00E94DA0260E08BE00E943B
:10017000DA0260E085E00E94DA0260E08FE00E942F
:10018000DA0260E089E00E94DA020C94800061E00B
:1001900089E00E94DA0260E089E00C94DA02CF93F1
:1001A000DF93D82FC8E060E08DE00E94DA02D7FF2D
:1001B00002C060E001C061E08BE00E94DA0261E011
:1001C0008DE00E94DA02DD0FC15069F7DF91CF9117
:1001D0000895CF93C82F862F90916301992311F032
:1001E000C09580950E94CF008C2F0E94CF00CF91A8
:1001F0000C94C7000F931F93CF93DF931F92CDB73B
:10020000DEB789830E94800089816AE00E944903E9
:10021000492F27E0829FC001112467E0469FA0017B
:100220001124A9E5B1E000E611E020E030E08F5FA5
:100230009E4F4F5F5E4FBC01620F731FFB016681D3
:100240006E93BA01620F731FFB016681F80162931E
:100250008F0121503109293FFFEF3F0761F70F90D0
:10026000DF91CF911F910F9108950F931F930E94DB
:100270001402609348017093490180934A0190935E
:100280004B0100914C0110914D0120914E01309194
:100290004F016017710782079307B9F160E08FE0A3
:1002A0000E94DA02E0916201F0E0EE5AFE4F6781AF
:1002B00080810E94E90061E08FE00E94DA02809173
:1002C00062018F5F80936201909160019F5F9093C4
:1002D0006001873050F01092620161E085E00E9479
:1002E000DA0260E085E00E94DA0280914801909194
:1002F0004901A0914A01B0914B0180934C01909328
:100300004D01A0934E01B0934F018091600184365E
:10031000F0F182E10E945B02209150013091510185
:10032000280F391F309351012093500180916101B2
:100330008F5F80936101109260018132E8F086E066
:10034000369527958A95E1F72336310528F43093C1
:1003500051012093500106C083E690E09093510133
:1003600080935001809150010E94FA001092510137
:1003700010925001109261018AE00E941003892BB3
:1003800031F48091630191E08927809363011F918B
:100390000F9108951F920F920FB60F9211242F9371
:1003A0003F938F939F93AF93BF93809165019091FB
:1003B0006601A0916701B09168013091640123E06A
:1003C000230F2D3720F40196A11DB11D05C026E88D
:1003D000230F0296A11DB11D209364018093650136
:1003E00090936601A0936701B093680180916901C1
:1003F00090916A01A0916B01B0916C010196A11DD1
:10040000B11D8093690190936A01A0936B01B09331
:100410006C01BF91AF919F918F913F912F910F9060
:100420000FBE0F901F9018952FB7F894609165013B
:100430007091660180916701909168012FBF0895C6
:10044000789484B5826084BD84B5816084BD85B5AF
:10045000826085BD85B5816085BDEEE6F0E0808176
:1004600081608083E1E8F0E0108280818260808397
:10047000808181608083E0E8F0E08081816080831A
:10048000E1EBF0E0808184608083E0EBF0E080814C
:1004900081608083EAE7F0E08081846080838081EE
:1004A0008260808380818160808380818068808396
:1004B0001092C10008958E3008F08E508770209100
:1004C000000190E4299F90011124822B80937C00ED
:1004D00080917A00806480937A0080917A0086FD12
:1004E000FCCF809178002091790090E0922B0895C4
:1004F000833081F028F4813099F08230A1F00895A2
:100500008730A9F08830B9F08430D1F48091800030
:100510008F7D03C0809180008F7780938000089545
:1005200084B58F7702C084B58F7D84BD0895809196
:10053000B0008F7703C08091B0008F7D8093B000B2
:100540000895CF93DF9390E0FC01E458FF4F24918E
:10055000FC01E057FF4F8491882349F190E0880F18
:10056000991FFC01E854FF4FA591B49182559F4F0C
:10057000FC01C591D4919FB7611108C0F8948C918A
:10058000209582238C93888182230AC0623051F4A3
:10059000F8948C91322F309583238C938881822B11
:1005A000888304C0F8948C91822B8C939FBFDF9139
:1005B000CF9108950F931F93CF93DF931F92CDB7E1
:1005C000DEB7282F30E0F901E859FF4F8491F90197
:1005D000E458FF4F1491F901E057FF4F04910023B5
:1005E000C9F0882321F069830E9478026981E02F95
:1005F000F0E0EE0FFF1FE255FF4FA591B4919FB7BA
:10060000F8948C91611103C01095812301C0812B56
:100610008C939FBF0F90DF91CF911F910F91089501
:10062000CF93DF93282F30E0F901E859FF4F8491F1
:10063000F901E458FF4FD491F901E057FF4FC491FD
:10064000CC2391F081110E947802EC2FF0E0EE0FA4
:10065000FF1FEC55FF4FA591B4912C912D2381E004
:1006600090E021F480E002C080E090E0DF91CF9143
:10067000089508950E9420020E9439030E948D006F
:10068000C0E0D0E00E9435012097E1F30E94000015
:10069000F9CF991B79E004C0991F961708F0961BB3
:0E06A000881F7A95C9F780950895F894FFCFCA
:1006AE00010E0A0A0A0E0000060404040E00000ED3
:1006BE00080E020E00000E080C080E00000A0A0EAC
:1006CE00080800000E020E080E00000E020E0A0EA2
:1006DE0000000E0808080800000E0A0E0A0E0000A0
:0806EE000E0A0E080E000000C8
:00000001FF
