:100000000C9464000C948C000C948C000C94DF0213
:100010000C94DF020C94DF020C948C000C948C0086
:100020000C948C000C948C000C948C000C948C0020
:100030000C948C000C948C000C948C000C948C0010
:100040000C9470040C948C000C942F070C94610792
:100050000C948C000C948C000C948C000C948C00F0
:100060000C948C000C948C0000000008000201002D
:100070000003040700000000000000000102040863
:100080001020408001020408102001020408102002
:10009000040404040404040402020202020203032E
:1000A00003030303000000002300260029000000D2
:1000B0000000250028002B0000000000240027007D
:1000C0002A00C1009107C80011241FBECFEFD8E05D
:1000D000DEBFCDBF11E0A0E0B1E0EEEBF8E102C081
:1000E00005900D92A235B107D9F722E0A2E5B1E063
:1000F00001C01D92A036B207E1F710E0C6ECD0E0D7
:1001000004C02297FE010E944E0CC23CD107C9F7E1
:100110000E94B4090C94520C0C940000CF93DF930E
:10012000D82FC8E060E08DE00E94B405D7FF02C080
:1001300061E001C060E08BE00E94B40561E08DE009
:100140000E94B405DD0FC15069F7DF91CF9108958A
:1001500061E089E00E94B40560E089E00C94B40598
:10016000CF93DF931F92CDB7DEB799830E948E00A5
:100170009981892F0E948E000F90DF91CF910C946E
:10018000A80020E043E162E187E591E00C94B2032E
:1001900087E591E00C94590361E082E00E947B05C1
:1001A00061E080E10E947B0561E08DE00E947B05BB
:1001B00061E08BE00E947B0560E08CE00E947B05A3
:1001C00061E089E00E947B0561E080E10E94B40566
:1001D00060E08DE00E94B40560E08BE00E94B40511
:1001E00060E089E00E94B40560E082E00E94B4050E
:1001F00026E040E855E260E070E083EC91E00E9488
:10020000CD0683EC91E00E94460640E855E260E0AE
:1002100070E087E591E00E94E20387E591E00C94AD
:100220006D02CF92DF92EF92FF920F931F93CF93C5
:10023000DF93CDB7DEB728970FB6F894DEBF0FBEB9
:10024000CDBF8E010F5F1F4F88E0F80111928A9594
:10025000E9F761E387E591E00E941B026801E12C68
:10026000F12C10E087E591E00E94FA01F6018193FC
:100270006F01173011F0E80EF11C1F5F183091F775
:10028000FF24888590E0E816F90609F04DC0FE01CC
:100290003396CE010896208120532193E817F90761
:1002A000D1F76B8170E080E090E00E94C80A20E006
:1002B00030E048EC52E40E947C0B6B017C016C81C5
:1002C00070E080E090E00E94C80A20E030E040E268
:1002D00051E40E947C0B9B01AC01C701B6010E9456
:1002E000C5096B017C016D8170E080E090E00E94A7
:1002F000C80A9B01AC01C701B6010E94C5096B0188
:100300007C016F8170E080E090E00E94C80A2DECD3
:100310003CEC4CEC5DE30E947C0B9B01AC01C70103
:10032000B6010E94C50904C060E070E080E89FEB60
:1003300028960FB6F894DEBF0FBECDBFDF91CF91E8
:100340001F910F91FF90EF90DF90CF900895CF9283
:10035000DF92EF92FF920E9411016B017C0160938A
:10036000530170935401809355019093560120E0FE
:1003700030E040E85FEB0E94780B1816FCF420E0B8
:1003800030E044EB53E4C701B6010E94290A87FF1D
:1003900015C023E333E34FEB51E4C701B6010E94DC
:1003A0002D0A0E949A0A60935201E62FF0E0EE0FA8
:1003B000FF1FE050FF4F8081918102C080E090E0FC
:1003C0000E94B00040915301509154016091550139
:1003D0007091560122E030E083EC91E00E94A10987
:1003E00068EE73E080E090E0FF90EF90DF90CF90B8
:1003F0000C94DD042091B8013091B9012817390718
:10040000B9F49091760180917701981789F0E09185
:100410007601F0E0E858FE4F80812091760130E0CF
:100420002F5F3F4F2F7333272093760190E008957D
:100430008FEF9FEF08951F93CF93DF93DC015C96BE
:100440008D919C915D97009749F481E090E013961F
:100450009C938E93129780E090E03BC05196ED9173
:10046000FC91529750962C915097322F30951FB790
:100470005E964C915E9741FB772770F941FD609540
:10048000F8944081772311F0422B01C0432340832D
:10049000EC012197F1F748E0508160FF02C0522B38
:1004A00001C053235083EC012197F1F76695415029
:1004B00099F78081772311F0832301C0822B8083F9
:1004C0001FBF5C968D919C915D970197F1F781E03C
:1004D00090E0DF91CF911F91089508952091B80188
:1004E0003091B9012817390781F4909176018091F4
:1004F0007701981751F0E0917601F0E0E858FE4F4F
:100500008081992787FD909508958FEF9FEF08953B
:100510002091B8013091B9012817390771F4809101
:1005200077012091760190E0805C9F4F821B9109BA
:1005300060E470E00E94E30B089580E090E008958D
:10054000E091B801F091B901E817F90769F4A389BE
:10055000B4899C918589809589238C931092B901E7
:100560001092B80181E0089580E00895CF93DF9361
:10057000EC018A8D9B8D892BF1F08091B8019091CF
:10058000B9018C179D07B9F0009711F00E94A002E5
:100590008E8D8E7F8E8F1092770110927601D09380
:1005A000B901C093B801EB89FC8980819D89892BB1
:1005B000808381E001C080E0DF91CF9108951F9298
:1005C0000F920FB60F9211242F933F934F935F9387
:1005D0006F937F938F939F93AF93BF93EF93FF930B
:1005E000E091B801F091B901309709F451C0868DBE
:1005F000A685B785958581FF04C08C91892329F450
:1006000047C08C91892309F043C0A389B4899C9188
:100610008589809589238C93868997890197F1F73D
:10062000208D318DA685B785758558E040E0C901DC
:100630000197F1F7842F90E095958795482F6C915D
:10064000672309F04068515091F7868D81FD4095F0
:100650008091770190E001968F7399272091760120
:10066000281749F0A0917701B0E0A858BE4F4C93ED
:100670008093770103C0868D8160868F828D938DF4
:100680000197F1F7A389B4898C919589892B8C9373
:10069000FF91EF91BF91AF919F918F917F916F915A
:1006A0005F914F913F912F910F900FBE0F901F9030
:1006B000189524E231E0FC01318320830C94A002E0
:1006C0001F93CF93DF93EC01162F6E8D66956170AB
:1006D00081E06827812F0E94B40561E0812F0E948C
:1006E0007B05812F90E0FC01E458FF4FE491E88BFB
:1006F000FC01E057FF4FE491F0E0EE0FFF1FE255E1
:10070000FF4F859194919A8B898BDF91CF911F91A7
:1007100008951F93CF93DF93EC01162F60E0812F94
:100720000E947B058E8D81FD04C061E0812F0E94B7
:10073000B4051C87812F90E0FC01E458FF4FE49141
:10074000ED87FC01E057FF4FE491F0E0EE0FFF1F53
:10075000EC55FF4F859194919F878E87DF91CF91C4
:100760001F910895FF920F931F93CF93DF93EC0196
:10077000F62E522F1B821A8208EE13E020E030E0A2
:100780000C831D832E833F8384E291E099838883C9
:100790001F8A1E8A198E188E1B8E1A8E1D8E1C8E15
:1007A0008E8D8E7F50FB81F98E8F642FCE010E943B
:1007B00060036F2DCE01DF91CF911F910F91FF90BC
:1007C0000C948903CF93DF93EC019A01AB011B8E4C
:1007D0001A8E198E188E1F8A1E8A60E079E08DE3CA
:1007E00090E00E94190CC9012430310520F0B901B4
:1007F0006350710902C061E070E07D8F6C8FEC8501
:10080000E63108F068C0B9017695679564317105E5
:1008100018F06351710902C061E070E07F8B6E8B4C
:10082000069718F0C901059702C081E090E0998F02
:10083000888FC901880F991F820F931F96958795FE
:10084000969587958D30910510F00C9702C081E048
:1008500090E09B8F8A8F20916800E83050F091E003
:10086000EE3008F490E081E001C0880F9A95EAF735
:1008700001C084E0822B809368002C85283038F0FA
:100880002E3040F0263148F48CE690E008C08DE62A
:1008900090E005C08BE690E002C080E090E09C8B89
:1008A0008B8B283030F481E001C0880F2A95EAF75D
:1008B0000DC0822F90E02E3010F4089701C00E97E3
:1008C00091E001C0990F8A95EAF7892F8D8B8C8D65
:1008D0009D8D0197F1F7CE01DF91CF910C94B60277
:1008E0001F920F920FB60F9211242F933F938F9365
:1008F0009F93AF93BF938091BB019091BC01A09156
:10090000BD01B091BE013091BA0123E0230F2D3714
:1009100020F40196A11DB11D05C026E8230F029603
:10092000A11DB11D2093BA018093BB019093BC011E
:10093000A093BD01B093BE018091BF019091C00111
:10094000A091C101B091C2010196A11DB11D80937A
:10095000BF019093C001A093C101B093C201BF91A8
:10096000AF919F918F913F912F910F900FBE0F905C
:100970001F9018953FB7F8948091BF019091C001E6
:10098000A091C101B091C20126B5A89B05C02F3F1F
:1009900019F00196A11DB11D3FBF6627782F892F41
:1009A0009A2F620F711D811D911D42E0660F771F06
:1009B000881F991F4A95D1F708958F929F92AF9201
:1009C000BF92CF92DF92EF92FF926B017C010E9467
:1009D000BA044B015C01C114D104E104F104F1F04B
:1009E0000E94C3090E94BA04681979098A099B09FF
:1009F000683E73408105910570F321E0C21AD10869
:100A0000E108F10888EE880E83E0981EA11CB11C55
:100A1000C114D104E104F10429F7DDCFFF90EF9078
:100A2000DF90CF90BF90AF909F908F900895789473
:100A300084B5826084BD84B5816084BD85B58260E3
:100A400085BD85B5816085BDEEE6F0E08081816081
:100A50008083E1E8F0E01082808182608083808181
:100A600081608083E0E8F0E0808181608083E1EB59
:100A7000F0E0808184608083E0EBF0E08081816041
:100A80008083EAE7F0E080818460808380818260F7
:100A900080838081816080838081806880831092E0
:100AA000C1000895833081F028F4813099F08230BC
:100AB000A1F008958730A9F08830B9F08430D1F4DE
:100AC000809180008F7D03C0809180008F7780931C
:100AD0008000089584B58F7702C084B58F7D84BD72
:100AE00008958091B0008F7703C08091B0008F7D12
:100AF0008093B0000895CF93DF9390E0FC01E45819
:100B0000FF4F2491FC01E057FF4F8491882349F166
:100B100090E0880F991FFC01E854FF4FA591B49114
:100B200082559F4FFC01C591D4919FB7611108C0B8
:100B3000F8948C91209582238C93888182230AC01B
:100B4000623051F4F8948C91322F309583238C933A
:100B50008881822B888304C0F8948C91822B8C939B
:100B60009FBFDF91CF9108950F931F93CF93DF9392
:100B70001F92CDB7DEB7282F30E0F901E859FF4FBB
:100B80008491F901E458FF4F1491F901E057FF4FA8
:100B900004910023C9F0882321F069830E94520543
:100BA0006981E02FF0E0EE0FFF1FE255FF4FA591A6
:100BB000B4919FB7F8948C91611103C01095812373
:100BC00001C0812B8C939FBF0F90DF91CF911F911C
:100BD0000F910895FC01818D228D90E0805C9F4FE4
:100BE000821B91098F7399270895FC01918D828D45
:100BF000981731F0828DE80FF11D858D90E00895F2
:100C00008FEF9FEF0895FC01918D828D981761F011
:100C1000828DDF01A80FB11D5D968C91928D9F5F33
:100C20009F73928F90E008958FEF9FEF089587E86C
:100C300097E0892B49F080E090E0892B29F00E9411
:100C4000870781110C9400000895FC01848DDF0159
:100C5000A80FB11DA35ABF4F2C91848D90E001962F
:100C60008F739927848FA689B7892C93A089B1891E
:100C70008C9180648C93938D848D981306C0028828
:100C8000F389E02D80818F7D80830895CF93DF935A
:100C9000EC01888D8823C9F0EA89FB89808185FD74
:100CA00005C0A889B9898C9186FD0FC00FB607FCD5
:100CB000F5CF808185FFF2CFA889B9898C9185FF16
:100CC000EDCFCE010E942506E7CFDF91CF910895A9
:100CD000CF92DF92FF920F931F93CF93DF931F92D8
:100CE000CDB7DEB76C0181E0D60158968C9358974A
:100CF0005B969C915B975C968C915C97981307C070
:100D00005096ED91FC915197808185FD2EC0F601A2
:100D1000038D10E00F5F1F4F0F731127F02EF601A8
:100D2000848DF81211C00FB607FCF9CFD60150968A
:100D3000ED91FC915197808185FFF1CFC6016983C8
:100D40000E9425066981EBCF838DE80FF11DE35AE0
:100D5000FF4F6083D6015B960C935B975296ED91A3
:100D6000FC915397808180620CC0D6015696ED911C
:100D7000FC91579760835096ED91FC91519780813B
:100D80008064808381E090E00F90DF91CF911F918C
:100D90000F91FF90DF90CF900895BF92CF92DF9296
:100DA000EF92FF92CF93DF93EC016A017B01B22EA9
:100DB000E889F98982E08083411581EE5807610551
:100DC0007105A1F060E079E08DE390E0A701960164
:100DD0000E94F70B21503109410951095695479559
:100DE00037952795211580E1380798F0E889F9892A
:100DF000108260E874E88EE190E0A70196010E94FD
:100E0000F70B2150310941095109569547953795FE
:100E10002795EC85FD853083EE85FF852083188E30
:100E2000EC89FD89B082EA89FB89808180618083B9
:100E3000EA89FB89808188608083EA89FB898081D7
:100E400080688083EA89FB8980818F7D8083DF9140
:100E5000CF91FF90EF90DF90CF90BF9008951F92B9
:100E60000F920FB60F9211242F938F939F93EF93AE
:100E7000FF93E091D301F091D4018081E091D901F9
:100E8000F091DA0182FD12C090818091DC018F5FC8
:100E90008F732091DD01821751F0E091DC01F0E0C9
:100EA000ED53FE4F958F8093DC0101C08081FF914F
:100EB000EF919F918F912F910F900FBE0F901F90E8
:100EC00018951F920F920FB60F9211242F933F93F4
:100ED0004F935F936F937F938F939F93AF93BF9342
:100EE000EF93FF9383EC91E00E942506FF91EF9131
:100EF000BF91AF919F918F917F916F915F914F9132
:100F00003F912F910F900FBE0F901F90189583EC7B
:100F100091E00E94EA0521E0892B09F420E0822F6C
:100F200008951092C6011092C50188EE93E0A0E0EA
:100F3000B0E08093C7019093C801A093C901B0931A
:100F4000CA0184E391E09093C4018093C30185ECCE
:100F500090E09093D0018093CF0184EC90E0909347
:100F6000D2018093D10180EC90E09093D4018093E2
:100F7000D30181EC90E09093D6018093D50182EC6F
:100F800090E09093D8018093D70186EC90E0909305
:100F9000DA018093D9011092DC011092DD011092E8
:100FA000DE011092DF010895CF92DF92EF92FF925F
:100FB0000F931F93CF93DF937C016A01EB0100E055
:100FC00010E00C151D0571F06991D701ED91FC91B0
:100FD0000190F081E02DC7010995892B19F00F5F71
:100FE0001F4FEFCFC801DF91CF911F910F91FF905D
:100FF000EF90DF90CF9008956115710581F0DB01CE
:101000000D900020E9F7AD0141505109461B570BE7
:10101000DC01ED91FC910280F381E02D099480E0E8
:1010200090E00895DC01ED91FC910190F081E02DBC
:10103000099460E471E00C94FC078F929F92AF9248
:10104000BF92DF92EF92FF920F931F93CF93DF93A4
:10105000CDB7DEB7A1970FB6F894DEBF0FBECDBFF8
:101060007C01F42FD52ECB0119A2223008F42AE0FE
:101070008E010F5D1F4F822E912CA12CB12C6F2F52
:101080007D2DA50194010E94F70BF22FD32ECA01EA
:10109000015011096A3014F4E0E301C0E7E3E60F00
:1010A000D801EC93232B242B252B49F7B801C7013A
:1010B0000E94FC07A1960FB6F894DEBF0FBECDBF0D
:1010C000DF91CF911F910F91FF90EF90DF90BF9034
:1010D000AF909F908F900895CF92DF92EF92FF9202
:1010E0000F931F93CF93DF93EC016A017B012115CE
:1010F000310579F4E881F9810190F081E02D642FC8
:10110000DF91CF911F910F91FF90EF90DF90CF90E3
:1011100009942A303105E9F477FF1AC06DE20E9484
:1011200012088C0144275527BA014C195D096E0934
:101130007F092AE0CE010E941D08800F911FDF91D8
:10114000CF911F910F91FF90EF90DF90CF90089576
:101150002AE0B701A601CE01DF91CF911F910F9137
:10116000FF90EF90DF90CF900C941D084F925F920C
:101170006F927F928F929F92AF92BF92CF92DF92A7
:10118000EF92FF920F931F93CF93DF93EC016A01CD
:101190007B01B22E9A01AB01C701B6010E94DF0BA1
:1011A000882319F063E471E027C026013701E89431
:1011B00077F82FEF3FEF4FE75FE7C301B2010E94DF
:1011C000DF0B81110DC02FEF3FEF4FE75FE7C3014A
:1011D000B2010E94290A18161CF467E471E00CC0E1
:1011E0002FEF3FEF4FE75FE4C701B6010E94780B96
:1011F0001816ACF46BE471E0CE01DF91CF911F9132
:101200000F91FF90EF90DF90CF90BF90AF909F90A5
:101210008F907F906F905F904F900C94FC072FEF12
:101220003FEF4FE75FECC701B6010E94290A87FD37
:10123000E1CF20E030E0A901C701B6010E94290AF0
:1012400087FF0AC06DE2CE010E9412088C01F7FAF6
:10125000F094F7F8F09402C000E010E0A12C60E0F8
:1012600070E080E09FE3AB1441F020E030E040E22A
:1012700051E40E942D0AA394F6CF9B01AC01C70153
:10128000B6010E94C5096B017C010E949A0A2B01DC
:101290003C010E94C60A9B01AC01C701B6010E9435
:1012A000C4096B017C012AE0B301A201CE010E94B6
:1012B0001D08080F191FBB2039F06FE471E0CE0143
:1012C0000E94FC07080F191F7B2C772041F120E0BA
:1012D00030E040E251E4C701B6010E947C0B6B0193
:1012E0007C010E94950A4B01AA2497FCA094BA2C79
:1012F0002AE030E0B501A401CE010E946C08080F7D
:10130000191FC501B4010E94C80A9B01AC01C701A5
:10131000B6010E94C4096B017C017A94D6CFC80142
:10132000DF91CF911F910F91FF90EF90DF90CF90C1
:10133000BF90AF909F908F907F906F905F904F90F5
:1013400008950F931F93CF93DF93EC010E94B6088B
:101350008C01CE010E941908800F911FDF91CF915F
:101360001F910F91089508950E9417050E94B309D7
:101370000E94CC00C7E1D6E00E94A7012097E1F3CC
:101380000E941706F9CF08955058BB27AA270ED000
:1013900075C166D130F06BD120F031F49F3F11F46C
:1013A0001EF45BC10EF4E095E7FB51C1E92F77D144
:1013B00080F3BA17620773078407950718F071F472
:1013C0009EF58FC10EF4E0950B2EBA2FA02D0B01C8
:1013D000B90190010C01CA01A0011124FF27591B7A
:1013E00099F0593F50F4503E68F11A16F040A22F80
:1013F000232F342F4427585FF3CF469537952795F1
:10140000A795F0405395C9F77EF41F16BA0B620BEF
:10141000730B840BBAF09150A1F0FF0FBB1F661F36
:10142000771F881FC2F70EC0BA0F621F731F841F79
:1014300048F4879577956795B795F7959E3F08F09F
:10144000B3CF9395880F08F09927EE0F979587955E
:101450000895D9D008F481E008950CD00FC107D1C8
:1014600040F0FED030F021F45F3F19F0F0C0511190
:1014700039C1F3C014D198F39923C9F35523B1F3BB
:10148000951B550BBB27AA2762177307840738F0F3
:101490009F5F5F4F220F331F441FAA1FA9F333D052
:1014A0000E2E3AF0E0E830D091505040E695001C06
:1014B000CAF729D0FE2F27D0660F771F881FBB1FC2
:1014C000261737074807AB07B0E809F0BB0B802D9C
:1014D000BF01FF2793585F4F2AF09E3F510568F0E8
:1014E000B6C000C15F3FECF3983EDCF3869577957C
:1014F0006795B795F7959F5FC9F7880F911D9695EA
:10150000879597F90895E1E0660F771F881FBB1F45
:10151000621773078407BA0720F0621B730B840BF2
:10152000BA0BEE1F88F7E095089504D06894B111C6
:10153000D9C00895BCD088F09F5790F0B92F992753
:10154000B751A0F0D1F0660F771F881F991F1AF0CE
:10155000BA95C9F712C0B13081F0C3D0B1E0089597
:10156000C0C0672F782F8827B85F39F0B93FCCF318
:10157000869577956795B395D9F73EF490958095C4
:10158000709561957F4F8F4F9F4F0895E89409C0E4
:1015900097FB3EF490958095709561957F4F8F4FA6
:1015A0009F4F9923A9F0F92F96E9BB279395F695BC
:1015B000879577956795B795F111F8CFFAF4BB0F3A
:1015C00011F460FF1BC06F5F7F4F8F4F9F4F16C09E
:1015D000882311F096E911C0772321F09EE8872F28
:1015E000762F05C0662371F096E8862F70E060E0E4
:1015F0002AF09A95660F771F881FDAF7880F96955D
:10160000879597F90895990F0008550FAA0BE0E800
:10161000FEEF16161706E807F907C0F012161306B4
:10162000E407F50798F0621B730B840B950B39F4F4
:101630000A2661F0232B242B252B21F408950A265A
:1016400009F4A140A6958FEF811D811D089597F99A
:101650009F6780E870E060E008959FEF80EC089558
:1016600000240A9416161706180609060895002481
:101670000A9412161306140605060895092E0394FB
:10168000000C11F4882352F0BB0F40F4BF2B11F46F
:1016900060FF04C06F5F7F4F8F4F9F4F089557FDCE
:1016A0009058440F551F59F05F3F71F04795880FD0
:1016B00097FB991F61F09F3F79F087950895121667
:1016C00013061406551FF2CF4695F1DF08C0161613
:1016D00017061806991FF1CF8695710561050894C4
:1016E0000895E894BB2766277727CB0197F90895DB
:1016F0008ADF08F48FEF08950BD0C0CFB1DF28F058
:10170000B6DF18F0952309F0A2CFA7CF1124EACFB6
:10171000C6DFA0F3959FD1F3950F50E0551F629F50
:10172000F001729FBB27F00DB11D639FAA27F00D3A
:10173000B11DAA1F649F6627B00DA11D661F829F61
:101740002227B00DA11D621F739FB00DA11D621F46
:10175000839FA00D611D221F749F3327A00D611D63
:10176000231F849F600D211D822F762F6A2F112445
:101770009F5750408AF0E1F088234AF0EE0FFF1F98
:10178000BB1F661F771F881F91505040A9F79E3FCF
:10179000510570F05CCFA6CF5F3FECF3983EDCF3D1
:1017A000869577956795B795F795E7959F5FC1F70C
:1017B000FE2B880F911D9695879597F9089523DF45
:1017C000880B990B089597FB072E16F4009407D009
:1017D00077FD09D00E94380C07FC05D03EF49095A7
:1017E00081959F4F0895709561957F4F0895A1E26F
:1017F0001A2EAA1BBB1BFD010DC0AA1FBB1FEE1F8B
:10180000FF1FA217B307E407F50720F0A21BB30BD5
:10181000E40BF50B661F771F881F991F1A9469F751
:1018200060957095809590959B01AC01BD01CF01AD
:101830000895052E97FB1EF400940E94300C57FD6E
:1018400007D00E94F70B07FC03D04EF40C94300C29
:1018500050954095309521953F4F4F4F5F4F0895DC
:1018600090958095709561957F4F8F4F9F4F08950C
:10187000AA1BBB1B51E107C0AA1FBB1FA617B707B6
:1018800010F0A61BB70B881F991F5A95A9F78095D2
:101890009095BC01CD010895EE0FFF1F0590F491C6
:1018A000E02D099410E0C6ECD0E004C0FE010E94D7
:0E18B0004E0C2296C83CD107C9F7F894FFCF22
:1018BE00010002000400080010002000400080001B
:1018CE00000100020004000800100020004000800B
:1018DE00000000001B02D4078802FA016E026D029E
:1018EE00000000006806D407EA050306F505460663
:1018FE000D0A006E616E00696E66006F7666002ED0
:02190E000000D7
:00000001FF
