:100000000C9461000C947E000C947E000C947E0095
:100010000C947E000C947E000C947E000C947E0068
:100020000C947E000C947E000C947E000C947E0058
:100030000C947E000C9428010C947E000C947E009D
:100040000C9478020C947E000C947E000C947E003C
:100050000C947E000C947E000C947E000C947E0028
:100060000C947E000C947E00000000080002010049
:100070000003040700000000000000000102040863
:100080001020408001020408102001020408102002
:10009000040404040404040402020202020203032E
:1000A00003030303000000002300260029000000D2
:1000B0000000250028002B0000000000240027007D
:1000C0002A0011241FBECFEFD8E0DEBFCDBF11E064
:1000D000A0E0B1E0E4E7F8E002C005900D92A83698
:1000E000B107D9F721E0A8E6B1E001C01D92A73819
:1000F000B207E1F70E941C040C9438040C94000031
:1001000080916C018195EEE7F1E0829391E0E03718
:10011000F907D9F70895F89460E083E00E9483031B
:1001200060E085E00E94830360E08FE00E9483032B
:1001300061E082E00E94830361E081E10E94830329
:1001400061E08DE00E94830361E08BE00E94830305
:1001500061E08AE00E94830361E089E00E948303FA
:1001600061E086E00E94830361E08EE00E948303E9
:1001700062E08CE00E94830361E081E10E94BC03A5
:1001800060E082E00E94BC0360E08DE00E94BC035E
:1001900060E08BE00E94BC0360E086E00E94BC034C
:1001A00060E08EE00E94BC0360E08AE00E94BC0335
:1001B00060E089E00E94BC031092800083E080939D
:1001C00081008FEF809385001092840081E08093FE
:1001D0006F0078940C948000CF93DF93D82FC8E001
:1001E00060E08DE00E94BC03D7FF02C061E001C067
:1001F00060E08BE00E94BC0361E08DE00E94BC03E4
:10020000DD0FC15069F7DF91CF91089561E08AE079
:100210000E94BC0360E08AE00C94BC0361E089E0CA
:100220000E94BC0360E089E00C94BC03CF93C82F0C
:10023000862F90916C01992311F0C09580950E94B2
:10024000EC008C2FCF910C94EC00692F0C941601CC
:100250001F920F920FB60F9211242F933F934F933B
:100260005F936F937F938F939F93AF93BF93EF931E
:10027000FF938FEF8093850010928400E0916F01CF
:10028000F0E0E059FE4F678180810E9416010E94D4
:10029000060160E08EE00E94BC0361E08EE00E94F7
:1002A000BC03E0916E01EE0FFF0BEA5BFE4F808115
:1002B00091810E9425010E940E0180916F018F5F44
:1002C000873018F480936F010AC010926F0161E0CB
:1002D00086E00E94BC0360E086E00E94BC03FF91C0
:1002E000EF91BF91AF919F918F917F916F915F91AE
:1002F0004F913F912F910F900FBE0F901F90189527
:100300000F931F93CF93DF931F92CDB7DEB78983EF
:100310000E94800089816AE00E942C04492F27E016
:10032000829FC001112467E0469FA0011124A7E726
:10033000B1E00EE711E020E030E080509F4F4050E8
:100340005F4FBC01620F731FFB0166816E93BA01A0
:10035000620F731FFB016681F80162938F012150C8
:100360003109293FFFEF3F0761F70F90DF91CF91F0
:100370001F910F9108950F931F93CF93DF93182F21
:10038000062FC0916A01D0E085E00E94F203C817F1
:10039000D90749F4C0916901D0E08FE00E94F203CF
:1003A000C817D90749F1C091690185E00E94F2039D
:1003B000019709F053C0909168019F5F9093680185
:1003C000C0916A018FE00E94F203019709F440C0D6
:1003D000C1113EC085E00E94F20321E0892B09F49F
:1003E00020E020936A018FE00E94F20321E0892B34
:1003F00009F420E02093690140916801552747FDE9
:100400005095202F30E02417350764F410936801CD
:1004100090916E019F5F90936E0191311CF080E18D
:1004200080936E018091680181175CF400936801EC
:1004300080916E01815080936E01181614F0109215
:100440006E0180916801DF91CF911F910F91089506
:1004500090916801915090936801BCCFC111ABCFCE
:10046000AFCF80916D010E94800183E00E94F20372
:10047000019781F483E00E94F2030197D9F3809100
:100480006B0191E0892780936B0180916C01892732
:1004900080936C0180916B01813051F46BE380E0BB
:1004A0000E94BB0180936D0160E082E00C94BC036C
:1004B00080916D01815080936D0187FF13C0809101
:1004C0006E0118163CF4815080936E018BE380938B
:1004D0006D0108C010926D0110926E0161E082E022
:1004E0000E94BC0368EE73E080E090E00C94E502AB
:1004F0001F920F920FB60F9211242F933F938F9359
:100500009F93AF93BF9380917F0190918001A091C1
:100510008101B091820130917E0123E0230F2D37BC
:1005200020F40196A11DB11D05C026E8230F0296F7
:10053000A11DB11D20937E0180937F0190938001C6
:10054000A0938101B09382018091830190918401F5
:10055000A0918501B09186010196A11DB11D8093E6
:10056000830190938401A0938501B0938601BF918C
:10057000AF919F918F913F912F910F900FBE0F9050
:100580001F9018953FB7F894809183019091840152
:10059000A0918501B091860126B5A89B05C02F3F8B
:1005A00019F00196A11DB11D3FBF6627782F892F35
:1005B0009A2F620F711D811D911D42E0660F771FFA
:1005C000881F991F4A95D1F708958F929F92AF92F5
:1005D000BF92CF92DF92EF92FF926B017C010E945B
:1005E000C2024B015C01C114D104E104F104F1F039
:1005F0000E942B040E94C202681979098A099B098A
:10060000683E73408105910570F321E0C21AD1085C
:10061000E108F10888EE880E83E0981EA11CB11C49
:10062000C114D104E104F10429F7DDCFFF90EF906C
:10063000DF90CF90BF90AF909F908F900895789467
:1006400084B5826084BD84B5816084BD85B58260D7
:1006500085BD85B5816085BDEEE6F0E08081816075
:100660008083E1E8F0E01082808182608083808175
:1006700081608083E0E8F0E0808181608083E1EB4D
:10068000F0E0808184608083E0EBF0E08081816035
:100690008083EAE7F0E080818460808380818260EB
:1006A00080838081816080838081806880831092D4
:1006B000C1000895833081F028F4813099F08230B0
:1006C000A1F008958730A9F08830B9F08430D1F4D2
:1006D000809180008F7D03C0809180008F77809310
:1006E0008000089584B58F7702C084B58F7D84BD66
:1006F00008958091B0008F7703C08091B0008F7D06
:100700008093B0000895CF93DF9390E0FC01E4580C
:10071000FF4F2491FC01E057FF4F8491882349F15A
:1007200090E0880F991FFC01E854FF4FA591B49108
:1007300082559F4FFC01C591D4919FB7611108C0AC
:10074000F8948C91209582238C93888182230AC00F
:10075000623051F4F8948C91322F309583238C932E
:100760008881822B888304C0F8948C91822B8C938F
:100770009FBFDF91CF9108950F931F93CF93DF9386
:100780001F92CDB7DEB7282F30E0F901E859FF4FAF
:100790008491F901E458FF4F1491F901E057FF4F9C
:1007A00004910023C9F0882321F069830E945A0331
:1007B0006981E02FF0E0EE0FFF1FE255FF4FA5919A
:1007C000B4919FB7F8948C91611103C01095812367
:1007D00001C0812B8C939FBF0F90DF91CF911F9110
:1007E0000F910895CF93DF93282F30E0F901E85956
:1007F000FF4F8491F901E458FF4FD491F901E0577C
:10080000FF4FC491CC2391F081110E945A03EC2F29
:10081000F0E0EE0FFF1FEC55FF4FA591B4912C9126
:100820002D2381E090E021F480E002C080E090E0A0
:10083000DF91CF91089508950E941F030E941B0429
:100840000E948B00C0E0D0E00E9431022097E1F3CB
:100850000E940000F9CF0895991B79E004C0991F08
:10086000961708F0961B881F7A95C9F7809508950A
:04087000F894FFCF2A
:100874000E0A0A0A0E0000060404040E00000E0804
:100884000E020E00000E080C080E00000A0A0E08E4
:100894000800000E020E080E00000E020E0A0E00E2
:1008A400000E0808080800000E0A0E0A0E00000ECA
:1008B4000A0E080E000000000100020004000800F7
:1008C4001000200040008000000100020004000825
:0808D40000100020004000802C
:00000001FF
