:1000000002C100002CC100002AC1000028C100006C
:1000100026C1000024C1000022C1000020C1000050
:100020001EC100001CC100001AC1000018C1000060
:1000300016C1000014C1000012C1000010C1000070
:100040000EC100000CC100000AC1000008C1000080
:1000500006C1000004C1000002C100003AC6000051
:10006000FEC00000FCC00000FAC00000F8C00000A4
:10007000F6C00000F4C00000F2C00000F0C00000B4
:10008000EEC00000ECC00000EAC00000E8C00000C4
:10009000E6C00000E4C00000E2C00000E0C00000D4
:1000A000DEC00000DCC00000DAC00000D8C00000E4
:1000B000D6C00000D4C00000D2C00000D0C00000F4
:1000C000CEC00000CCC00000CAC00000C8C0000004
:1000D000C6C00000C4C00000C2C00000C0C0000014
:1000E000BEC0000000002100240027002A002D00CF
:1000F0003000330001010000040107010A01000083
:100100002200250028002B002E00310034000201BF
:100110000000050108010B0100002000230026005B
:1001200029002C002F00320000010000030106010D
:10013000090105050505070508080808020202026D
:100140000A0A080804040404010101010101010173
:100150000303030303030303040707070C0C0C0C3E
:100160000C0C0C0C02020202060606060606060627
:100170000B0B0B0B0B0B0B0B0102102020080810B4
:100180002040102040800201020108040201010207
:1001900004081020408080402010080402018004E0
:1001A000020180402010080402010804020101023B
:1001B0000408102040800102040810204080000044
:1001C000090A02080B0C0D070603040100000000D9
:1001D000000000000000000000000000000000001F
:1001E0000000000000000000000011100F000000DF
:1001F00000000000000000000000000000000000FF
:1002000000000000300111241FBECFEFD1E2DEBF9D
:10021000CDBF00E00CBF12E0A0E0B2E0E4E5F4E105
:1002200000E00BBF02C007900D92A238B107D9F7CA
:100230001BBE12E0A2E8B2E001C01D92A53AB107D0
:10024000E1F712E0C6E0D2E004C02297FE010E946E
:10025000240AC430D107C9F791D70C94280AD0CE0C
:10026000CF92EF920F9382E892E068E049E024E0B9
:1002700005E056E0E52E37E0C32EF3D40F91EF9062
:10028000CF900895EF92FF921F93CF93DF937C015D
:10029000EB0116E1E0FE04C0812F62E05BD60BC0EB
:1002A000812F61E057D6C0FF03C0812F61E002C0FB
:1002B000812F60E002D71F5F163229F0F694E79491
:1002C000D695C795E7CFDF91CF911F91FF90EF9023
:1002D0000895813019F08230A9F40AC082E892E0D2
:1002E00064E041E0EDD382E892E060E072E013C0A8
:1002F00082E892E063E041E0E3D382E892E069E0E3
:1003000072E009C082E892E062E041E0D9D382E87D
:1003100092E064E172E00E94DF098FEF9FEF6FEFE0
:100320007FEFB0DF6CE677E080E090E01AC50F93D6
:100330001F9302E812E0C80162E040E0C1D3C801A7
:1003400060E272E00E94DF09C80163E041E0B8D3D7
:10035000C8016DE272E00E94DF0968E978E080E0A0
:1003600090E0FFD4C801DAD3C80162E040E0A8D32E
:10037000C80168E372E00E94DF09C80160E041E063
:100380009FD3C80165E472E00E94DF0968E978E064
:1003900080E090E0E6D41F910F910895CF93DF9312
:1003A00082E892E0BBD382E892E060E040E088D34C
:1003B00082E892E066E572E00E94DF09C0E0D0E0EA
:1003C000CE01855F682F82E892E040E079D3FE019C
:1003D000E956FD4F60816A3028F482E892E04AE0F5
:1003E00050E08CD72196C530D10551F768E572E011
:1003F00080E090E0B6D480919702873009F0BAC0CF
:1004000080919802843009F0DBC12091990221305B
:1004100071F480919A028A3068F080919B028A3050
:1004200048F08FE19BEF6FE276EF2CDFBFC12A30FF
:1004300008F0C2C190919A029A3008F0BDC12223FF
:1004400031F4992309F485C09330D1F482C022306D
:1004500019F49630D1F47DC0233031F4973009F48B
:1004600078C09830B9F475C0213041F4933051F51B
:1004700080919B02823009F09FC16BC0222319F446
:100480009230C9F40AC0223019F4983029F505C019
:10049000233079F4933009F04EC089E899E46FEB8A
:1004A0007FEFF0DE86E13BD6892B09F087C189E139
:1004B000A8C0222329F4892F8450833040F00EC035
:1004C000213051F4943019F0963009F075C18AEA60
:1004D0009BE26FEB7FEF08C0222359F5973001F5BF
:1004E0008AEA9BE260E070E8CDDE87E118D6892BCE
:1004F00009F064C189E113D6892B09F05FC18BE152
:100500000ED6892B09F05AC18FE109D6892B09F043
:1005100055C181E204D6892B09F050C183E247C15D
:100520009850923008F048C184E292E16AEA75ED91
:1005300014C0233041F4923009F03EC184E292E1CC
:1005400060E070E80AC0283009F036C1963009F042
:1005500033C184E292E16FEB7FEF94DE88E1DFD577
:10056000892B09F02BC18BE1DAD5892B09F026C143
:100570008FE177C0843009F0AAC080919802882367
:1005800009F01AC1809199028A3008F015C1909142
:100590009A029A3008F010C1882321F4913009F0B2
:1005A0000FC169C0813019F49130C9F564C0893038
:1005B00021F4933009F004C15EC0843041F49930D5
:1005C00009F0FEC08AE29AE46FE77FEF09C0853048
:1005D000F1F4992309F0F4C08AE29AE460E070E84B
:1005E00051DE87E19CD5892B09F0E8C089E197D5D8
:1005F000892B09F0E3C08BE192D5892B09F0DEC08D
:100600008FE18DD5892B09F0D9C081E297C0863062
:1006100021F4993009F0D4C00AC0813041F5992302
:1006200009F0CEC080919B02863009F0C9C085E5F3
:1006300095E96FE77FEF26DE88E171D5892B09F018
:10064000BDC08AE16CD5892B09F0B8C08CE167D5B3
:10065000892B09F0B3C08EE162D5892B09F0AEC0B9
:1006600080E25DD5892B09F0A9C082E2A0C0873065
:1006700091F4992329F489E19CE86FE77FEF15C095
:10068000913029F489E19CE860E070E80EC0973071
:1006900009F096C006C0883009F092C0913009F088
:1006A0008FC089E19CE865E575E5ECDD89E137D52A
:1006B000892B09F083C08AE132D5892B09F07EC0ED
:1006C00080E22DD5892B09F079C081E270C083309A
:1006D00009F050C080919802853031F480919902E0
:1006E000883009F069C007C0893089F48091990287
:1006F000833009F061C08FE194EF6FE37EEFC2DDDC
:1007000080E20DD5892B09F059C08AE150C08230B2
:10071000D1F480919902843009F04EC083E891ECC5
:1007200067ED73EEAFDD87E1FAD4892B09F046C09F
:100730008DE1F5D4892B09F041C08EE1F0D4892BED
:1007400009F03CC015C08330B9F580919902893019
:1007500099F587E090EE6EE575EE94DD87E1DFD4E4
:10076000892B61F588E1DBD4892B41F583E2E6CF63
:1007700084E21DC0853001F5809198028530E1F456
:1007800080919902853039F48FE490EF6FEE7AEF23
:1007900079DD8CE10CC0863079F481E292E865E77E
:1007A00077ED70DD8BE1BBD4892B41F48FE1B7D4B9
:1007B000892B21F481E003C080E001C082E089DD63
:1007C000DF91CF910895EF92FF920F931F9386E3ED
:1007D0008DD37C010027F7FC0095102F68E770E0AF
:1007E00080E090E0BED28CE3E816F104010511052B
:1007F00010F481E038C0D801C70180559040A04076
:10080000B04080359105A105B10510F482E02BC000
:10081000D801C7018C5D9040A040B0408837910559
:10082000A105B10510F483E01EC0D801C7018856A8
:100830009140A040B0408A3A9105A105B10510F45D
:1008400084E011C088EA9DEFAFEFBFEFE80EF91E1C
:100850000A1F1B1F98ECE916F1040105110510F0A1
:1008600080E001C085E01F910F91FF90EF90089507
:10087000FF920F931F9382E892E050D182E892E0BA
:1008800061E040E01DD182E892E060E672E097D539
:1008900000E010E098DFF82E84E0F81611F4015023
:1008A00004C081E0F81639F40F5F05301CF004E055
:1008B00010E004C010E010160CF000E082E0F81622
:1008C00011F41F5F04C083E0F81609F411501B30C7
:1008D00014F010E002C017FD1AE0E02FFF27E7FD3B
:1008E000F095E956FD4F1083602F6B5F82E892E030
:1008F00041E0E6D01A3051F0612F772767FD7095FF
:1009000082E892E04AE050E048D505C082E892E0F3
:100910006FE672E054D585E0F81609F0BBCF1F9161
:100920000F91FF900895A4DF39CD0F931F9302E834
:1009300012E0C80160E142E020E0F5D0C801EED04D
:100940008DE061E007D38DE060E0B7D3F0DCC80153
:10095000E5D01F910F9108950F931F938C01FC0117
:10096000868160E0AAD381E090E054D2F8018681CC
:1009700061E0A3D381E090E04DD2F801868160E090
:100980009CD384E690E046D21F910F910895CF92B8
:10099000DF92EF92FF920F931F93CF93DF93D82EA6
:1009A000C92E282F392FC9018C01C0E0D0E0E62ED6
:1009B000FF24F801878161E0CDD2B7010C2E02C07F
:1009C000759567950A94E2F76170F801878175D390
:1009D00021960F5F1F4FC830D10559F78D2D9C2DE3
:1009E000BBDFDF91CF911F910F91FF90EF90DF90D0
:1009F000CF900895CF92DF92EF92FF920F931F93C3
:100A0000CF93DF93D82EC92E282F392FC9018C01FF
:100A1000C0E0D0E0E62EFF24F801878161E09AD2A1
:100A2000B7010C2E02C0759567950A94E2F76170C4
:100A3000F801878142D321960F5F1F4FC430D10543
:100A400059F78D2D9C2D88DFDF91CF911F910F914C
:100A5000FF90EF90DF90CF9008951F93CF93DF9397
:100A6000EC01162F8C81642F28D38D818F3F11F0DC
:100A700060E023D38F8584FF04C0CE01612F87DF20
:100A80000CC0612F70E084E0759567958A95E1F759
:100A9000CE01B0DFCE01612FADDFDF91CF911F918D
:100AA000089541E0DADF81E090E0089540E0D5CF9D
:100AB000FC016089862F8460808B6C60CF01F6CF4B
:100AC000DF93CF93CDB7DEB728970FB6F894DEBF8C
:100AD0000FBECDBF9C01FE013196AAE7B2E088E0CF
:100AE0000D9001928150E1F7F9018389481710F0C8
:100AF000482F4150E42FF0E0EE0FFF1FEC0FFD1FD9
:100B00008181680F6068C901D1DF28960FB6F8941B
:100B1000DEBF0FBECDBFCF91DF91089561E0C6DF8C
:100B200080ED97E077C1CF93DF93EC01423018F06E
:100B30008F8588608F874B8B1C8A222329F0413058
:100B400019F48F8584608F8780E593EC63D18C8165
:100B500060E0B3D28E8160E0B0D28D818F3F11F022
:100B600060E0ABD26F8564FD16C0CE0163E042DF6A
:100B700084E991E14FD1CE0163E03CDF84E991E16A
:100B800049D1CE0163E036DF86E990E043D1CE0162
:100B900062E030DF11C06062CE0188DF84E991E15C
:100BA00039D16F856062CE0181DF86E990E032D174
:100BB0006F856062CE017ADF6F856062CE0176DF7D
:100BC00084E0888BCE0174DFCE01A8DF82E0898BC0
:100BD000CE0166E06BDFDF91CF9108956F927F9237
:100BE0008F92AF92CF92EF920F931F93DF93CF9399
:100BF000CDB7DEB73C01162F842FF3014483258344
:100C00000683E782C086A18682869E8593879F851C
:100C10009487988995879989968761E09BD1F3019C
:100C200085818F3F11F061E095D1F301868161E00C
:100C300091D1112319F0F301178603C080E1F3016C
:100C40008787C30160E141E020E06DDFCF91DF9154
:100C50001F910F91EF90CF90AF908F907F906F90FA
:100C600008958F92AF92CF92EF920F931F93CF93ED
:100C7000DF93DC01362F542F722F102FAE2C8C2CCB
:100C800013961C921E92129786E792E011969C93FF
:100C90008E9300D00F92EDB7FEB73196CDB7DEB789
:100CA0001982118212821382CD0161E0432F2FEF4E
:100CB000052FE72EC12E92DF0F900F900F900F900F
:100CC000DF91CF911F910F91EF90CF90AF908F90C8
:100CD00008951F920F920FB60F9211242F933F93F6
:100CE0008F939F93AF93BF938091A0029091A102A5
:100CF000A091A202B091A3023091A4020196A11D7D
:100D0000B11D232F2D5F2D3720F02D570196A11DEA
:100D1000B11D2093A4028093A0029093A102A093FE
:100D2000A202B093A30280919C0290919D02A09197
:100D30009E02B0919F020196A11DB11D80939C025D
:100D400090939D02A0939E02B0939F02BF91AF919A
:100D50009F918F913F912F910F900FBE0F901F90F9
:100D600018959B01AC017FB7F89480919C029091FB
:100D70009D02A0919E02B0919F0266B5A89B05C0FE
:100D80006F3F19F00196A11DB11D7FBFBA2FA92F8A
:100D9000982F8827860F911DA11DB11D62E0880F35
:100DA000991FAA1FBB1F6A95D1F7BC012DC0FFB7C1
:100DB000F89480919C0290919D02A0919E02B09126
:100DC0009F02E6B5A89B05C0EF3F19F00196A11D53
:100DD000B11DFFBFBA2FA92F982F88278E0F911D05
:100DE000A11DB11DE2E0880F991FAA1FBB1FEA9544
:100DF000D1F7861B970B885E9340C8F22150304094
:100E00004040504068517C4F211531054105510546
:100E100071F60895019739F0880F991F880F991F6F
:100E200002970197F1F70895789484B5826084BDA4
:100E300084B5816084BD85B5826085BD85B58160DE
:100E400085BDEEE6F0E0808181608083E1E8F0E03E
:100E50001082808182608083808181608083E0E86D
:100E6000F0E0808181608083E1EBF0E0808184604C
:100E70008083E0EBF0E0808181608083E1E9F0E055
:100E8000808182608083808181608083E0E9F0E0FE
:100E9000808181608083E1EAF0E0808182608083EC
:100EA000808181608083E0EAF0E0808181608083DE
:100EB000E1E2F1E0808182608083808181608083D3
:100EC000E0E2F1E0808181608083EAE7F0E0808108
:100ED0008460808380818260808380818160808360
:100EE0008081806880831092C1000895382F8633F6
:100EF00008F0365320917B00832F86958695869542
:100F000090E08170907043E0880F991F4A95E1F757
:100F1000277F282B20937B00377080917102829568
:100F2000880F880F807C832B80937C0080917A00CF
:100F3000806480937A0080917A0086FDFCCF2091B6
:100F4000780040917900942F80E030E0282B392BF5
:100F5000C9010895CF93DF93482F50E0CA01885804
:100F60009E4FFC0134914E5C5E4FFA0184918823C0
:100F700069F190E0880F991FFC01EC51FF4FA5919A
:100F8000B491FC01E250FF4FC591D491662351F416
:100F90002FB7F8948C91932F909589238C93888107
:100FA00089230BC0623061F42FB7F8948C91932F92
:100FB000909589238C938881832B88832FBF06C0CB
:100FC0009FB7F8948C91832B8C939FBFDF91CF9127
:100FD0000895893009F449C08A30A0F4843051F171
:100FE000853040F4823079F1833000F5813009F0AA
:100FF00063C026C0873079F1883098F5863009F0D3
:101000005BC025C08D3009F442C08E3028F48B308F
:10101000B1F18C30C0F52DC0803109F442C081316E
:1010200009F445C08F3009F047C037C08091800077
:101030008F7703C0809180008F7D8093800008951A
:1010400084B58F7702C084B58F7D84BD089580916B
:10105000B0008F7703C08091B0008F7D8093B00087
:101060000895809190008F7707C0809190008F7DC8
:1010700003C080919000877F8093900008958091B5
:10108000A0008F7707C08091A0008F7D03C0809162
:10109000A000877F8093A0000895809120018F7722
:1010A00003C0809120018F7D80932001089580915D
:1010B0002001877F809320010895FF920F931F9353
:1010C000F62E482F50E0CA0182549E4FFC01249115
:1010D000CA0188589E4FFC0114914E5C5E4FFA0184
:1010E00004910023C1F0222311F0822F72DFE02F40
:1010F000F0E0EE0FFF1FE250FF4FA591B4919FB7B4
:10110000F894FF2021F48C911095812302C08C91DA
:10111000812B8C939FBF1F910F91FF9008950F9388
:101120001F93482F50E0CA0182549E4FFC01249126
:10113000CA0188589E4FFC0104914E5C5E4FFA0133
:101140001491112319F420E030E014C0222311F08F
:10115000822F3FDF812F90E0880F991F885E9E4F7E
:10116000FC01A591B4918C9120E030E0802311F036
:1011700021E030E0C9011F910F910895CF93DF93D3
:1011800053DED3DBC0E0D0E0CEDB2097E9F30E9452
:101190000000FACFCF92DF92EF92FF920F931F934E
:1011A000CF93DF937C016B018A01C0E0D0E00FC0D8
:1011B000D6016D916D01D701ED91FC910190F08107
:1011C000E02DC7011995C80FD91F01501040011516
:1011D000110571F7CE01DF91CF911F910F91FF9013
:1011E000EF90DF90CF900895CF93DF93EC016115DE
:1011F000710519F420E030E00FC0DB010D900020F4
:10120000E9F71197A61BB70BE881F9810280F381FA
:10121000E02DAD0119959C01C901DF91CF91089591
:101220004F925F927F928F929F92AF92BF92CF9296
:10123000DF92EF92FF920F931F93DF93CF93CDB77F
:10124000DEB7A1970FB6F894DEBF0FBECDBF2C015D
:10125000742ECB01223008F42AE019A231E2C32E09
:10126000D12CCC0EDD1E822E9924AA24BB24672DFE
:10127000752FA5019401C4D079018A01C801B70175
:10128000A50194019ED0472D461B0894C108D108A2
:101290004A3014F4405D01C0495CF6014083E1141A
:1012A000F1040105110521F07E2C5F2DC801DFCF6F
:1012B000C201B60199DFA1960FB6F894DEBF0FBE4A
:1012C000CDBFCF91DF911F910F91FF90EF90DF90F5
:1012D000CF90BF90AF909F908F907F905F904F90F6
:1012E0000895DC012115310541F4ED91FC91019047
:1012F000F081E02D642F1995089592CFEF92FF921F
:101300000F931F939A01E62EFF2400E010E0B8012E
:10131000A701E7DF1F910F91FF90EF900895CF9203
:10132000DF92EF92FF920F931F93CF93DF93EC0125
:101330006A017B012115310541F4E881F9810190B1
:10134000F081E02D642F19951DC02A303105C9F4B4
:1013500077FF16C0E881F9810190F081E02D6DE200
:1013600019958C0144275527BA014C195D096E095E
:101370007F09CE012AE054DF9801280F391F03C0EE
:101380002AE04EDF9C01C901DF91CF911F910F919F
:10139000FF90EF90DF90CF900895EF92FF920F9320
:1013A0001F937B019A010027F7FC0095102FB801CD
:1013B000A701B5DF1F910F91FF90EF90089514CF13
:1013C0000895629FD001739FF001829FE00DF11D8F
:1013D000649FE00DF11D929FF00D839FF00D749FAF
:1013E000F00D659FF00D9927729FB00DE11DF91F5B
:1013F000639FB00DE11DF91FBD01CF0111240895B8
:10140000A1E21A2EAA1BBB1BFD010DC0AA1FBB1F08
:10141000EE1FFF1FA217B307E407F50720F0A21B7A
:10142000B30BE40BF50B661F771F881F991F1A94E7
:1014300069F760957095809590959B01AC01BD0111
:10144000CF010895EE0FFF1F0590F491E02D199440
:04145000F894FFCF3E
:101454004943204F6B61792E004661756C74792085
:1014640049432E00556E6B6E6F776E204943210001
:1014740041726475696E6F204D65676100492E4342
:101484002054657374657200446576656C6F70658D
:101494006420627900536861776F6E2053686168D5
:1014A40072796961720050617274204E6F2E20004F
:1014B40049432050617274204E756D62657200203C
:1014C4000001000000005105CA080000400014009B
:0214D4005400C2
:00000001FF
