:100000000C9462000C948A000C948A000C948A0070
:100010000C948A000C948A000C948A000C948A0038
:100020000C948A000C948A000C948A000C948A0028
:100030000C948A000C948A000C948A000C948A0018
:100040000C94FD090C948A000C948A000C948A008C
:100050000C948A000C948A000C948A000C948A00F8
:100060000C948A000C948A000000000024002700F1
:100070002A0000000000250028002B0000000000DE
:1000800023002600290004040404040404040202DA
:100090000202020203030303030301020408102007
:1000A0004080010204081020010204081020000012
:1000B0000007000201000003040600000000000029
:1000C00000008C0011241FBECFEFD8E0DEBFCDBFF3
:1000D00012E0A0E0B1E0ECEFF0E202C005900D927A
:1000E000A634B107D9F712E0A6E4B2E001C01D9230
:1000F000A438B107E1F710E0C4ECD0E004C02297C7
:10010000FE010E947810C23CD107C9F70E94F90B8A
:100110000C947C100C940000CF92EF920F9386E425
:1001200092E062E043E024E005E056E0E52E37E0AF
:10013000C32E0E94C4090F91EF90CF900895EF92C3
:10014000FF920F931F93CF93DF93E0906B02F09099
:100150006C02C0916902D0916A020091670210910D
:10016000680286E492E060E040E00E94D708809157
:100170007902823009F445C0833024F4813009F0DB
:1001800097C007C0833009F469C0843009F090C07B
:100190007AC086E492E060E071E00E94250D86E47A
:1001A00092E067E040E00E94D70860916D02709194
:1001B0006E0280916F029091700226E636E646EE5E
:1001C0005FE30E94CE0F20E030E040E052E40E9466
:1001D000170EAB01BC0186E492E022E030E00E9401
:1001E0000C0E86E492E06BE040E00E94D70886E4C3
:1001F00092E06FED0E94C30886E492E068E071E04F
:1002000080C086E492E060E071E00E94250D86E403
:1002100092E067E040E00E94D70860916D02709123
:100220006E0280916F029091700220E030E848E801
:1002300053E40E94170EAB01BC0186E492E022E079
:1002400030E00E940C0E86E492E06CE040E00E94F8
:10025000D70886E492E06CE071E053C086E492E057
:1002600060E171E00E94250D86E492E067E040E0E5
:100270000E94D708409171025091720260917302FE
:100280007091740229C086E492E06CE171E00E94F2
:10029000250D86E492E067E040E00E94D708409197
:1002A000750250917602609177027091780214C0C5
:1002B00086E492E060E071E00E94250D86E492E021
:1002C00067E040E00E94D70840916D0250916E02B5
:1002D00060916F027091700286E492E022E030E05B
:1002E0000E940C0E86E492E06BE040E00E94D7088A
:1002F00086E492E06FED0E94C30886E492E068E134
:1003000071E00E94250D86E492E060E041E00E94E9
:10031000D70880915B028823A9F180916202823024
:1003200049F0833071F0813089F486E492E064E230
:1003300071E004C086E492E065E371E00E94250D5F
:1003400077C086E492E066E471E0F8CF86E492E05C
:1003500067E571E00E94250D86E492E06CE041E0E3
:100360000E94D708CE0DDF1DC01BD10B86E492E0A2
:10037000BE014AE050E00E94C10C86E492E064E6CF
:1003800071E0DCCF80916002882339F186E492E04D
:1003900068E671E00E94250D86E492E06FED0E9410
:1003A000C30886E492E062E771E00E94250D609147
:1003B00063027091640286E492E04AE050E00E9499
:1003C000120D86E492E064E671E00E94250D68E576
:1003D00072E080E090E00E94530A80915F028823DF
:1003E00039F186E492E066E771E00E94250D86E42B
:1003F00092E06FED0E94C30886E492E062E771E04C
:100400000E94250D609165027091660286E492E07B
:100410004AE050E00E94120D86E492E064E671E04A
:100420000E94250D68E572E080E090E00E94530A8A
:10043000809179028F5F80937902853014F0109259
:10044000790280915B02809580935B0264E873E09F
:1004500080E090E00E94530ADF91CF911F910F91AD
:10046000FF90EF90089588E00E94A60B892B41F041
:1004700068E270E080E090E00E94530A81E0089515
:1004800089E00E94A60B892B41F068E270E080E0D1
:1004900090E00E94530A82E008958AE00E94A60B31
:1004A000892B11F480E0089568E270E080E090E02C
:1004B0000E94530A83E008951F930E943302823002
:1004C00079F480915D02882359F08CE060E00E940D
:1004D000520B1092600210925D0283E080936202E0
:1004E0000E943302182F833071F480915E028823BA
:1004F00051F08BE060E00E94520B10925F0210926C
:100500005E02109362021F9108950E945C02809126
:100510005D02882309F44BC060916302709164020C
:10052000882777FD8095982F0E941A0F9B01AC01B8
:1005300060916D0270916E0280916F0290917002D5
:100540000E94CA0F88236CF080916002882349F4CE
:1005500081E080936002809362028CE061E00E94FF
:10056000520B209161026091630270916402621BE0
:100570007109882777FD8095982F0E941A0F9B019B
:10058000AC0160916D0270916E0280916F0290914A
:1005900070020E947B0E882354F4809160028823AD
:1005A00031F0109260028CE060E00E94520B80916A
:1005B0005E02882309F44CC0609165027091660266
:1005C000882777FD8095982F0E941A0F9B01AC0118
:1005D00060916D0270916E0280916F029091700235
:1005E0000E947B0E181674F080915F02882351F4EC
:1005F00081E080935F0282E0809362028BE061E0A1
:100600000E94520B20916102609165027091660216
:10061000620F711D882777FD8095982F0E941A0F11
:100620009B01AC0160916D0270916E0280916F022E
:10063000909170020E94CA0F181654F480915F02C4
:10064000882331F010925F028BE060E00E94520B31
:1006500080915E02882331F480915D02882311F439
:10066000109262020895AF92BF92CF92DF92EF9202
:10067000FF920F931F93CF93DF93A82EB62EEA011C
:100680006901FF2486E492E06A2D4B2D0E94D70871
:1006900086E492E0BE014AE050E00E94120D86E43A
:1006A00092E064E671E00E94250D0E9433028230E0
:1006B00011F4CE0DDF1DCC16DD060CF4E8010E940E
:1006C0003302833011F4CE19DF09C017D1070CF4BF
:1006D000E6010E9433028130A9F6CE01DF91CF916D
:1006E0001F910F91FF90EF90DF90CF90BF90AF9050
:1006F00008950E94450A28EE33E040E050E00E9451
:100700005410BA01A9015093680240936702809186
:10071000690290916A029A01281B390B80916B0241
:1007200090916C022817390738F050936A02409371
:10073000690281E080935C020895EF92FF920F932B
:100740001F9380915C02E0906D02F0906E02009128
:100750006F0210917002882399F0E0927102F0927A
:1007600072020093730210937402E0927502F09289
:100770007602009377021093780210925C0240C0D8
:10078000C801B70120917102309172024091730249
:10079000509174020E94CA0F181694F4C801B70150
:1007A00020E030E04CE053E40E947B0E882344F4C8
:1007B000E0927102F092720200937302109374023D
:1007C000C801B701209175023091760240917702FD
:1007D000509178020E947B0E882394F4C801B701DF
:1007E00020E030E040E252EC0E94CA0F181644F4B8
:1007F000E0927502F09276020093770210937802ED
:100800000E9479031F910F91FF90EF9008951F931D
:10081000CF93DF9310E0C0E0D0E080E00E94F10AC7
:10082000C80FD91F84E090E00E94AC0A1F5F10340B
:10083000A1F79E0166E0369527956A95E1F7C90113
:10084000DF91CF911F910895AF92BF92CF92DF9227
:10085000EF92FF920F931F930E940704A0E0B0E075
:10086000BC01CD010E94180F0E94EC0E80E090E0C8
:100870000E94180F7B018C0120EE3DE240E95AE313
:100880000E94CE0FA80197010E94CE0F5B016C0160
:10089000C801B7012EEC3AEA4FEA5FEB0E94CE0F97
:1008A0009B01AC01C601B5010E94170E24EA30ED90
:1008B00045EB53E40E94170E60936D0270936E0235
:1008C00080936F02909370021F910F91FF90EF90B1
:1008D000DF90CF90BF90AF900895AF92BF92CF922C
:1008E000DF92EF92FF920F931F938C016A017B01BD
:1008F000EAE7AE2EE2E0BE2EC501B8014C2D0E9403
:10090000010866E070E080E090E00E94530A0F5F0B
:100910001F4FCD2CDE2CEF2CFF24C501B8014C2D30
:100920000E94010866E070E080E090E00E94530AB7
:100930001F910F91FF90EF90DF90CF90BF90AF90FD
:100940000895EF920F931F930E943302813009F0B4
:10095000F4C186E492E00E94060986E492E063E036
:1009600040E00E94D70886E492E060E871E00E94CF
:10097000250D64E873E080E090E00E94530A0E9435
:1009800033028130E1F386E492E00E94060986E4B6
:1009900092E060E040E00E94D70886E492E06BE8D5
:1009A00071E00E94250D86E492E060E041E00E9443
:1009B000D70886E492E06BE971E00E94250D409132
:1009C0006B0250916C0285E061E020E13EE000E0C6
:1009D00010E0FAE0EF2E0E943303AC0190936C021A
:1009E00080936B0260E070E087E090E00E946D040D
:1009F00060E971E080E090E00E94530A86E492E0B2
:100A00000E94060986E492E060E040E00E94D70878
:100A100086E492E061EA71E00E94250D86E492E0AE
:100A200060E041E00E94D70886E492E060EB71E06C
:100A30000E94250D40915C028EE061E050E021E0D3
:100A400030E0EE24E3940E94330380935C0260E97B
:100A500071E080E090E00E94530A86E492E00E94F8
:100A6000060986E492E060E040E00E94D70886E450
:100A700092E06CEB71E00E94250D86E492E060E06C
:100A800041E00E94D70886E492E060EB71E00E94AA
:100A9000250D40915E028EE061E050E021E030E003
:100AA0000E943303482F80935E028AE792E060E061
:100AB00070E00E94010866E070E080E090E00E9433
:100AC000530A60E971E080E090E00E94530A80914F
:100AD0005E02882309F446C086E492E00E9406097B
:100AE00086E492E060E040E00E94D70886E492E06D
:100AF0006CEC71E00E94250D86E492E060E041E03C
:100B00000E94D70886E492E06CED71E00E94250D0A
:100B100086E492E06FED0E94C30886E492E062E70B
:100B200071E00E94250D40916502509166028BE0B4
:100B300061E02CE830E008ED1FEF0E943303AC01C8
:100B40009093660280936502662757FD6095762F25
:100B500085E090E00E946D0466E070E080E090E047
:100B60000E94530A60E971E080E090E00E94530A1D
:100B700086E492E00E94060986E492E060E040E0AC
:100B80000E94D70886E492E064EE71E00E94250D91
:100B900086E492E060E041E00E94D70886E492E0BB
:100BA00060EB71E00E94250D40915D028EE061E0F6
:100BB00050E021E030E000E010E0EE24E3940E94F9
:100BC0003303482F80935D028AE792E061E070E092
:100BD0000E94010866E070E080E090E00E94530A05
:100BE00060E971E080E090E00E94530A80915D022C
:100BF000882309F446C086E492E00E94060986E450
:100C000092E060E040E00E94D70886E492E065EF61
:100C100071E00E94250D86E492E060E041E00E94D0
:100C2000D70886E492E066E072E00E94250D86E433
:100C300092E06FED0E94C30886E492E062E771E003
:100C40000E94250D40916302509164028BE061E0A7
:100C50002CE830E008ED1FEF0E943303AC019093C5
:100C6000640280936302662757FD6095762F83E0C8
:100C700090E00E946D0466E070E080E090E00E94E9
:100C8000530A60E971E080E090E00E94530A80918D
:100C90005D02882329F480915E02882309F443C011
:100CA00086E492E00E94060986E492E060E040E07B
:100CB0000E94D70886E492E06EE072E00E94250D63
:100CC00086E492E060E041E00E94D70886E492E08A
:100CD0006FE172E00E94250D86E492E06FED0E94C4
:100CE000C30886E492E062E771E00E94250D40911E
:100CF00061028AE061E050E02AE030E000E010E0CC
:100D0000EE24E3940E943303482F809361028AE724
:100D100092E062E070E00E94010866E070E080E02E
:100D200090E00E94530A60E971E080E090E00E9448
:100D3000530A86E492E00E9406091F910F91EF90FA
:100D400008950E94A1040E9424040E949D030E9411
:100D500085020E949F000895DF92EF92FF920F9309
:100D60001F938C01AAE7EA2EA2E0FA2EC701B80170
:100D70000E94FA07D82E66E070E080E090E00E94C2
:100D8000530A0F5F1F4FC701B8010E94FA07182FBF
:100D900066E070E080E090E00E94530A812F6D2DA4
:100DA0000E940F0E1F910F91FF90EF90DF9008951A
:100DB0008AE792E060E070E00E94FA0780935E02AA
:100DC00066E070E080E090E00E94530A80915E024D
:100DD0008230D8F08AE792E060E070E040E00E9464
:100DE000010866E070E080E090E00E94530A8AE724
:100DF00092E060E070E00E94FA0780935E0266E095
:100E000070E080E090E00E94530A8AE792E061E09F
:100E100070E00E94FA0780935D0266E070E080E077
:100E200090E00E94530A80915D028230D8F08AE7F8
:100E300092E061E070E040E00E94010866E070E04E
:100E400080E090E00E94530A8AE792E061E070E05F
:100E50000E94FA0780935D0266E070E080E090E017
:100E60000E94530A8AE792E062E070E00E94FA076B
:100E70008093610266E070E080E090E00E94530A97
:100E8000809161028B30D8F08AE792E062E070E0F6
:100E900044E00E94010866E070E080E090E00E947B
:100EA000530A8AE792E062E070E00E94FA078093BA
:100EB000610266E070E080E090E00E94530A85E005
:100EC00090E00E94AC069C019093660280936502BC
:100ED0008D3891053CF48FEF283D38071CF02F5FCB
:100EE0003F4F81F485E090E040E050E060E070E04A
:100EF0000E946D0485E090E00E94AC06909366022B
:100F00008093650283E090E00E94AC069C01909380
:100F10006402809363028D3891053CF48FEF283D85
:100F200038071CF02F5F3F4F81F483E090E04CE3E3
:100F300050E060E070E00E946D0483E090E00E9469
:100F4000AC06909364028093630287E090E00E9475
:100F5000AC0690936C0280936B0281519E4080F0AE
:100F600087E090E04EE150E060E070E00E946D04A8
:100F700087E090E00E94AC0690936C0280936B0235
:100F8000089581E080935B0280935C0210925F027F
:100F900010925D0210925E021092600288E00E9440
:100FA000A60B60E00E94130B89E00E94A60B60E094
:100FB0000E94130B8AE00E94A60B60E00E94130BB4
:100FC0008BE061E00E94130B8CE061E00E94130B48
:100FD0008BE060E00E94520B8BE060E00E94520BBD
:100FE0000E94D80686E492E060E142E020E00E94A0
:100FF0000E090895F999FECF72BD61BDF89A80B5CA
:101000000895F999FECF1FBA72BD61BD40BD0FB6FC
:10101000F894FA9AF99A0FBE08950F931F938C01D2
:10102000FC01868160E00E94520B81E090E00E940A
:10103000AC0AF801868161E00E94520B81E090E0E9
:101040000E94AC0AF801868160E00E94520B84E69F
:1010500090E00E94AC0A1F910F910895CF92DF9209
:10106000EF92FF920F931F93CF93DF93D82EC92E49
:10107000282F392FC9018C01C0E0D0E0E62EFF24D3
:10108000F801878161E00E94130BB7010C2E02C0AA
:10109000759567950A94E2F76170F80187810E945F
:1010A000520B21960F5F1F4FC830D10549F78D2D88
:1010B0009C2D0E940D08DF91CF911F910F91FF9001
:1010C000EF90DF90CF900895CF92DF92EF92FF9252
:1010D0000F931F93CF93DF93D82EC92E282F392F2C
:1010E000C9018C01C0E0D0E0E62EFF24F801878121
:1010F00061E00E94130BB7010C2E02C07595679535
:101100000A94E2F76170F80187810E94520B2196E0
:101110000F5F1F4FC430D10549F78D2D9C2D0E94C4
:101120000D08DF91CF911F910F91FF90EF90DF900D
:10113000CF9008951F93CF93DF93EC01162F8C81EE
:10114000642F0E94520B8D818F3F19F060E00E9446
:10115000520B8F8584FF05C0CE01612F0E942E089F
:101160000EC0612F70E084E0759567958A95E1F770
:10117000CE010E946408CE01612F0E946408DF91B5
:10118000CF911F91089541E00E949A0881E090E07C
:10119000089540E00E949A080895FC016089862F16
:1011A0008460808B6C60CF010E94C9080895DF9332
:1011B000CF93CDB7DEB728970FB6F894DEBF0FBE3A
:1011C000CDBF9C01FE013196ADE3B2E088E00D9009
:1011D00001928150E1F7F9018389481710F0482FF7
:1011E0004150E42FF0E0EE0FFF1FEC0FFD1F818157
:1011F000680F6068C9010E94C90828960FB6F89464
:10120000DEBF0FBECDBFCF91DF91089561E00E9498
:10121000C90880ED97E00E94AC0A0895CF93DF9350
:10122000EC01423018F08F8588608F874B8B1C8AC9
:10123000222329F0413019F48F8584608F8780E55F
:1012400093EC0E94AC0A8C8160E00E94520B8E816C
:1012500060E00E94520B8D818F3F19F060E00E9488
:10126000520B6F8564FD1DC0CE0163E00E946408CF
:1012700084E991E10E94AC0ACE0163E00E94640817
:1012800084E991E10E94AC0ACE0163E00E94640807
:1012900086E990E00E94AC0ACE0162E00E946408F8
:1012A00016C06062CE010E94C90884E991E10E94E3
:1012B000AC0A6F856062CE010E94C90886E990E0A1
:1012C0000E94AC0A6F856062CE010E94C9086F85DA
:1012D0006062CE010E94C90884E0888BCE010E9422
:1012E000CD08CE010E94060982E0898BCE0166E01E
:1012F0000E94C908DF91CF9108956F927F928F92DB
:10130000AF92CF92EF920F931F93DF93CF93CDB70E
:10131000DEB73C01162F842FF30144832583068317
:10132000E782C086A18682869D8593879E85948765
:101330009F8595879889968761E00E94130BF3013A
:1013400085818F3F19F061E00E94130BF3018681C4
:1013500061E00E94130B112319F0F301178603C0FB
:1013600080E1F3018787C30160E141E020E00E9452
:101370000E09CF91DF911F910F91EF90CF90AF9019
:101380008F907F906F9008958F92AF92CF92EF924F
:101390000F931F93CF93DF93DC01362F542F722FBF
:1013A000102FAE2C8C2C13961C921E92129789E350
:1013B00092E011969C938E9300D000D0EDB7FEB7CB
:1013C0003196CDB7DEB71982118212821382CD0118
:1013D00061E0432F2FEF052FE72EC12E0E947D09DC
:1013E0000F900F900F900F90DF91CF911F910F9161
:1013F000EF90CF90AF908F9008951F920F920FB6FD
:101400000F9211242F933F938F939F93AF93BF938A
:1014100080917F0290918002A0918102B09182021E
:10142000309183020196A11DB11D232F2D5F2D3711
:1014300020F02D570196A11DB11D209383028093AA
:101440007F0290938002A0938102B09382028091E8
:101450007B0290917C02A0917D02B0917E02019668
:10146000A11DB11D80937B0290937C02A0937D020D
:10147000B0937E02BF91AF919F918F913F912F9139
:101480000F900FBE0F901F9018958FB7F894209172
:101490007F023091800240918102509182028FBF81
:1014A000B901CA0108959B01AC017FB7F8948091FE
:1014B0007B0290917C02A0917D02B0917E0266B584
:1014C000A89B05C06F3F19F00196A11DB11D7FBFFC
:1014D000BA2FA92F982F8827860F911DA11DB11D06
:1014E00062E0880F991FAA1FBB1F6A95D1F7BC0144
:1014F0002DC0FFB7F89480917B0290917C02A0915F
:101500007D02B0917E02E6B5A89B05C0EF3F19F0C1
:101510000196A11DB11DFFBFBA2FA92F982F8827B3
:101520008E0F911DA11DB11DE2E0880F991FAA1F0A
:10153000BB1FEA95D1F7861B970B885E9340C8F2D4
:10154000215030404040504068517C4F21153105BA
:101550004105510571F60895019739F0880F991FDB
:10156000880F991F02970197F1F70895789484B531
:10157000826084BD84B5816084BD85B5826085BD8F
:1015800085B5816085BDEEE6F0E080818160808375
:10159000E1E8F0E010828081826080838081816058
:1015A0008083E0E8F0E0808181608083E1EBF0E01F
:1015B000808184608083E0EBF0E0808181608083C3
:1015C000EAE7F0E0808184608083808182608083AC
:1015D0008081816080838081806880831092C100D7
:1015E0000895982F8E3008F09E50977080913402A5
:1015F0008295880F880F807C892B80937C00809156
:101600007A00806480937A0080917A0086FDFCCF16
:101610002091780040917900942F80E030E0282BD1
:10162000392BC9010895CF93DF93482F50E0CA01A9
:1016300086569F4FFC0134914A575F4FFA018491BF
:10164000882369F190E0880F991FFC01E859FF4F4A
:10165000A591B491FC01EE58FF4FC591D49166233A
:1016600051F42FB7F8948C91932F909589238C93F4
:10167000888189230BC0623061F42FB7F8948C9174
:10168000932F909589238C938881832B88832FBFF8
:1016900006C09FB7F8948C91832B8C939FBFDF91EA
:1016A000CF910895482F50E0CA0182559F4FFC0109
:1016B0002491CA0186569F4FFC0194914A575F4F6F
:1016C000FA013491332309F440C0222351F123302D
:1016D00071F0243028F42130A1F0223011F514C02B
:1016E0002630B1F02730C1F02430D9F404C0809105
:1016F00080008F7703C0809180008F7D8093800071
:1017000010C084B58F7702C084B58F7D84BD09C0B9
:101710008091B0008F7703C08091B0008F7D80935F
:10172000B000E32FF0E0EE0FFF1FEE58FF4FA59142
:10173000B4912FB7F894662321F48C919095892366
:1017400002C08C91892B8C932FBF0895682F70E075
:10175000CB0182559F4FFC012491CB0186569F4FB0
:10176000FC0144916A577F4FFB019491992319F42E
:1017700020E030E03CC0222351F1233071F02430CE
:1017800028F42130A1F0223011F514C02630B1F038
:101790002730C1F02430D9F404C0809180008F77C5
:1017A00003C0809180008F7D8093800010C084B53D
:1017B0008F7702C084B58F7D84BD09C08091B00051
:1017C0008F7703C08091B0008F7D8093B000892F08
:1017D00090E0880F991F84589F4FFC01A591B49108
:1017E0008C9120E030E0842311F021E030E0C90149
:1017F0000895CF93DF930E94B60A0E94C107C0E00C
:10180000D0E00E94A1062097E1F30E940000F9CFEA
:10181000CF92DF92EF92FF920F931F93CF93DF93BC
:101820007C016B018A01C0E0D0E00FC0D6016D9150
:101830006D01D701ED91FC910190F081E02DC70180
:101840000995C80FD91F015010400115110571F7F6
:10185000CE01DF91CF911F910F91FF90EF90DF901C
:10186000CF900895CF93DF93EC016115710519F4C2
:1018700020E030E00FC0DB010D900020E9F7119768
:10188000A61BB70BE881F9810280F381E02DAD0141
:1018900009959C01C901DF91CF9108954F925F9204
:1018A0007F928F929F92AF92BF92CF92DF92EF92F0
:1018B000FF920F931F93DF93CF93CDB7DEB7A1971E
:1018C0000FB6F894DEBF0FBECDBF2C01742ECB0136
:1018D000223008F42AE019A231E2C32ED12CCC0E1A
:1018E000DD1E822E9924AA24BB24672D752FA50105
:1018F00094010E94541079018A01C801B701A50121
:1019000094010E943510472D461B0894C108D10848
:101910004A3014F4405D01C0495CF6014083E11493
:10192000F1040105110521F07E2C5F2DC801DDCFEA
:10193000C201B6010E94320CA1960FB6F894DEBF28
:101940000FBECDBFCF91DF911F910F91FF90EF9010
:10195000DF90CF90BF90AF909F908F907F905F90DF
:101960004F900895DC012115310541F4ED91FC9172
:101970000190F081E02D642F099508950E944E0C8E
:101980000895EF92FF920F931F939A017B0100E05D
:1019900010E0B801A7010E94B20C1F910F91FF90B7
:1019A000EF900895CF92DF92EF92FF920F931F93E3
:1019B000CF93DF93EC016A017B012115310541F4DE
:1019C000E881F9810190F081E02D642F09951FC015
:1019D0002A303105D1F477FF17C0E881F9810190F1
:1019E000F081E02D6DE209958C0144275527BA015D
:1019F0004C195D096E097F09CE012AE00E944E0C48
:101A00009801280F391F04C02AE00E944E0C9C0147
:101A1000C901DF91CF911F910F91FF90EF90DF905F
:101A2000CF900895EF92FF920F931F937B019A013D
:101A30000027F7FC0095102FB801A7010E94D20CD7
:101A40001F910F91FF90EF9008950E94320C08951E
:101A50007F928F929F92AF92BF92CF92DF92EF923E
:101A6000FF920F931F93CF93DF934C017A018B0169
:101A7000722ECB01BA01A80197010E943110882370
:101A800021F0C40166E272E021C0C0E0D0E057015D
:101A90006801E894D7F8C601B5012FEF3FEF4FE793
:101AA0005FE70E943110882351F4C601B5012FEF82
:101AB0003FEF4FE75FE70E947B0E181614F0C1E07E
:101AC000D0E0219739F0C4016AE272E00E94320C42
:101AD000EC0193C0C801B7012FEF3FEF4FE75FE480
:101AE0000E94CA0F181654F0C801B7012FEF3FEF3C
:101AF0004FE75FEC0E947B0E882324F4C4016EE262
:101B000072E0E4CFC801B70120E030E040E050E0EF
:101B10000E947B0E87FD03C0C0E0D0E00EC0D40160
:101B2000ED91FC910190F081E02DC4016DE20995E9
:101B3000EC0117FB109517F9109520E030E040E01C
:101B40005FE3DD240BC0CA01B90120E030E040E2D0
:101B500051E40E947F0E9B01AC01D394D71498F3FB
:101B6000C801B7010E94170E5B016C010E94EC0EC8
:101B70007B018C01C401B801A7012AE030E00E947A
:101B8000B20CC80FD91F772039F0C40162E372E0AC
:101B90000E94320CC80FD91FC801B7010E94180F4C
:101BA0009B01AC01C601B5010E94160E24C020E0C5
:101BB00030E040E251E40E94CE0F7B018C010E9494
:101BC000E70E5B016C01CC24B7FCC094DC2CC40193
:101BD000B601A5012AE030E00E94D20CC80FD91F3F
:101BE000C601B5010E941A0F9B01AC01C801B701E3
:101BF0000E94160E7A947720D1F6CE01DF91CF9114
:101C00001F910F91FF90EF90DF90CF90BF90AF901A
:101C10009F908F907F9008950E94280D089570E006
:101C2000382F20E0622B732BCB0108955058BB272F
:101C3000AA270ED075C166D130F06BD120F031F4F7
:101C40009F3F11F41EF45BC10EF4E095E7FB51C118
:101C5000E92F77D180F3BA176207730784079507D6
:101C600018F071F49EF58FC10EF4E0950B2EBA2F8B
:101C7000A02D0B01B90190010C01CA01A001112492
:101C8000FF27591B99F0593F50F4503E68F11A163E
:101C9000F040A22F232F342F4427585FF3CF4695CF
:101CA00037952795A795F0405395C9F77EF41F16F1
:101CB000BA0B620B730B840BBAF09150A1F0FF0FBB
:101CC000BB1F661F771F881FC2F70EC0BA0F621FA7
:101CD000731F841F48F4879577956795B795F79597
:101CE0009E3F08F0B3CF9395880F08F09927EE0F29
:101CF000979587950895D9D008F481E008950CD080
:101D00000FC107D140F0FED030F021F45F3F19F051
:101D1000F0C0511139C1F3C014D198F39923C9F31C
:101D20005523B1F3951B550BBB27AA2762177307E1
:101D3000840738F09F5F5F4F220F331F441FAA1F95
:101D4000A9F333D00E2E3AF0E0E830D09150504055
:101D5000E695001CCAF729D0FE2F27D0660F771F03
:101D6000881FBB1F261737074807AB07B0E809F0E5
:101D7000BB0B802DBF01FF2793585F4F2AF09E3F7A
:101D8000510568F0B6C000C15F3FECF3983EDCF34C
:101D9000869577956795B795F7959F5FC9F7880FF3
:101DA000911D9695879597F90895E1E0660F771F45
:101DB000881FBB1F621773078407BA0720F0621BD6
:101DC000730B840BBA0BEE1F88F7E095089504D0CF
:101DD0006894B111D9C00895BCD088F09F5790F095
:101DE000B92F9927B751A0F0D1F0660F771F881F40
:101DF000991F1AF0BA95C9F712C0B13081F0C3D05B
:101E0000B1E00895C0C0672F782F8827B85F39F0F8
:101E1000B93FCCF3869577956795B395D9F73EF49E
:101E200090958095709561957F4F8F4F9F4F089546
:101E3000E89409C097FB3EF4909580957095619564
:101E40007F4F8F4F9F4F9923A9F0F92F96E9BB271A
:101E50009395F695879577956795B795F111F8CF96
:101E6000FAF4BB0F11F460FF1BC06F5F7F4F8F4F01
:101E70009F4F16C0882311F096E911C0772321F0F7
:101E80009EE8872F762F05C0662371F096E8862F8F
:101E900070E060E02AF09A95660F771F881FDAF7E6
:101EA000880F9695879597F90895990F0008550F13
:101EB000AA0BE0E8FEEF16161706E807F907C0F0D0
:101EC00012161306E407F50798F0621B730B840BD8
:101ED000950B39F40A2661F0232B242B252B21F4B2
:101EE00008950A2609F4A140A6958FEF811D811D52
:101EF000089597F99F6780E870E060E008959FEF8C
:101F000080EC089500240A94161617061806090690
:101F1000089500240A94121613061406050608955F
:101F2000092E0394000C11F4882352F0BB0F40F4E7
:101F3000BF2B11F460FF04C06F5F7F4F8F4F9F4F27
:101F4000089557FD9058440F551F59F05F3F71F0A9
:101F50004795880F97FB991F61F09F3F79F0879510
:101F60000895121613061406551FF2CF4695F1DF99
:101F700008C0161617061806991FF1CF8695710529
:101F8000610508940895E894BB2766277727CB015D
:101F900097F908958ADF08F48FEF08950BD0C0CF2A
:101FA000B1DF28F0B6DF18F0952309F0A2CFA7CF54
:101FB0001124EACFC6DFA0F3959FD1F3950F50E02F
:101FC000551F629FF001729FBB27F00DB11D639FEB
:101FD000AA27F00DB11DAA1F649F6627B00DA11D91
:101FE000661F829F2227B00DA11D621F739FB00D37
:101FF000A11D621F839FA00D611D221F749F3327A7
:10200000A00D611D231F849F600D211D822F762F3F
:102010006A2F11249F5750408AF0E1F088234AF03C
:10202000EE0FFF1FBB1F661F771F881F9150504088
:10203000A9F79E3F510570F05CCFA6CF5F3FECF350
:10204000983EDCF3869577956795B795F795E79574
:102050009F5FC1F7FE2B880F911D9695879597F985
:10206000089523DF880B990B0895629FD001739F19
:10207000F001829FE00DF11D649FE00DF11D929F24
:10208000F00D839FF00D749FF00D659FF00D992763
:10209000729FB00DE11DF91F639FB00DE11DF91F87
:1020A000BD01CF0111240895A1E21A2EAA1BBB1B6A
:1020B000FD010DC0AA1FBB1FEE1FFF1FA217B30714
:1020C000E407F50720F0A21BB30BE40BF50B661F2A
:1020D000771F881F991F1A9469F7609570958095EE
:1020E00090959B01AC01BD01CF010895EE0FFF1F3C
:0C20F0000590F491E02D0994F894FFCFC6
:1020FC0054204176673A2000462020004B202000D7
:10210C0054204D61783A20004320200054204D6922
:10211C006E3A20003C3C482054656D7020416C6147
:10212C00726D3E3E003C3C4C2054656D7020416C01
:10213C0061726D3E3E003C3C416C61726D204D7590
:10214C00746564213E3E004E6F20416C61726D20BF
:10215C0020733A0020202000482E20542E20416C61
:10216C002F00433A20004C2E20542E20416C2F007F
:10217C005365747570204D656E75005420526566FC
:10218C007265736820526174653F00542F733A2056
:10219C00005265736574204D61782D4D696E3F005A
:1021AC005965733D3120204E6F3D30004C6F7720C8
:1021BC0054656D7020416C61726D3F004C6F7720DF
:1021CC0054656D702056616C75653F00416C206DD7
:1021DC00696E2F00486967682054656D7020416CEA
:1021EC0061726D3F00486967682054656D702056B8
:1021FC00616C75653F00416C206D61782F005468EF
:10220C00726573686F6C642056616C75653F005421
:10221C00687265732F006E616E00696E66006F7672
:10222C0066002E000100000000C308080C000040EE
:06223C0000140054000034
:00000001FF
