:100000000C9461000C947E000C947E000C947E0095
:100010000C947E000C947E000C947E000C947E0068
:100020000C947E000C947E000C947E000C947E0058
:100030000C947E000C9470010C947E000C947E0055
:100040000C94E7030C947E000C947E000C947E00CC
:100050000C947E000C947E000C947E000C947E0028
:100060000C947E000C947E00000000080002010049
:100070000003040700000000000000000102040863
:100080001020408001020408102001020408102002
:10009000040404040404040402020202020203032E
:1000A00003030303000000002300260029000000D2
:1000B0000000250028002B0000000000240027007D
:1000C0002A0011241FBECFEFD8E0DEBFCDBF11E064
:1000D000A0E0B1E0E2EEFBE002C005900D92AA3193
:1000E000B107D9F721E0AAE1B1E001C01D92A73222
:1000F000B207E1F70E94A1050C94EF050C940000F3
:100100001F93CF93DF93172FC82FD0E0CE010E940B
:10011000E10564E170E080E090E00E945404612F0A
:10012000CE0101960E94E10564E170E080E090E07C
:10013000DF91CF911F910C9454041F93CF93DF93C1
:10014000C82FD0E0CE010E94D905182F64E170E0DD
:1001500080E090E00E945404CE0101960E94D905EF
:10016000C82F64E170E080E090E00E945404812F89
:1001700090E09C2BDF91CF911F91089580E00E9429
:100180009D00909309018093080168E270E080E08F
:1001900090E00E94540482E00E949D009093070129
:1001A0008093060168E270E080E090E00E945404D1
:1001B00084E00E949D00909305018093040168E211
:1001C00070E080E090E00E945404809108019091DA
:1001D0000901883E934058F088EC90E09093090123
:1001E0008093080168EC70E080E00E9480008091BC
:1001F000060190910701883E934058F080E991E014
:10020000909307018093060160E971E082E00E940B
:1002100080008091040190910501883E934058F040
:1002200084E690E0909305018093040164E670E019
:1002300084E00C9480000895CF93F894C3E061E0CB
:100240008C2F0E94080561E08C2F0E944105CF5F32
:10025000CE30A9F760E08C2F0E940805CF5FC33134
:10026000C9F71092800083E0809381008FEF809324
:10027000850086E08093840081E080936F0078940D
:10028000CF910C94BE0061E084E00E94410560E0E3
:1002900084E00C944105CF93DF93D82FC8E060E051
:1002A00087E00E944105D7FF02C061E001C060E025
:1002B00088E00E94410561E087E00E944105DD0F72
:1002C000C15069F7DF91CF910895CF93C82F862F42
:1002D0000E944B018C2F0E944B01CF910C94430143
:1002E0001F920F920FB60F9211242F933F934F93AB
:1002F0005F936F937F938F939F93AF93BF93EF938E
:10030000FF938FEF8093850086E080938400809137
:100310001D0190E0FC01E050FF4FDC01AB5EBE4FE1
:1003200060818C910E94650180911D018F5F8430F6
:1003300018F480931D0102C010921D01FF91EF91EE
:10034000BF91AF919F918F917F916F915F914F91ED
:100350003F912F910F900FBE0F901F901895CF9344
:100360009C01C62F4FEF5FEFBA01409300015093FD
:10037000010160930201709303018A30910510F42A
:1003800080E438C00A978A35910598F4C9016AE07B
:1003900070E00E94B105FB01E55FFE4F20812F77E1
:1003A00020930101FC01E55FFE4F808180930201F3
:1003B0002EC0C9018456910984389340F8F4C901CC
:1003C00064E670E00E94B105655F7E4FFB018081AD
:1003D00080930001EAE0F0E0C901BF010E94B1058D
:1003E0009C01CB01BF010E94B105855F9E4FFC01BE
:1003F00080818F7780930101F901D5CF8FEB9FEB3F
:10040000AFEB8093000190930101A0930201C230F1
:1004100031F0C33031F0C13031F487EC05C089E8E8
:1004200003C081EA01C086EC80930301CF91089557
:100430001F93CF93DF9310E2C0E0D0E082E10E94EF
:10044000C204C80FD91F8AE090E00E947C041150BA
:10045000A9F72AE02C9FC0012D9F900D112426E0C2
:10046000969587952A95E1F7DF91CF911F91089591
:10047000EF92FF920F931F93CF93DF93EC018B01C9
:100480007A0180E10E947705892BE1F468EC70E045
:1004900080E090E00E94540480E10E947705892B5F
:1004A00011F42A9601C0219660E083E00E94410584
:1004B00064E070E080E090E00E94540461E083E03A
:1004C0000E9441050C171D070CF4E70181E10E9411
:1004D0007705892BE1F468EC70E080E090E00E9401
:1004E000540481E10E947705892B11F42A9701C0F9
:1004F000219760E083E00E94410564E070E080E0C5
:1005000090E00E94540461E083E00E944105CE1512
:10051000DF050CF4E801CE01DF91CF911F910F911F
:10052000FF90EF90089580911C0181110FC00E94EF
:10053000180290931B0180931A0160E00E94AF01A2
:1005400060E971E080E090E00C94540408958FE03D
:100550000E947705892BC1F460E083E00E94410589
:1005600068E270E080E090E00E94540461E083E083
:100570000E9441058FE00E947705892BD9F3809175
:100580001C018F5F80931C0180911C018230A1F0BF
:10059000833021F1813099F540E050E067EE73E05F
:1005A00080910601909107010E9438029093070103
:1005B0008093060162E021C06091060170910701FD
:1005C00040E050E080910801909109010E943802BA
:1005D000909309018093080161E00FC040E050E072
:1005E00064E670E080910401909105010E94380258
:1005F000909305018093040163E00C94AF01609136
:1006000008017091090180E00E948000609106015C
:100610007091070182E00E94800060910401709156
:10062000050184E00E94800010921C010895209131
:100630001A0130911B0180910601909107018217E8
:10064000930784F460E085E00E94410561E086E064
:100650000E94410560E08CE00E94410561E08DE070
:100660000E94410520911A0130911B0180910801DF
:10067000909109012817390784F461E085E00E9410
:10068000410560E086E00E94410561E08CE00E9447
:10069000410560E08DE00E94410580911A01909132
:1006A0001B01873E934034F087EE93E090931B014B
:1006B00080931A0180911A0190911B011816190656
:1006C00024F010921B0110921A01089580911A01D2
:1006D00090911B012091060130910701821B930B21
:1006E000209104013091050182179307C4F061E065
:1006F00085E00E94410561E086E00E94410561E0DD
:100700008CE00E94410561E08DE00E94410560E0BF
:100710008BE00E94410560E083E00E9441058091EA
:1007200008019091090120911A0130911B01821B4F
:10073000930B209104013091050182179307C4F0B7
:1007400061E085E00E94410561E086E00E9441058C
:1007500061E08CE00E94410561E08DE00E9441056E
:1007600060E08AE00E94410560E083E00E9441056C
:1007700080E10E947705892B09F581E10E947705C8
:10078000892BE1F461E08BE00E94410561E08AE0A1
:100790000E94410561E085E00E94410561E086E03C
:1007A0000E94410561E08CE00E94410561E08DE01E
:1007B0000E94410561E083E00C94410508950E9488
:1007C000A7020E9493020E9417030C9466031F92D3
:1007D0000F920FB60F9211242F933F938F939F93F5
:1007E000AF93BF9380911F0190912001A0912101AF
:1007F000B091220130911E0123E0230F2D3720F408
:100800000196A11DB11D05C026E8230F0296A11D6A
:10081000B11D20931E0180931F0190932001A0938E
:100820002101B09322018091230190912401A09194
:100830002501B09126010196A11DB11D80932301D0
:1008400090932401A0932501B0932601BF91AF910D
:100850009F918F913F912F910F900FBE0F901F90FE
:1008600018953FB7F8948091230190912401A091AD
:100870002501B091260126B5A89B05C02F3F19F090
:100880000196A11DB11D3FBF6627782F892F9A2F92
:10089000620F711D811D911D42E0660F771F881F39
:1008A000991F4A95D1F70895CF92DF92EF92FF9268
:1008B000CF93DF936B017C010E943104EB01C114E3
:1008C000D104E104F10489F00E94B0050E943104D2
:1008D0006C1B7D0B683E734090F381E0C81AD10811
:1008E000E108F108C851DC4FEACFDF91CF91FF90CA
:1008F000EF90DF90CF9008958230910538F0880F07
:10090000991F880F991F05970197F1F7089578941B
:1009100084B5826084BD84B5816084BD85B5826004
:1009200085BD85B5816085BDEEE6F0E080818160A2
:100930008083E1E8F0E010828081826080838081A2
:1009400081608083E0E8F0E0808181608083E1EB7A
:10095000F0E0808184608083E0EBF0E08081816062
:100960008083EAE7F0E08081846080838081826018
:100970008083808181608083808180688083109201
:10098000C10008958E3008F08E50877020910A01C2
:1009900090E4299F90011124822B80937C00809108
:1009A0007A00806480937A0080917A0086FDFCCF83
:1009B000809178002091790090E0922B0895833007
:1009C00081F028F4813099F08230A1F008958730C9
:1009D000A9F08830B9F08430D1F4809180008F7D07
:1009E00003C0809180008F7780938000089584B544
:1009F0008F7702C084B58F7D84BD08958091B0004B
:100A00008F7703C08091B0008F7D8093B0000895F0
:100A1000CF93DF9390E0FC01E458FF4F2491FC0159
:100A2000E057FF4F8491882349F190E0880F991F88
:100A3000FC01E854FF4FA591B49182559F4FFC01F2
:100A4000C591D4919FB7611108C0F8948C912095FD
:100A500082238C93888182230AC0623051F4F894F7
:100A60008C91322F309583238C938881822B8883BD
:100A700004C0F8948C91822B8C939FBFDF91CF910F
:100A800008950F931F93CF93DF931F92CDB7DEB7D7
:100A9000282F30E0F901E859FF4F8491F901E4581B
:100AA000FF4F1491F901E057FF4F04910023C9F063
:100AB000882321F069830E94DF046981E02FF0E040
:100AC000EE0FFF1FE255FF4FA591B4919FB7F89429
:100AD0008C91611103C01095812301C0812B8C93EF
:100AE0009FBF0F90DF91CF911F910F910895CF93EA
:100AF000DF93282F30E0F901E859FF4F8491F90185
:100B0000E458FF4FD491F901E057FF4FC491CC2333
:100B100091F081110E94DF04EC2FF0E0EE0FFF1F37
:100B2000EC55FF4FA591B4912C912D2381E090E0DD
:100B300021F480E002C080E090E0DF91CF91089541
:100B400008950E9487040E94A0050E941C01C0E035
:100B5000D0E00E94DF032097E1F30E940000F9CF6C
:100B6000089597FB072E16F4009407D077FD09D05F
:100B70000E94C50507FC05D03EF4909581959F4FD6
:100B80000895709561957F4F0895AA1BBB1B51E195
:100B900007C0AA1FBB1FA617B70710F0A61BB70BED
:100BA000881F991F5A95A9F780959095BC01CD0192
:100BB0000895F999FECF92BD81BDF89A992780B525
:100BC0000895262FF999FECF1FBA92BD81BD20BD91
:100BD0000FB6F894FA9AF99A0FBE01960895F89410
:020BE000FFCF45
:100BE200FFFFFFFF64009001C80001C0F9A4B099A3
:0A0BF2009282F88090F1F2F4F8000E
:00000001FF
