:100000000C948E000C94AB000C94AB000C94AB00E1
:100010000C94AB000C94AB000C94AB000C94AB00B4
:100020000C94AB000C94AB000C94AB000C94AB00A4
:100030000C94AB000C94AB000C94AB000C94AB0094
:100040000C9428040C94AB000C94AB000C94AB0003
:100050000C94AB000C94AB000C94AB000C94AB0074
:100060000C94AB000C94AB0008000000BE92244935
:10007000123EABAAAA2ABECDCCCC4C3E00000080DA
:10008000BEABAAAAAA3E00000000BF000000803F4D
:100090000000000000084178D3BB4387D1133D190D
:1000A0000E3CC3BD4282AD2B3E68EC8276BED98F3A
:1000B000E1A93E4C80EFFFBE01C4FF7F3F0000007E
:1000C0000000000000080002010000030407000017
:1000D000000000000000010204081020408001021E
:1000E000040810200102040810200404040404047D
:1000F00004040202020202020303030303030000DA
:100100000000230026002900000000002500280030
:100110002B0000000000240027002A0011241FBE2D
:10012000CFEFD8E0DEBFCDBF13E0A0E0B1E0E6EF57
:10013000F2E102C005900D92A232B107D9F725E095
:10014000A2E2B3E001C01D92AA33B207E1F70E9418
:10015000E1050C9479090C940000CF93DF93D82F1C
:10016000C8E060E082E00E948105D7FD02C060E047
:1001700001C061E083E00E94810561E082E00E94AD
:100180008105DD0FC15069F7DF91CF910895CF93BD
:10019000C82F60E084E00E94810560E085E00E9455
:1001A00081058C2F0E94AD0061E085E0CF910C9419
:1001B0008105CF93C82F61E084E00E94810560E053
:1001C00085E00E9481058C2F0E94AD0061E085E0F2
:1001D000CF910C948105CF93C82F6770862F8064D0
:1001E0000E94C7008C2F8068CF910C94C700CF93DA
:1001F000DF9360E080E00E94EB00C8EFD1E080E098
:100200000E94D9002197D9F7DF91CF910895CF931C
:10021000C2E061E08C2F0E94480560E08C2F0E94B4
:100220008105CF5FC830A9F761E084E00E948105B5
:1002300061E085E00E94810560E086E00E94810522
:100240006AE070E080E090E00E94950461E086E062
:100250000E94810581E20E94C70082EC0E94C700D3
:1002600083E10E94C70080E20E94C70089E00E94EB
:10027000C7000E94F70088E00E94C7008CE0CF9181
:100280000C94C700CF93843508F04FC0603308F05A
:100290004CC0262F332727FD309553E03595279501
:1002A0005A95E1F7A82FBB27A7FDB09594E5929F3B
:1002B000F001939FF00D1124EA0FFB1FEE5DFC4F40
:1002C00090816770413051F441E050E0062E01C04A
:1002D000440F0A94EAF7C92FC42B15C0423051F4D9
:1002E00041E050E0062E01C0440F0A94EAF7C92FFE
:1002F000C42709C041E050E001C0440F6A95EAF705
:10030000C42FC095C92394E5929FF001939FF00DEF
:100310001124EA0FFB1FEE5DFC4FC083622F0E9489
:10032000EB008C2FCF910C94D900CF9108957F9240
:100330008F929F92AF92BF92CF92DF92EF92FF92F5
:100340000F931F93CF93DF93D82E162FA42E922EA8
:10035000B02EC22FC61B842F8D19E82EC7FF04C0F4
:10036000C195CC24CA9402C0CC24C39487FF04C096
:10037000E82EE1940FEF01C001E0EE0CFF08CC0F76
:10038000DD0B4B2D612F8D2D0E944201CE1594F473
:10039000DC2F8E2D8595C81BDA14F1F0C7FD02C045
:1003A0001C0DCE19D00ECD0F4B2D612F8D2D0E941F
:1003B0004201F2CFFE2C8C2F8595E81A191561F0B9
:1003C000E7FC02C0D00EEC1A1C0DEF0C4B2D612F78
:1003D0008D2D0E944201F2CFDF91CF911F910F919D
:1003E000FF90EF90DF90CF90BF90AF909F908F9055
:1003F0007F900895882311F061E001C060E087E0FC
:100400000C9481050F931F93CF93DF9395E089029E
:10041000800111240F5B1E4FC0E0D0E0F801EC0F0B
:10042000FD1FE05AF10980810E94D9002196C53054
:10043000D105A1F7DF91CF911F910F910895CF932F
:10044000DF93EC018991882319F00E940202FACF10
:10045000DF91CF910895CF93DF93D82FC0E06D2F18
:100460008C2F0E94EB008FE391E00E941F02CF5F70
:10047000CF32A9F7DF91CF91089580E00E942B023F
:1004800081E00E942B0282E00E942B0283E00E9406
:100490002B0284E00E942B0285E00C942B020F9328
:1004A00001E021E04AE061E088E00E94970126E255
:1004B00047E062E087E00E94970126E24BE062E0BD
:1004C0008BE00E94970127E24BE067E287E00E9401
:1004D000970128E24CE068E286E00E94970129E259
:1004E0004DE069E285E00E9497012AE24DE06AE270
:1004F00085E00E9497012BE24DE06BE285E00E94CF
:1005000097012CE24DE06CE285E00E9497012DE21C
:100510004CE06DE286E00E9497012EE24BE06EE235
:1005200087E00E94970160E086E10E94EB0087E08F
:1005300091E00E941F0261E086E10E94EB0081E1F0
:1005400091E00E941F0262E086E10E94EB008BE1D5
:1005500091E00E941F0263E086E10E94EB0085E2C9
:1005600091E00F910C941F021F93CF93DF9310E142
:10057000C0E0D0E08FE00E940205C80FD91F89E0DB
:1005800090E00E94BD041150A9F7CE0164E0969559
:1005900087956A95E1F7DF91CF911F91089561E00A
:1005A00087E00E9481050E9407010E943D020E948F
:1005B0004F0260E080E10C944805AF92BF92CF9269
:1005C000DF92EF92FF920F931F93CF9320911A0522
:1005D00021110AC010921C0510921B0586E490E0C0
:1005E00090930501809304012F5F20931A050E94C8
:1005F000B402BC01882777FD8095982F0E943807A8
:100600009B01AC0160E070EC8FE794E40E949D06D2
:1006100020E030E040E85FE30E9438069B01AC0137
:1006200060E070E48CE196E40E949D066B017C0121
:1006300020E635E048EF5BE30E949D060E94C90773
:100640009B01AC0160E070E788E795E40E949D069D
:1006500020E030E848E853E40E9438060E9405078D
:10066000663471052CF47093200560931F0506C055
:1006700086E490E09093200580931F0580911F05EC
:10068000909120051816190624F01092200510925A
:100690001F0580E10E94B705019751F480E00E9498
:1006A000FA0165E086E10E94EB008DE291E00AC06C
:1006B00061E087E00E94810565E086E10E94EB0031
:1006C00087E391E00E941F0280911F059091200511
:1006D00020911D0530911E058217930709F4A1C0D2
:1006E00020911B0530911C052817390724F490939D
:1006F0001C0580931B052091040130910501821790
:10070000930724F490930501809304014AE050E09C
:1007100061E275E00E94080960E084E40E94EB0059
:1007200081E295E00E941F024AE050E061E275E03C
:1007300080911B0590911C050E94080961E084E4EA
:100740000E94EB0081E295E00E941F024AE050E027
:1007500061E275E080910401909105010E94080911
:1007600062E084E40E94EB0081E295E00E941F02B7
:10077000C701B6010E9405072AE041E255E00E9448
:100780001E0963E08CE30E94EB0081E295E00E9489
:100790001F0260911D0570911E05882777FD8095C9
:1007A000982F1F921F921F92C3E0CF93E6E2AE2EC6
:1007B000B12CC12CD12C16E4E12EF12C00E010E07C
:1007C00020E030E0A9010E94F005262F00E049E07A
:1007D00066E289E00E94970160911F0570912005F3
:1007E000882777FD8095982F1F921F921F92CF9395
:1007F00016E4E12EF12C00E010E020E030E0A90149
:100800000E94F005262F01E049E066E289E00E949F
:1008100097018DB79EB708960FB6F8949EBF0FBE8E
:100820008DBF80911F059091200590931E058093A8
:100830001D0568EE73E080E090E0CF911F910F916D
:10084000FF90EF90DF90CF90BF90AF900C94950405
:100850001F920F920FB60F9211242F933F938F93F5
:100860009F93AF93BF938091320590913305A091F0
:100870003405B09135053091310523E0230F2D3734
:1008800020F40196A11DB11D05C026E8230F029694
:10089000A11DB11D2093310580933205909333053E
:1008A000A0933405B09335058091360590913705B6
:1008B000A0913805B09139050196A11DB11D809315
:1008C000360590933705A0933805B0933905BF914D
:1008D000AF919F918F913F912F910F900FBE0F90ED
:1008E0001F9018953FB7F894809136059091370581
:1008F000A0913805B091390526B5A89B05C02F3FBA
:1009000019F00196A11DB11D3FBF6627782F892FD1
:100910009A2F620F711D811D911D42E0660F771F96
:10092000881F991F4A95D1F70895CF92DF92EF92D1
:10093000FF92CF93DF936B017C010E947204EB0165
:10094000C114D104E104F10489F00E9437060E9429
:1009500072046C1B7D0B683E734090F381E0C81AF3
:10096000D108E108F108C851DC4FEACFDF91CF91FF
:10097000FF90EF90DF90CF900895019739F0880FA6
:10098000991F880F991F02970197F1F7089578949E
:1009900084B5826084BD84B5816084BD85B5826084
:1009A00085BD85B5816085BDEEE6F0E08081816022
:1009B0008083E1E8F0E01082808182608083808122
:1009C00081608083E0E8F0E0808181608083E1EBFA
:1009D000F0E0808184608083E0EBF0E080818160E2
:1009E0008083EAE7F0E08081846080838081826098
:1009F0008083808181608083808180688083109281
:100A0000C10008958E3008F08E5087702091060145
:100A100090E4299F90011124822B80937C00809187
:100A20007A00806480937A0080917A0086FDFCCF02
:100A3000809178002091790090E0922B0895833086
:100A400081F028F4813099F08230A1F00895873048
:100A5000A9F08830B9F08430D1F4809180008F7D86
:100A600003C0809180008F7780938000089584B5C3
:100A70008F7702C084B58F7D84BD08958091B000CA
:100A80008F7703C08091B0008F7D8093B000089570
:100A9000CF93DF9390E0FC01EA52FF4F2491FC01D9
:100AA000E651FF4F8491882349F190E0880F991F08
:100AB000FC01EE5EFE4FA591B491885F9E4FFC0154
:100AC000C591D4919FB7611108C0F8948C9120957D
:100AD00082238C93888182230AC0623051F4F89477
:100AE0008C91322F309583238C938881822B88833D
:100AF00004C0F8948C91822B8C939FBFDF91CF918F
:100B000008950F931F93CF93DF931F92CDB7DEB756
:100B1000282F30E0F901EE53FF4F8491F901EA529A
:100B2000FF4F1491F901E651FF4F04910023C9F0E2
:100B3000882321F069830E941F056981E02FF0E07E
:100B4000EE0FFF1FE85FFE4FA591B4919FB7F89499
:100B50008C91611103C01095812301C0812B8C936E
:100B60009FBF0F90DF91CF911F910F910895CF9369
:100B7000DF93282F30E0F901EE53FF4F8491F90104
:100B8000EA52FF4FD491F901E651FF4FC491CC23B3
:100B900091F081110E941F05EC2FF0E0EE0FFF1F76
:100BA000E250FF4FA591B4912C912D2381E090E06C
:100BB00021F480E002C080E090E0DF91CF910895C1
:100BC00008950E94C7040E94E0050E94CF02C0E081
:100BD000D0E00E94DD022097E1F30E940000F9CFEF
:100BE0004F925F926F927F92AF92BF92CF92DF92BD
:100BF000EF92FF920F931F93CF93DF93CDB7DEB7A2
:100C000029013A01621B730B840B950B29893A89E0
:100C10004B895C892A193B094C095D09298B3A8B60
:100C20004B8B5C8B9B01AC0169897A898B899C8990
:100C30000E949D08E418F50806091709A801970104
:100C40000E94AD082A0D3B1D4C1D5D1DCA01B90156
:100C5000DF91CF911F910F91FF90EF90DF90CF9098
:100C6000BF90AF907F906F905F904F9008950895E0
:100C70005058BB27AA270ED04DC13ED130F043D1EA
:100C800020F031F49F3F11F41EF433C10EF4E095CF
:100C9000E7FB29C1E92F4FD180F3BA176207730729
:100CA0008407950718F071F49EF567C10EF4E0957E
:100CB0000B2EBA2FA02D0B01B90190010C01CA0116
:100CC000A0011124FF27591B99F0593F50F4503EC1
:100CD00068F11A16F040A22F232F342F4427585FB3
:100CE000F3CF469537952795A795F0405395C9F7CB
:100CF0007EF41F16BA0B620B730B840BBAF0915083
:100D0000A1F0FF0FBB1F661F771F881FC2F70EC021
:100D1000BA0F621F731F841F48F4879577956795F4
:100D2000B795F7959E3F08F0B3CF9395880F08F0DD
:100D30009927EE0F9795879508950CD0EBC0E3D0D7
:100D400040F0DAD030F021F45F3F19F0CCC05111FF
:100D500015C1CFC0F0D098F39923C9F35523B1F34F
:100D6000951B550BBB27AA2762177307840738F01A
:100D70009F5F5F4F220F331F441FAA1FA9F333D079
:100D80000E2E3AF0E0E830D091505040E695001C2D
:100D9000CAF729D0FE2F27D0660F771F881FBB1FE9
:100DA000261737074807AB07B0E809F0BB0B802DC3
:100DB000BF01FF2793585F4F2AF09E3F510568F00F
:100DC00092C0DCC05F3FECF3983EDCF386957795EC
:100DD0006795B795F7959F5FC9F7880F911D969511
:100DE000879597F90895E1E0660F771F881FBB1F6D
:100DF000621773078407BA0720F0621B730B840B1A
:100E0000BA0BEE1F88F7E095089504D06894B111ED
:100E1000B5C0089598D088F09F5790F0B92F9927C2
:100E2000B751A0F0D1F0660F771F881F991F1AF0F5
:100E3000BA95C9F712C0B13081F09FD0B1E00895E2
:100E40009CC0672F782F8827B85F39F0B93FCCF363
:100E5000869577956795B395D9F73EF490958095EB
:100E6000709561957F4F8F4F9F4F0895E89409C00B
:100E700097FB3EF490958095709561957F4F8F4FCD
:100E80009F4F9923A9F0F92F96E9BB279395F695E3
:100E9000879577956795B795F111F8CFFAF4BB0F61
:100EA00011F460FF1BC06F5F7F4F8F4F9F4F16C0C5
:100EB000882311F096E911C0772321F09EE8872F4F
:100EC000762F05C0662371F096E8862F70E060E00B
:100ED0002AF09A95660F771F881FDAF7880F969584
:100EE000879597F9089597F99F6780E870E060E02B
:100EF00008959FEF80EC089500240A9416161706B3
:100F000018060906089500240A94121613061406FA
:100F100005060895092E0394000C11F4882352F05D
:100F2000BB0F40F4BF2B11F460FF04C06F5F7F4F15
:100F30008F4F9F4F089557FD9058440F551F59F0FC
:100F40005F3F71F04795880F97FB991F61F09F3FB6
:100F500079F087950895121613061406551FF2CFDF
:100F60004695F1DF08C0161617061806991FF1CF2F
:100F700086957105610508940895E894BB27662756
:100F80007727CB0197F908950EF0A4C0B2CF6894EB
:100F9000AACFD9DFC8F39923D1F3C6F3DF93CF9358
:100FA0001F930F93FF92C92FDD2788232AF02197E3
:100FB000660F771F881FDAF720E030E040E85FEB2C
:100FC0009FE3883920F0803E30F021968F7751DE04
:100FD000E8E6F0E003C04DDEE5E9F0E089D08B0102
:100FE000BE01EC01FB2E6F5771097595771F880BB9
:100FF000990B3EDF28E132E741E35FE314D0AF2DE8
:101000009801AE01FF900F911F91CF91DF9142DEC9
:1010100081CF72DF28F077DF18F0952309F063CFD6
:1010200068CF1124ABCF87DFA0F3959FD1F3950F45
:1010300050E0551F629FF001729FBB27F00DB11D5C
:10104000639FAA27F00DB11DAA1F649F6627B00DEC
:10105000A11D661F829F2227B00DA11D621F739FD5
:10106000B00DA11D621F839FA00D611D221F749FE3
:101070003327A00D611D231F849F600D211D822F2A
:10108000762F6A2F11249F5750408AF0E1F0882371
:101090004AF0EE0FFF1FBB1F661F771F881F91507E
:1010A0005040A9F79E3F510570F01DCF67CF5F3FBD
:1010B000ECF3983EDCF3869577956795B795F795B1
:1010C000E7959F5FC1F7FE2B880F911D9695879539
:1010D00097F908959F3F31F0915020F487957795C7
:1010E0006795B795880F911D9695879597F90895FF
:1010F000DF93CF931F930F93FF92EF92DF927B01C9
:101100008C01689405C0DA2EEF018DDFFE01E894B2
:10111000A5912591359145915591AEF3EF01BADD39
:10112000FE019701A801DA9479F7DF90EF90FF9024
:101130000F911F91CF91DF910895DB018F939F93C2
:101140000E94CC08BF91AF91A29F800D911DA39FDB
:10115000900DB29F900D11240895052E97FB1EF45B
:1011600000940E94C40857FD07D00E94D70807FCCE
:1011700003D04EF40C94C4085095409530952195B9
:101180003F4F4F4F5F4F08959095809570956195B3
:101190007F4F8F4F9F4F08950E94F908A59F900D94
:1011A000B49F900DA49F800D911D11240895A1E27C
:1011B0001A2EAA1BBB1BFD010DC0AA1FBB1FEE1FD1
:1011C000FF1FA217B307E407F50720F0A21BB30B1C
:1011D000E40BF50B661F771F881F991F1A9469F798
:1011E00060957095809590959B01AC01BD01CF01F4
:1011F0000895A29FB001B39FC001A39F700D811DF0
:101200001124911DB29F700D811D1124911D08950F
:101210004532510520F4423010F00C941309FB01C3
:101220001082CB010895BB274A3031F4992322F470
:10123000BDE2909581959F4F0C945009BB272A30B1
:1012400051F4992342F4BDE2909580957095619593
:101250007F4F8F4F9F4F0C942E09BB27FA01A62F6B
:101260006217710581059105330B30FB66F0AA27E3
:10127000660F771F881F991FAA1FA21710F0A21BC5
:1012800063953850A9F7A05DAA3308F0A95DA19332
:1012900036F7B111B1931082CA010C946909BB27CA
:1012A000FB015527AA27880F991FAA1FA41710F022
:1012B000A41B83955051B9F7A05DAA3308F0A95D2E
:1012C000A193009779F7B111B1931192CB010C94CE
:1012D0006909DC01FC01672F71917723E1F73297EF
:1012E00004C07C916D9370836291AE17BF07C8F301
:0612F0000895F894FFCF01
:1012F6000100000046000154206176672F27433A1B
:101306000054206D61782F27433A0054206D696E92
:101316002F27433A00522F6F686D733A004E6F20A5
:10132600416C61726D2E002020416C61726D21202E
:1013360000000000000000005F000000070007003A
:10134600147F147F14242A7F2A122313086462361A
:10135600495522500005030000001C2241000041AF
:10136600221C0014083E081408083E0808005030E5
:101376000000080808080800606000002010080443
:10138600023E5149453E00427F4000426151494676
:101396002141454B311814127F1027454545393CEC
:1013A6004A49493001710905033649494936064912
:1013B60049291E0036360000005636000008142261
:1013C6004100141414141400412214080201510996
:1013D60006324979413E7E1111117E7F49494936CF
:1013E6003E414141227F4141221C7F494949417F7B
:1013F600090909013E4149497A7F0808087F0041E9
:101406007F41002040413F017F081422417F404038
:1014160040407F020C027F7F0408107F3E4141411D
:101426003E7F090909063E4151215E7F0919294679
:10143600464949493101017F01013F4040403F1F74
:101446002040201F3F4038403F63140814630708BC
:101456007008076151494543007F41410002040875
:1014660010200041417F0004020102044040404038
:1014760040000102040020545454787F4844443804
:101486003844444420384444487F38545454180857
:101496007E0901020C5252523E7F08040478004431
:1014A6007D40002040443D007F1028440000417FDD
:1014B60040007C041804787C0804047838444444CA
:1014C600387C14141408081414187C7C08040408C6
:1014D6004854545420043F4440203C4040207C1C47
:1014E6002040201C3C4030403C44281028440C50EE
:1014F60050503C4464544C44000836410000007F80
:1015060000000041360800100808100878464146D9
:0215160078005B
:00000001FF
