:100000000C945D000C9485000C9485000C94850084
:100010000C9485000C9485000C9485000C9485004C
:100020000C9485000C9485000C9485000C9485003C
:100030000C9485000C9485000C9485000C9485002C
:100040000C94B4020C9485000C9485000C948500EB
:100050000C9485000C9485000C9485000C9485000C
:100060000C9485000C94850000000008000201003B
:100070000003040700000000000000000102040863
:100080001020408001020408102001020408102002
:10009000040404040404040402020202020203032E
:1000A0000303030300000000250028002B000000CC
:1000B0000000240027002A00270111241FBECFEFD3
:1000C000D8E0DEBFCDBF11E0A0E0B1E0E6E6FAE0A7
:1000D00002C005900D92A232B107D9F721E0A2E249
:1000E000B1E001C01D92AC36B207E1F710E0CAEBF7
:1000F000D0E004C02297FE010E942D05C83BD10725
:10010000C9F70E94F9040C9431050C94000080E1B9
:10011000EBE2F1E0DF011D928A95E9F720E042E091
:1001200060E18BE491E00C94F001CF93DF93C091F8
:100130002A01D0E0CC0FDD1FC55DDE4F288139815B
:100140008091220190912301A0912401B091250179
:10015000821B930BA109B109809322019093230183
:10016000A0932401B09325018FE00E94A1039983FD
:10017000888340912A01E42FF0E0EE0FFF1FE55D38
:10018000FE4F208131818091220190912301A09125
:100190002401B0912501820F931FA11DB11D8093F1
:1001A000220190932301A0932401B093250121E023
:1001B000240F203128F420932A01DF91CF91089554
:1001C00010922A0124E0B695A795979587952A95D0
:1001D000D1F79093290180932801880F991F90935C
:1001E0002701809326018BE491E00E94CF0140E03B
:1001F00061E08BE491E00E94D60161E071E08BE464
:1002000091E00E94940441E060E08BE491E00E9460
:10021000D60160E171E08BE491E00E94940441E03A
:100220006BE08BE491E00E94D60160912601709111
:1002300027014AE050E08BE491E00E94F20468E577
:1002400072E080E090E0DF91CF910C942103CF9297
:10025000EF920F9367E0C62E76E0E72E05E024E0EC
:1002600049E068E08BE491E00E948E020F91EF90EC
:10027000CF900895CF93DF93EC0160E08E810E94D0
:10028000200481E090E00E945B0361E08E810E9487
:10029000200481E090E00E945B0360E08E810E9478
:1002A000200484E690E0DF91CF910C945B03EF9201
:1002B000FF920F931F93CF93DF938C01C0E0D0E0A8
:1002C000E62EF12CB7010C2E02C0759567950A94A5
:1002D000E2F76170F801EC0FFD1F87810E94200496
:1002E0002196C430D10571F7C801DF91CF911F91DC
:1002F0000F91FF90EF900C943A01EF92FF920F93C1
:100300001F93CF93DF938C01C0E0D0E0E62EF12C59
:10031000B7010C2E02C0759567950A94E2F76170DB
:10032000F801EC0FFD1F87810E9420042196C83040
:10033000D10571F7C801DF91CF911F910F91FF9007
:10034000EF900C943A011F93CF93DF93EC01162F9B
:10035000642F8C810E9420048D818F3F19F060E012
:100360000E9420048F85612F84FF06C0CE01DF919B
:10037000CF911F910C947D0170E084E07595679595
:100380008A95E1F7CE010E945701612FCE01DF91DE
:10039000CF911F910C94570140E00C94A30161E0B0
:1003A0000E94CC0180ED97E00C945B03443008F090
:1003B00043E0FC012389421710F04FEF420FFC018C
:1003C000E40FF11D2489260F2068622F0C94CC01C4
:1003D000FC016089262F2460208B6C600C94CC017A
:1003E0000F931F93CF93DF93EC01423018F08F856A
:1003F00088608F874B8B1C8A80E48D8B6E8B70E0BE
:10040000605C7F4F6F8B222329F0413019F48F8578
:1004100084608F8761E08C810E94E7038D818F3F2C
:1004200019F061E00E94E70361E08E810E94E7031A
:1004300000E010E08F8584FF03C088E090E002C0F8
:1004400084E090E00817190754F4FE01E00FF11F53
:1004500061E087810E94E7030F5F1F4FEBCF80E5CC
:1004600093EC0E945B0360E08C810E94200460E0BA
:100470008E810E9420048D818F3F19F060E00E94E0
:1004800020046F8564FD1DC063E0CE010E9457010A
:1004900084E991E10E945B0363E0CE010E94570171
:1004A00084E991E10E945B0363E0CE010E94570161
:1004B00086E990E00E945B0362E0CE010E94570152
:1004C00016C06062CE010E94CC0184E991E10E94D5
:1004D0005B036F856062CE010E94CC0186E990E0EB
:1004E0000E945B036F856062CE010E94CC016F8524
:1004F0006062CE010E94CC0184E0888BCE010E9414
:10050000E801CE010E94CF0182E0898B66E0CE0136
:10051000DF91CF911F910F910C94CC01CF92EF926C
:100520000F93FC01138212828EE191E0918380830C
:1005300064838FEF8583468327830087E186C286A5
:100540001386148615861686178620E041E060E142
:10055000CF010F91EF90CF900C94F00141E00E94F9
:10056000A30181E090E008951F920F920FB60F92C1
:1005700011242F933F938F939F93AF93BF938091B9
:10058000640190916501A0916601B091670130917D
:10059000630123E0230F2D3720F40196A11DB11D27
:1005A00005C026E8230F0296A11DB11D209363010B
:1005B0008093640190936501A0936601B0936701F5
:1005C0008091680190916901A0916A01B0916B01DD
:1005D0000196A11DB11D8093680190936901A093BC
:1005E0006A01B0936B01BF91AF919F918F913F9141
:1005F0002F910F900FBE0F901F9018953FB7F89452
:100600008091680190916901A0916A01B0916B019C
:1006100026B5A89B05C02F3F19F00196A11DB11D5D
:100620003FBF6627782F892F9A2F620F711D811D7A
:10063000911D42E0660F771F881F991F4A95D1F7D9
:1006400008958F929F92AF92BF92CF92DF92EF92D6
:10065000FF926B017C010E94FE024B015C01C11400
:10066000D104E104F104F1F00E9408050E94FE02A9
:10067000681979098A099B09683E734081059105CB
:1006800070F321E0C21AD108E108F10888EE880E63
:1006900083E0981EA11CB11CC114D104E104F10433
:1006A00029F7DDCFFF90EF90DF90CF90BF90AF9014
:1006B0009F908F9008958230910538F0880F991F90
:1006C000880F991F05970197F1F70895789484B5DD
:1006D000826084BD84B5816084BD85B5826085BD3E
:1006E00085B5816085BDEEE6F0E080818160808324
:1006F000E1E8F0E010828081826080838081816007
:100700008083E0E8F0E0808181608083E1EBF0E0CD
:10071000808184608083E0EBF0E080818160808371
:10072000EAE7F0E08081846080838081826080835A
:100730008081816080838081806880831092C10085
:1007400008958E3008F08E5087702091000190E45B
:10075000299F90011124822B80937C0080917A0044
:10076000806480937A0080917A0086FDFCCF80912E
:1007700078002091790090E0922B0895833081F0E9
:1007800028F4813099F08230A1F008958730A9F0E3
:100790008830B9F08430D1F4809180008F7D03C01F
:1007A000809180008F7780938000089584B58F7743
:1007B00002C084B58F7D84BD08958091B0008F778D
:1007C00003C08091B0008F7D8093B0000895CF93D7
:1007D000DF9390E0FC01E458FF4F2491FC01E057C7
:1007E000FF4F8491882349F190E0880F991FFC0105
:1007F000E255FF4FA591B4918C559F4FFC01C591D7
:10080000D4919FB7611108C0F8948C9120958223F0
:100810008C93888182230AC0623051F4F8948C91C1
:10082000322F309583238C938881822B888304C058
:10083000F8948C91822B8C939FBFDF91CF91089578
:100840000F931F93CF93DF931F92CDB7DEB7282F5F
:1008500030E0F901E859FF4F8491F901E458FF4F66
:100860001491F901E057FF4F04910023C9F0882348
:1008700021F069830E94BE036981E02FF0E0EE0F52
:10088000FF1FEC55FF4FA591B4919FB7F8948C9141
:10089000611103C01095812301C0812B8C939FBFF0
:1008A0000F90DF91CF911F910F910895CF92DF921A
:1008B000EF92FF920F931F93CF93DF937C016A0116
:1008C000EB0100E010E00C151D0571F06991D701F6
:1008D000ED91FC910190F081E02DC7010995892BE4
:1008E00019F00F5F1F4FEFCFC801DF91CF911F911C
:1008F0000F91FF90EF90DF90CF90089561157105F3
:1009000081F0DB010D900020E9F7AD014150510964
:10091000461B570BDC01ED91FC910280F381E02D29
:10092000099480E090E008950C947E048F929F9249
:10093000AF92BF92DF92EF92FF920F931F93CF93EC
:10094000DF93CDB7DEB7A1970FB6F894DEBF0FBE29
:10095000CDBF7C01F42FD52ECB0119A2223008F493
:100960002AE08E010F5D1F4F822E912CA12CB12CFD
:100970006F2F7D2DA50194010E940905F22FD32E22
:10098000CA01015011096A3014F4E0E301C0E7E341
:10099000E60FD801EC93232B242B252B49F7B80124
:1009A000C7010E947E04A1960FB6F894DEBF0FBE69
:1009B000CDBFDF91CF911F910F91FF90EF90DF900E
:1009C000BF90AF909F908F9008952115310541F40D
:1009D000DC01ED91FC910190F081E02D642F0994F0
:1009E0000C9496049A01AB0160E070E00C94E5046D
:1009F00008950E9466030E94F8040E948700C0E0E8
:100A0000D0E00E9495002097E1F30E940000F9CF0A
:100A10000895A1E21A2EAA1BBB1BFD010DC0AA1F3F
:100A2000BB1FEE1FFF1FA217B307E407F50720F057
:100A3000A21BB30BE40BF50B661F771F881F991FD2
:100A40001A9469F760957095809590959B01AC011B
:100A5000BD01CF010895EE0FFF1F0590F491E02D29
:060A60000994F894FFCF99
:100A66000141726475204C7578204D65746572007D
:100A76004C75782056616C75650000000000AE026A
:020A8600560414
:00000001FF
