:100000000C9462000C948A000C948A000C948A0070
:100010000C948A000C948A000C948A000C948A0038
:100020000C948A000C948A000C948A000C948A0028
:100030000C948A000C948A000C948A000C948A0018
:100040000C9495030C948A000C948A000C948A00FA
:100050000C948A000C948A000C948A000C948A00F8
:100060000C948A000C948A000000000024002700F1
:100070002A0000000000250028002B0000000000DE
:1000800023002600290004040404040404040202DA
:100090000202020203030303030301020408102007
:1000A0004080010204081020010204081020000012
:1000B0000007000201000003040600000000000029
:1000C00000008C0011241FBECFEFD8E0DEBFCDBFF3
:1000D00011E0A0E0B1E0E8EAFCE002C005900D927A
:1000E000AE32B107D9F711E0AEE2B1E001C01D9226
:1000F000A035B107E1F710E0C4ECD0E004C02297CE
:10010000FE010E944E06C23CD107C9F70E942F058E
:100110000C9452060C940000CF92EF920F938EE253
:1001200091E068E049E024E005E056E0E52E37E0A4
:10013000C32E0E945C030F91EF90CF9008958FE043
:100140000E946E049C018B30910528F410924601A8
:100150001092450158C00B97849718F481E090E005
:100160004EC0C9018F97439718F482E090E047C0D2
:10017000C90182549040429718F483E090E03FC058
:10018000C90184559040449718F484E090E037C04A
:10019000C90188569040459718F485E090E02FC03B
:1001A000C9018D579040429718F486E090E027C02F
:1001B000C9018F589040459718F487E090E01FC020
:1001C000C901845A9040419718F488E090E017C024
:1001D000C901855B9040449728F0C901895C904033
:1001E000459718F489E090E00AC02E5D3040223136
:1001F000310518F48AE090E002C08BE090E0909323
:100200004601809345018EE291E06CE040E00E945F
:100210006F028EE291E060E071E00E94080660915A
:100220004501709146018EE291E04AE050E00E9463
:10023000F70584E00EC08EE291E041E00E946F027B
:100240008EE291E0609144010E943302809143016B
:100250008F5F80934301609143014091450150912C
:100260004601262F30E0CA0104968217930718F73B
:10027000842F8B5F0EC08EE291E041E00E946F02FE
:100280008EE291E063E071E00E94080680914301F4
:100290008F5F8093430160914301603160F364E6B6
:1002A00070E080E090E00E94030408950F931F9394
:1002B0000EE211E0C80160E142E020E00E94A602E7
:1002C000C80160E045E151E00E943D02C80162E0E2
:1002D00040E00E946F02C80165E071E00E940806DC
:1002E000C80160E041E00E946F02C80160E171E076
:1002F0000E9408061F910F9108950F931F938C0180
:10030000FC01868160E00E94FC0481E090E00E9494
:100310002904F801868161E00E94FC0481E090E0FC
:100320000E942904F801868160E00E94FC0484E6B2
:1003300090E00E9429041F910F910895CF92DF92BF
:10034000EF92FF920F931F93CF93DF93D82EC92E76
:10035000282F392FC9018C01C0E0D0E0E62EFF2400
:10036000F801878161E00E949004B7010C2E02C061
:10037000759567950A94E2F76170F80187810E948C
:10038000FC0421960F5F1F4FC830D10549F78D2D12
:100390009C2D0E947D01DF91CF911F910F91FF90C5
:1003A000EF90DF90CF900895CF92DF92EF92FF927F
:1003B0000F931F93CF93DF93D82EC92E282F392F59
:1003C000C9018C01C0E0D0E0E62EFF24F80187814E
:1003D00061E00E949004B7010C2E02C075956795EC
:1003E0000A94E2F76170F80187810E94FC0421966B
:1003F0000F5F1F4FC430D10549F78D2D9C2D0E94F2
:100400007D01DF91CF911F910F91FF90EF90DF90D1
:10041000CF9008951F93CF93DF93EC01162F8C811B
:10042000642F0E94FC048D818F3F19F060E00E94D0
:10043000FC048F8584FF05C0CE01612F0E949E01C0
:100440000EC0612F70E084E0759567958A95E1F79D
:10045000CE010E94D401CE01612F0E94D401DF9110
:10046000CF911F91089541E00E940A0281E090E03F
:10047000089540E00E940A020895EF92FF920F93C0
:100480001F93CF93DF938C017A016770660F660F1D
:10049000660F60640E943902C0E0D0E0D801ED919F
:1004A000FC91D701AC0FBD1F0190F081E02DC80178
:1004B0006C9109952196C830D10581F7DF91CF91D4
:1004C0001F910F91FF90EF900895FC016089862F96
:1004D0008460808B6C60CF010E9439020895DF93A5
:1004E000CF93CDB7DEB728970FB6F894DEBF0FBE17
:1004F000CDBF9C01FE013196A6E2B1E088E00D90EF
:1005000001928150E1F7F9018389481710F0482FD3
:100510004150E42FF0E0EE0FFF1FEC0FFD1F818133
:10052000680F6068C9010E94390228960FB6F894D6
:10053000DEBF0FBECDBFCF91DF91089561E00E9475
:10054000390280ED97E00E9429040895CF93DF934C
:10055000EC01423018F08F8588608F874B8B1C8AA6
:10056000222329F0413019F48F8584608F8780E53C
:1005700093EC0E9429048C8160E00E94FC048E812F
:1005800060E00E94FC048D818F3F19F060E00E94C2
:10059000FC046F8564FD1DC0CE0163E00E94D401A0
:1005A00084E991E10E942904CE0163E00E94D40114
:1005B00084E991E10E942904CE0163E00E94D40104
:1005C00086E990E00E942904CE0162E00E94D401F5
:1005D00016C06062CE010E94390284E991E10E9456
:1005E00029046F856062CE010E94390286E990E09D
:1005F0000E9429046F856062CE010E9439026F85D6
:100600006062CE010E94390284E0888BCE010E9494
:100610006502CE010E949E0282E0898BCE0166E0D7
:100620000E943902DF91CF9108956F927F928F924D
:10063000AF92CF92EF920F931F93DF93CF93CDB7EB
:10064000DEB73C01162F842FF301448325830683F4
:10065000E782C086A18682869D8593879E85948742
:100660009F8595879889968761E00E949004F301A1
:1006700085818F3F19F061E00E949004F30186812B
:1006800061E00E949004112319F0F301178603C062
:1006900080E1F3018787C30160E141E020E00E942F
:1006A000A602CF91DF911F910F91EF90CF90AF9065
:1006B0008F907F906F9008958F92AF92CF92EF922C
:1006C0000F931F93CF93DF93DC01362F542F722F9C
:1006D000102FAE2C8C2C13961C921E92129782E235
:1006E00091E011969C938E9300D000D0EDB7FEB7A9
:1006F0003196CDB7DEB71982118212821382CD01F5
:1007000061E0432F2FEF052FE72EC12E0E94150326
:100710000F900F900F900F90DF91CF911F910F913D
:10072000EF90CF90AF908F9008951F920F920FB6D9
:100730000F9211242F933F938F939F93AF93BF9367
:1007400080914B0190914C01A0914D01B0914E01CF
:1007500030914F010196A11DB11D232F2D5F2D3723
:1007600020F02D570196A11DB11D20934F018093BC
:100770004B0190934C01A0934D01B0934E01809199
:10078000470190914801A0914901B0914A01019619
:10079000A11DB11D8093470190934801A093490189
:1007A000B0934A01BF91AF919F918F913F912F914B
:1007B0000F900FBE0F901F9018959FB7F89420913F
:1007C0004701309148014091490150914A0186B555
:1007D000A89B06C08F3F21F02F5F3F4F4F4F5F4FC9
:1007E0009FBF542F432F322F2227280F311D411D29
:1007F000511D82E0220F331F441F551F8A95D1F7E8
:10080000B901CA010895EF92FF920F931F93CF93FE
:10081000DF937B018C010E94DD03EB010EC00E947F
:10082000DD036C1B7D0B685E7340C8F30894E10820
:10083000F10801091109C851DC4FE114F104010567
:10084000110569F7DF91CF911F910F91FF90EF9004
:100850000895019739F0880F991F880F991F029703
:100860000197F1F70895789484B5826084BD84B5CA
:10087000816084BD85B5826085BD85B5816085BD9B
:10088000EEE6F0E0808181608083E1E8F0E01082B4
:10089000808182608083808181608083E0E8F0E0F5
:1008A000808181608083E1EBF0E0808184608083DF
:1008B000E0EBF0E0808181608083EAE7F0E0808116
:1008C0008460808380818260808380818160808376
:1008D0008081806880831092C1000895982F8E30A7
:1008E00008F09E50977080911D018295880F880FA7
:1008F000807C892B80937C0080917A008064809337
:100900007A0080917A0086FDFCCF2091780040919A
:100910007900942F80E030E0282B392BC90108950D
:10092000CF93DF93482F50E0CA0186569F4FFC01BA
:1009300034914A575F4FFA018491882369F190E01E
:10094000880F991FFC01E859FF4FA591B491FC0154
:10095000EE58FF4FC591D491662351F42FB7F89408
:100960008C91932F909589238C93888189230BC038
:10097000623061F42FB7F8948C91932F909589236E
:100980008C938881832B88832FBF06C09FB7F894F0
:100990008C91832B8C939FBFDF91CF9108958330EF
:1009A00071F0843028F48130A1F0823021F514C038
:1009B0008630B1F08730D1F08430E9F404C0809102
:1009C00080008F7703C0809180008F7D80938000AE
:1009D000089584B58F7702C084B58F7D84BD089556
:1009E0008091B0008F778093B00008958091B0001F
:1009F0008F7D8093B0000895FF920F931F93F62E82
:100A0000482F50E0CA0182559F4FFC012491CA0132
:100A100086569F4FFC0114914A575F4FFA0104918B
:100A20000023C9F0222319F0822F0E94CF04E02F67
:100A3000F0E0EE0FFF1FEE58FF4FA591B4919FB766
:100A4000F894FF2021F48C911095812302C08C91A1
:100A5000812B8C939FBF1F910F91FF900895CF938F
:100A6000DF930E9433040E945601C0E0D0E00E9450
:100A70009F002097E1F30E940000F9CFCF92DF9210
:100A8000EF92FF920F931F93CF93DF937C016B0143
:100A90008A01C0E0D0E00FC0D6016D916D01D70191
:100AA000ED91FC910190F081E02DC7010995C80FEF
:100AB000D91F015010400115110571F7CE01DF91CA
:100AC000CF911F910F91FF90EF90DF90CF900895FD
:100AD000CF93DF93EC016115710519F420E030E04C
:100AE0000FC0DB010D900020E9F71197A61BB70B93
:100AF000E881F9810280F381E02DAD0109959C0127
:100B0000C901DF91CF9108954F925F927F928F92AA
:100B10009F92AF92BF92CF92DF92EF92FF920F938C
:100B20001F93DF93CF93CDB7DEB7A1970FB6F8949D
:100B3000DEBF0FBECDBF2C01742ECB01223008F4D6
:100B40002AE019A231E2C32ED12CCC0EDD1E822E5A
:100B50009924AA24BB24672D752FA50194010E9416
:100B60002A0679018A01C801B701A50194010E94F2
:100B70000B06472D461B0894C108D1084A3014F4CF
:100B8000405D01C0495CF6014083E114F1040105B8
:100B9000110521F07E2C5F2DC801DDCFC201B60109
:100BA0000E946805A1960FB6F894DEBF0FBECDBFB8
:100BB000CF91DF911F910F91FF90EF90DF90CF9039
:100BC000BF90AF909F908F907F905F904F900895CF
:100BD000DC012115310541F4ED91FC910190F0818A
:100BE000E02D642F099508950E9484050895EF92E1
:100BF000FF920F931F939A017B0100E010E0B80170
:100C0000A7010E94E8051F910F91FF90EF900895B2
:100C10000E9468050895629FD001739FF001829F32
:100C2000E00DF11D649FE00DF11D929FF00D839F7B
:100C3000F00D749FF00D659FF00D9927729FB00D18
:100C4000E11DF91F639FB00DE11DF91FBD01CF012B
:100C500011240895A1E21A2EAA1BBB1BFD010DC091
:100C6000AA1FBB1FEE1FFF1FA217B307E407F5075C
:100C700020F0A21BB30BE40BF50B661F771F881F38
:100C8000991F1A9469F760957095809590959B01CE
:100C9000AC01BD01CF010895EE0FFF1F0590F49147
:080CA000E02D0994F894FFCF48
:100CA8002020002000555620496E6465783A2000BF
:100CB8005556492000000E0E0E0E0E0000010000D1
:0E0CC800000033023E050000400014005400FE
:00000001FF
