:100000000C9470000C948D000C948D000C948D0059
:100010000C948D000C948D000C948D000C948D002C
:100020000C948D000C948D000C948D000C948D001C
:100030000C948D000C948D000C948D000C948D000C
:100040000C9487070C948D000C948D000C948D00FB
:100050000C948D000C948D000C948D000C948D00EC
:100060000C948D000C948D0005A84CCDB2D44EB9E3
:100070003836A9020C50B9918688083CA6AAAA2A4B
:10008000BE000000803F00000000240027002A007E
:1000900000000000250028002B00000000002300C5
:1000A00026002900040404040404040402020202D9
:1000B000020203030303030301020408102040802B
:1000C00001020408102001020408102000000007AB
:1000D0000002010000030406000000000000000010
:1000E00011241FBECFEFD8E0DEBFCDBF12E0A0E0ED
:1000F000B1E0E0E1F7E102C005900D92AA3FB1073F
:10010000D9F715E0AAEFB2E001C01D92AB31B107FB
:10011000E1F70E9427090C94860B0C940000FB0168
:100120009F01E8944230C4F04532B4F44A3029F4D7
:1001300097FB1EF4909581959F4F642F77270E941F
:10014000720B805D8A330CF0895D8193CB0100973F
:10015000A1F716F45DE251931082C9010C94B0002E
:10016000DC01FC01672F71917723E1F7329704C01E
:100170007C916D9370836291AE17BF07C8F30895A9
:10018000882319F087E061E002C087E060E00E9408
:10019000D20808950F931F93082F18E082E060E0C3
:1001A0000E94D20807FD03C083E060E002C083E044
:1001B00061E00E94D20882E061E00E94D208115002
:1001C00011F0000FEBCF1F910F9108951F93182F7F
:1001D00084E061E00E94D20885E060E00E94D208DD
:1001E000812F0E94CA0085E061E00E94D2081F9121
:1001F00008950F931F93CF93DF93282F332727FD65
:10020000309520523040E901CC0FDD1FCC0FDD1FAF
:10021000C20FD31FC65EDE4F95E089028001112414
:1002200001581F4F89910E94E600C017D107D1F7EE
:10023000DF91CF911F910F910895CF93DF93EC0140
:1002400003C021960E94F90088818823D1F7DF91AD
:10025000CF9108951F93182F84E060E00E94D20888
:1002600085E060E00E94D208812F0E94CA0085E0EC
:1002700061E00E94D2081F9108951F93182F862FC6
:10028000877080640E942A01812F80680E942A0161
:100290001F9108951F93582F843508F056C067FDAD
:1002A00054C060330CF051C0762F759575957595D7
:1002B000A72FB0E0282F332727FD309584E590E065
:1002C000A89FF001A99FF00DB89FF00D1124E20F37
:1002D000F31FE65EFC4FE081413059F4677081E026
:1002E00090E002C0880F991F6A95E2F71E2F182B25
:1002F00017C06770423051F481E090E002C0880F6F
:10030000991F6A95E2F71E2F18270AC081E090E036
:1003100002C0880F991F6A95E2F7182F10951E23C7
:1003200084E590E0A89FF001A99FF00DB89FF00D23
:100330001124E20FF31FE65EFC4F1083852F672F19
:100340000E943D01812F0E94E6001F9108959F9217
:10035000AF92BF92CF92DF92EF92FF920F931F93D3
:10036000982EA62E142FB22E842F90E0880F991F5E
:10037000909581959F4F63E0C62EC80E6A2D641B31
:10038000892D422F0E944A01D12EEE248E2D90E01D
:10039000C7FE03C026E0C20E05C0DA942AE0C20EF2
:1003A0008D199109880F991F880F991FC80EFE2C6F
:1003B000F90C1A2D1D198F2D612F4B2D0E944A010A
:1003C000092D0E19802F612F4B2D0E944A011D2DE2
:1003D0001A0D8F2D612F4B2D0E944A01802F612F06
:1003E0004B2D0E944A01FD2CF90C1A2D1E198F2D40
:1003F000612F4B2D0E944A01092D0D19802F612F6D
:100400004B2D0E944A011E2D1A0D8F2D612F4B2D51
:100410000E944A01802F612F4B2D0E944A01E394D4
:10042000DE1408F0B3CF1F910F91FF90EF90DF9093
:10043000CF90BF90AF909F9008957F928F929F92A0
:10044000AF92BF92CF92DF92EF92FF920F931F93E2
:10045000CF93DF93E82EF62E742E822E902E922FBD
:10046000961B842F8E1997FD03C0AA24A39403C062
:100470009195AA24AA9487FD03C0BB24B39403C01A
:100480008195BB24BA94082F112707FD1095000F02
:10049000111FC02EC92FDD27C7FDD095CC0FDD1F42
:1004A000DC2E8E2D6F2D492D0E944A01C0179CF421
:1004B000802F85951C2F181B0BC017FD02C0FA0C4E
:1004C0001C19EB0C1D0D8E2D6F2D492D0E944A011C
:1004D000E71499F713C0C02E8C2F8595102F181B89
:1004E0000BC017FD02C0EB0C1D19FA0C1C0D8E2D54
:1004F0006F2D492D0E944A01F81499F7DF91CF9191
:100500001F910F91FF90EF90DF90CF90BF90AF9031
:100510009F908F907F900895CF92DF92EF92FF92FD
:100520000F931F93182FF62EE42ED22E2F2D0E94FC
:100530001D02812F6F2D412F2D2D0E941D02812F15
:100540006D2D4E2D2D2D0E941D028E2D6F2D4E2DA9
:100550002D2D0E941D021F910F91FF90EF90DF90B3
:10056000CF9008950F931F93082F10E0812F602FD5
:100570000E943D0180E091E00E941D011F5F1F323B
:10058000A9F71F910F91089580E00E94B20281E0C7
:100590000E94B20282E00E94B20283E00E94B20294
:1005A00084E00E94B20285E00E94B2020895CF93D7
:1005B000DF9380E060E00E943D01C8EFD1E080E081
:1005C0000E94E6002197D9F7DF91CF9108951F93FC
:1005D00012E0812F61E00E949308812F60E00E9469
:1005E000D2081F5F1830A9F784E061E00E94D208AA
:1005F00085E061E00E94D20886E060E00E94D208B7
:100600006AE070E080E090E00E94DD0786E061E053
:100610000E94D20881E20E942A0182EC0E942A01F3
:1006200083E10E942A0180E20E942A0189E00E945F
:100630002A010E94D70288E00E942A018CE00E94D1
:100640002A011F9108958DE061E00E9493088DE0DA
:1006500060E00E94D2080E94E7020E94C40289E280
:1006600063E142E121E00E94A70189E263E143E105
:1006700021E00E94A7018FE065E00E943D0182E039
:1006800091E00E941D0108958EE00E9471089C0176
:100690008C33910510F484E00895805590408035A6
:1006A000910510F481E00895C9018C5D9040883770
:1006B000910510F480E00895C901885691408A3A66
:1006C000910510F482E0089528553240283C310508
:1006D00010F085E0089583E00895AF92BF92CF9225
:1006E000DF92EF92FF920F931F930E94CF0728EEA5
:1006F00033E040E050E00E94500B2093120330930F
:10070000130340931403509315030E944403853050
:1007100019F081E00E94C0006091120370911303F0
:10072000809114039091150328E230E040E050E0FE
:100730000E94500B611571058105910519F480E047
:100740000E94C000209112033091130340911403C2
:10075000509115038091160390911703A0911803EF
:10076000B091190379018A01E81AF90A0A0B1B0BE7
:10077000D801C7010197A105B105A1F48091180125
:100780008F5F8093180120931603309317034093D3
:100790001803509319038DE061E00E94D20881E0B4
:1007A0008093FB020E944403813021F48093FA027B
:1007B00080930C030E944403823079F58091FA0201
:1007C000882359F587E161E04BE324E200E00E94D1
:1007D0008C0287E160E04BE320E00E941D0287E18C
:1007E00065E24BE325E20E941D0286E161E046E1FD
:1007F00024E20E941D028CE361E04CE324E20E94AB
:100800001D0289E263E142E121E00E94A70189E241
:1008100063E143E121E00E94A7010E944403843088
:1008200079F58091FA02882359F589E263E142E182
:1008300020E00E94A70189E263E143E120E00E94F9
:10084000A70187E161E04BE324E201E00E948C0212
:1008500087E160E04BE320E00E941D0287E165E252
:100860004BE325E20E941D0286E161E046E124E2BD
:100870000E941D028CE361E04CE324E20E941D0211
:100880000E944403843059F48091FA02813039F493
:1008900080910C038F5F80930C0310920D030E94D4
:1008A0004403823059F48091FA02813039F4809106
:1008B0000C03815080930C0310920D030E9444039B
:1008C000833049F48091FA02813029F480910D033C
:1008D0008F5F80930D030E944403882349F4809125
:1008E000FA02813029F480910D03815080930D0329
:1008F00080910C03813099F48CE265E00E943D0107
:100900008BE091E00E941D0160EA70E080E090E0E1
:100910000E94DD0780910D03809318013EC0823054
:1009200099F48EE165E00E943D018BE091E00E9428
:100930001D0160EA70E080E090E00E94DD07809198
:100940000D038093170129C0833099F48FE065E08F
:100950000E943D018BE091E00E941D0160EA70E081
:1009600080E090E00E94DD0780910D0380931601E6
:1009700014C0843091F48AE365E00E943D018BE06D
:1009800091E00E941D0160EA70E080E090E00E942A
:10099000DD0780910D038093110380910C03853056
:1009A00011F0882361F410920C0310920D03109241
:1009B000FA0260E971E080E090E00E94DD0780913A
:1009C00018018C334CF01092180110920D03809195
:1009D00017018F5F809317018091180187FF05C071
:1009E0008BE38093180180930D03809117018C3362
:1009F0004CF01092170110920D03809116018F5F39
:100A0000809316018091170187FF05C08BE38093C7
:100A1000170180930D03809116018D302CF081E039
:100A20008093160180930D0380910E038B30C1F4E7
:100A300080910F038B33A1F4809110038B3381F4E9
:100A4000809116018C3061F480911103813019F48A
:100A50001092110305C0882319F481E080931103DB
:100A60008091160118162CF08CE08093160180936B
:100A70000D0380911801992787FD90956CEF72E026
:100A80004AE050E00E948F00809118018A3054F4AF
:100A90008CE265E00E943D018EE091E00E941D0124
:100AA00081E301C08CE265E00E943D018CEF92E0A1
:100AB0000E941D0180911701992787FD90956CEF89
:100AC00072E04AE050E00E948F00809117018A3066
:100AD00054F48EE165E00E943D018EE091E00E94B9
:100AE0001D0183E201C08EE165E00E943D018CEFB3
:100AF00092E00E941D0180911601992787FD909533
:100B00006CEF72E04AE050E00E948F008091160185
:100B10008A3054F48FE065E00E943D018EE091E060
:100B20000E941D0184E101C08FE065E00E943D014B
:100B30008CEF92E00E941D018AE365E00E943D0176
:100B400080911103813019F480E191E002C083E1CA
:100B500091E00E941D018091110382301CF01092DF
:100B6000110305C087FF03C081E0809311038091CA
:100B7000FB02882309F4BCC160911003772767FD4D
:100B80007095872F972F0E94D30920E537E746ED10
:100B90005DE30E94A10A7B018C01C8010E94040B45
:100BA0005B016C01B701C8010E949D097B018C01AA
:100BB000C601B50120E030E040E651E40E94A10A00
:100BC00020E030E044E252E40E9439090E94A0098A
:100BD0005B016C01C801B70120E030E040E651EC58
:100BE0000E94A10A20E030E048E951E40E9439095E
:100BF0000E94A0098B019C0189E263E14A2D202F0C
:100C000000E00E941D0260911801772767FD709532
:100C1000872F972F0E94D30920E537E746ED5DE344
:100C20000E94A10A7B018C01C8010E94040B5B0198
:100C30006C01B701C8010E949D097B018C01C601AE
:100C4000B50120E030E040E651E40E94A10A20E036
:100C500030E044E252E40E9439090E94A0095B019D
:100C60006C01C801B70120E030E040E651EC0E9481
:100C7000A10A20E030E048E951E40E9439090E94CD
:100C8000A0098B019C0189E263E14A2D202F01E03C
:100C90000E941D0260910F03772767FD7095872FD3
:100CA000972F0E94D30920E537E746ED5DE30E94C8
:100CB000A10A7B018C01C8010E94040B5B016C013D
:100CC000B701C8010E949D097B018C01C601B501D5
:100CD00020E030E040E351E40E94A10A20E030E04F
:100CE00044E252E40E9439090E94A0095B016C01B0
:100CF000C801B70120E030E040E351EC0E94A10AB6
:100D000020E030E048E951E40E9439090E94A0093E
:100D10008B019C0189E263E14A2D202F00E00E94B3
:100D20001D0260911701772767FD7095872F972F18
:100D30000E94D30920E537E746ED5DE30E94A10A52
:100D40007B018C01C8010E94040B5B016C01B7019F
:100D5000C8010E949D097B018C01C601B50120E0FC
:100D600030E040E351E40E94A10A20E030E044E298
:100D700052E40E9439090E94A0095B016C01C8017C
:100D8000B70120E030E040E351EC0E94A10A20E0EE
:100D900030E048E951E40E9439090E94A0098B0122
:100DA0009C0189E263E14A2D202F01E00E941D028F
:100DB00060910E03772767FD7095872F972F0E940C
:100DC000D30922E93AE046E05FE30E94A10A7B01F1
:100DD0008C01C8010E94040B5B016C01B701C801C2
:100DE0000E949D097B018C01C601B50120E030E025
:100DF00040EC50E40E94A10A20E030E044E252E4DA
:100E00000E9439090E94A0095B016C01C801B70169
:100E100020E030E040EC50EC0E94A10A20E030E0FD
:100E200048E951E40E9439090E94A0098B019C0104
:100E300089E263E14A2D202F00E00E941D026091AB
:100E40001601772767FD7095872F972F0E94D3098A
:100E500022E93AE046E05FE30E94A10A7B018C01AF
:100E6000C8010E94040B5B016C01B701C8010E941C
:100E70009D097B018C01C601B50120E030E040EC0A
:100E800050E40E94A10A20E030E044E252E40E94D3
:100E900039090E94A0095B016C01C801B70120E07B
:100EA00030E040EC50EC0E94A10A20E030E048E93C
:100EB00051E40E9439090E94A0098B019C0189E23A
:100EC00063E14A2D202F01E00E941D02809118014C
:100ED000809310038091170180930F038091160176
:100EE00080930E038DE060E00E94D2081092FB0216
:100EF00060EA70E080E090E00E94DD071F910F91B2
:100F0000FF90EF90DF90CF90BF90AF9008951F9229
:100F10000F920FB60F9211242F933F938F939F93AD
:100F2000AF93BF938091160590911705A091180576
:100F3000B091190530911A050196A11DB11D232FFD
:100F40002D5F2D3720F02D570196A11DB11D209347
:100F50001A058093160590931705A0931805B09372
:100F600019058091120590911305A0911405B09177
:100F700015050196A11DB11D8093120590931305CF
:100F8000A0931405B0931505BF91AF919F918F91D8
:100F90003F912F910F900FBE0F901F9018958FB714
:100FA000F89420911605309117054091180550913D
:100FB00019058FBFB901CA0108959B01AC017FB724
:100FC000F8948091120590911305A0911405B091A9
:100FD000150566B5A89B05C06F3F19F00196A11DC8
:100FE000B11D7FBFBA2FA92F982F8827860F911D7B
:100FF000A11DB11D62E0880F991FAA1FBB1F6A9532
:10100000D1F7BC012DC0FFB7F894809112059091E3
:101010001305A0911405B0911505E6B5A89B05C070
:10102000EF3F19F00196A11DB11DFFBFBA2FA92FE7
:10103000982F88278E0F911DA11DB11DE2E0880F0A
:10104000991FAA1FBB1FEA95D1F7861B970B885ED5
:101050009340C8F2215030404040504068517C4F8E
:10106000211531054105510571F60895789484B52F
:10107000826084BD84B5816084BD85B5826085BD94
:1010800085B5816085BDEEE6F0E08081816080837A
:10109000E1E8F0E01082808182608083808181605D
:1010A0008083E0E8F0E0808181608083E1EBF0E024
:1010B000808184608083E0EBF0E0808181608083C8
:1010C000EAE7F0E0808184608083808182608083B1
:1010D0008081816080838081806880831092C100DC
:1010E0000895982F8E3008F09E50977080911901C6
:1010F0008295880F880F807C892B80937C0080915B
:101100007A00806480937A0080917A0086FDFCCF1B
:101110002091780040917900942F80E030E0282BD6
:10112000392BC9010895CF93DF93482F50E0CA01AE
:1011300088549F4FFC0134914C555F4FFA018491C4
:10114000882369F190E0880F991FFC01EA57FF4F4F
:10115000A591B491FC01E057FF4FC591D49166234E
:1011600051F42FB7F8948C91932F909589238C93F9
:10117000888189230BC0623061F42FB7F8948C9179
:10118000932F909589238C938881832B88832FBFFD
:1011900006C09FB7F8948C91832B8C939FBFDF91EF
:1011A000CF910895482F50E0CA0184539F4FFC010E
:1011B0002491CA0188549F4FFC0194914C555F4F74
:1011C000FA013491332309F440C0222351F1233032
:1011D00071F0243028F42130A1F0223011F514C030
:1011E0002630B1F02730C1F02430D9F404C080910A
:1011F00080008F7703C0809180008F7D8093800076
:1012000010C084B58F7702C084B58F7D84BD09C0BE
:101210008091B0008F7703C08091B0008F7D809364
:10122000B000E32FF0E0EE0FFF1FE057FF4FA59156
:10123000B4912FB7F894662321F48C91909589236B
:1012400002C08C91892B8C932FBF08950895CF9362
:10125000DF930E9436080E9426090E942303C0E003
:10126000D0E00E946D032097E1F30E940000F9CFC7
:101270005058BB27AA270ED019C1D9D030F0DED0E4
:1012800020F031F49F3F11F41EF4CEC00EF4E0952F
:10129000E7FBC4C0E92F2CD180F3BA1762077307AC
:1012A0008407950718F071F49EF544C10EF4E0959B
:1012B0000B2EBA2FA02D0B01B90190010C01CA0110
:1012C000A0011124FF27591B99F0593F50F4503EBB
:1012D00068F11A16F040A22F232F342F4427585FAD
:1012E000F3CF469537952795A795F0405395C9F7C5
:1012F0007EF41F16BA0B620B730B840BBAF091507D
:10130000A1F0FF0FBB1F661F771F881FC2F70EC01B
:10131000BA0F621F731F841F48F4879577956795EE
:10132000B795F7959E3F08F0B3CF9395880F08F0D7
:101330009927EE0F97958795089588D0E395C7C0B4
:1013400004D06894B111F7C00895DAD088F09F579F
:1013500090F0B92F9927B751A0F0D1F0660F771F01
:10136000881F991F1AF0BA95C9F712C0B13081F0E1
:10137000E1D0B1E00895DEC0672F782F8827B85FED
:1013800039F0B93FCCF3869577956795B395D9F742
:101390003EF490958095709561957F4F8F4F9F4F4C
:1013A0000895E89409C097FB3EF490958095709558
:1013B00061957F4F8F4F9F4F9923A9F0F92F96E9A1
:1013C000BB279395F695879577956795B795F11116
:1013D000F8CFFAF4BB0F11F460FF1BC06F5F7F4FB3
:1013E0008F4F9F4F16C0882311F096E911C07723C5
:1013F00021F09EE8872F762F05C0662371F096E8CE
:10140000862F70E060E02AF09A95660F771F881F9C
:10141000DAF7880F9695879597F9089597F99F675A
:1014200080E870E060E008959FEF80EC089500246C
:101430000A941616170618060906089500240A9439
:1014400012161306140605060895EECF59D0E8F3D8
:10145000E894EFEFBB273FE048EC5FE76B3D730795
:101460008407950708F1FF279F57B25A6A4D7F40BE
:10147000894CF04032F4BE556542704F8643FF4FB1
:101480000894EE1F915030F0BB0F661F771F881F26
:10149000FF1FEBCF9EE7882332F0BB0F661F771F3D
:1014A000881F9A95C1F79395E095B4C0092E0394CF
:1014B000000C11F4882352F0BB0F40F4BF2B11F441
:1014C00060FF04C06F5F7F4F8F4F9F4F0895EF9372
:1014D000E0FF06C0A2EA2AED3FE049EC5FEBDADE6E
:1014E000E5DF0F90039401FC9058E8E6F0E0A2C01D
:1014F00057FD9058440F551F59F05F3F71F04795C5
:10150000880F97FB991F61F09F3F79F087950895A9
:10151000121613061406551FF2CF4695F1DF08C0C8
:10152000161617061806991FF1CF869571056105E5
:1015300008940895E894BB2766277727CB0197F98D
:1015400008950BD0B3CF73DF28F078DF18F0952320
:1015500009F064CF69CF1124EECFCADFA0F3959FC5
:10156000D1F3950F50E0551F629FF001729FBB278A
:10157000F00DB11D639FAA27F00DB11DAA1F649F36
:101580006627B00DA11D661F829F2227B00DA11DE9
:10159000621F739FB00DA11D621F839FA00D611D6F
:1015A000221F749F3327A00D611D231F849F600D90
:1015B000211D822F762F6A2F11249F5750408AF0C9
:1015C000E1F088234AF0EE0FFF1FBB1F661F771F55
:1015D000881F91505040A9F79E3F510570F01ECFD3
:1015E000AACF5F3FECF3983EDCF38695779567953D
:1015F000B795F795E7959F5FC1F7FE2B880F911D73
:101600009695879597F908959F9320DF0F9007FC93
:10161000EE5F5DCF9F3F49F0915028F48695779516
:101620006795B7959F5F80389F4F880F96958795F0
:1016300097F908959F938F937F936F93FF93EF9301
:101640009B01AC017EDFEF91FF9105D02F913F917F
:101650004F915F9176CFDF93CF931F930F93FF92BC
:10166000EF92DF927B018C01689405C0DA2EEF01C6
:1016700074DFFE01E894A59125913591459155912E
:10168000AEF3EF0107DEFE019701A801DA9479F7C6
:10169000DF90EF90FF900F911F91CF91DF91089510
:1016A000A1E21A2EAA1BBB1BFD010DC0AA1FBB1F66
:1016B000EE1FFF1FA217B307E407F50720F0A21BD8
:1016C000B30BE40BF50B661F771F881F991F1A9445
:1016D00069F760957095809590959B01AC01BD016F
:1016E000CF010895AA1BBB1B51E107C0AA1FBB1F56
:1016F000A617B70710F0A61BB70B881F991F5A959E
:10170000A9F780959095BC01CD010895F894FFCF7D
:10171000200020203A20203A202000202000300005
:10172000414D00504D000A0A1E010000000000005B
:10173000005F00000007000700147F147F14242AB4
:101740007F2A12231308646236495522500005038C
:101750000000001C2241000041221C0014083E0829
:101760001408083E0808005030000008080808085F
:10177000006060000020100804023E5149453E0010
:10178000427F400042615149462141454B31181486
:10179000127F1027454545393C4A494930017109B6
:1017A00005033649494936064949291E003636009F
:1017B00000005636000008142241001414141414BA
:1017C00000412214080201510906324979413E7E46
:1017D0001111117E7F494949363E414141227F41E5
:1017E00041221C7F494949417F090909013E41497C
:1017F000497A7F0808087F00417F41002040413F2F
:10180000017F081422417F404040407F020C027F4C
:101810007F0408107F3E4141413E7F090909063E91
:101820004151215E7F091929464649494931010143
:101830007F01013F4040403F1F2040201F3F403874
:10184000403F631408146307087008076151494555
:1018500043007F41410002040810200041417F0005
:101860000402010204404040404000010204002004
:10187000545454787F4844443838444444203844CD
:1018800044487F3854545418087E0901020C5252BF
:10189000523E7F0804047800447D40002040443DCF
:1018A000007F1028440000417F40007C0418047829
:1018B0007C0804047838444444387C141414080820
:1018C0001414187C7C080404084854545420043F21
:1018D0004440203C4040207C1C2040201C3C4030A8
:1018E000403C44281028440C5050503C4464544C14
:1018F00044000836410000007F0000004136080027
:0A19000010080810087846414678E8
:00000001FF
